{
  "_format": "hh-sol-artifact-1",
  "contractName": "RPS",
  "sourceName": "contracts/RPS.sol",
  "abi": [
    {
      "inputs": [
        {
          "internalType": "uint256",
          "name": "_amount",
          "type": "uint256"
        }
      ],
      "stateMutability": "payable",
      "type": "constructor"
    },
    {
      "inputs": [],
      "name": "amount",
      "outputs": [
        {
          "internalType": "uint256",
          "name": "",
          "type": "uint256"
        }
      ],
      "stateMutability": "view",
      "type": "function"
    },
    {
      "inputs": [
        {
          "internalType": "address",
          "name": "",
          "type": "address"
        }
      ],
      "name": "claimableRewards",
      "outputs": [
        {
          "internalType": "uint256",
          "name": "",
          "type": "uint256"
        }
      ],
      "stateMutability": "view",
      "type": "function"
    },
    {
      "inputs": [
        {
          "internalType": "address",
          "name": "",
          "type": "address"
        }
      ],
      "name": "claimedRewards",
      "outputs": [
        {
          "internalType": "uint256",
          "name": "",
          "type": "uint256"
        }
      ],
      "stateMutability": "view",
      "type": "function"
    },
    {
      "inputs": [
        {
          "internalType": "uint256",
          "name": "_firstMove",
          "type": "uint256"
        }
      ],
      "name": "createGame",
      "outputs": [],
      "stateMutability": "payable",
      "type": "function"
    },
    {
      "inputs": [
        {
          "internalType": "uint256",
          "name": "",
          "type": "uint256"
        }
      ],
      "name": "games",
      "outputs": [
        {
          "internalType": "uint256",
          "name": "id",
          "type": "uint256"
        },
        {
          "internalType": "address",
          "name": "opononet1",
          "type": "address"
        },
        {
          "internalType": "uint256",
          "name": "move1",
          "type": "uint256"
        },
        {
          "internalType": "address",
          "name": "opononet2",
          "type": "address"
        },
        {
          "internalType": "uint256",
          "name": "move2",
          "type": "uint256"
        },
        {
          "internalType": "uint256",
          "name": "value",
          "type": "uint256"
        },
        {
          "internalType": "address",
          "name": "winner",
          "type": "address"
        }
      ],
      "stateMutability": "view",
      "type": "function"
    },
    {
      "inputs": [],
      "name": "getBallance",
      "outputs": [
        {
          "internalType": "uint256",
          "name": "",
          "type": "uint256"
        }
      ],
      "stateMutability": "view",
      "type": "function"
    },
    {
      "inputs": [
        {
          "internalType": "address",
          "name": "adr",
          "type": "address"
        }
      ],
      "name": "getClaimableRewards",
      "outputs": [
        {
          "internalType": "uint256",
          "name": "reward",
          "type": "uint256"
        }
      ],
      "stateMutability": "view",
      "type": "function"
    },
    {
      "inputs": [
        {
          "internalType": "address",
          "name": "adr",
          "type": "address"
        }
      ],
      "name": "getClaimedRewards",
      "outputs": [
        {
          "internalType": "uint256",
          "name": "claimedReward",
          "type": "uint256"
        }
      ],
      "stateMutability": "view",
      "type": "function"
    },
    {
      "inputs": [
        {
          "internalType": "uint256",
          "name": "id",
          "type": "uint256"
        }
      ],
      "name": "getGame",
      "outputs": [
        {
          "components": [
            {
              "internalType": "uint256",
              "name": "id",
              "type": "uint256"
            },
            {
              "internalType": "address",
              "name": "opononet1",
              "type": "address"
            },
            {
              "internalType": "uint256",
              "name": "move1",
              "type": "uint256"
            },
            {
              "internalType": "address",
              "name": "opononet2",
              "type": "address"
            },
            {
              "internalType": "uint256",
              "name": "move2",
              "type": "uint256"
            },
            {
              "internalType": "uint256",
              "name": "value",
              "type": "uint256"
            },
            {
              "internalType": "address",
              "name": "winner",
              "type": "address"
            }
          ],
          "internalType": "struct RPS.Game",
          "name": "game",
          "type": "tuple"
        }
      ],
      "stateMutability": "view",
      "type": "function"
    },
    {
      "inputs": [
        {
          "internalType": "uint256",
          "name": "id",
          "type": "uint256"
        }
      ],
      "name": "getPendingGame",
      "outputs": [
        {
          "components": [
            {
              "internalType": "uint256",
              "name": "id",
              "type": "uint256"
            },
            {
              "internalType": "address",
              "name": "gameCreator",
              "type": "address"
            },
            {
              "internalType": "uint256",
              "name": "value",
              "type": "uint256"
            },
            {
              "internalType": "bool",
              "name": "active",
              "type": "bool"
            }
          ],
          "internalType": "struct RPS.PendingGame",
          "name": "pendingGame",
          "type": "tuple"
        }
      ],
      "stateMutability": "view",
      "type": "function"
    },
    {
      "inputs": [
        {
          "internalType": "address",
          "name": "adr",
          "type": "address"
        }
      ],
      "name": "getPlayerDeuces",
      "outputs": [
        {
          "components": [
            {
              "internalType": "uint256",
              "name": "id",
              "type": "uint256"
            },
            {
              "internalType": "address",
              "name": "opononet1",
              "type": "address"
            },
            {
              "internalType": "uint256",
              "name": "move1",
              "type": "uint256"
            },
            {
              "internalType": "address",
              "name": "opononet2",
              "type": "address"
            },
            {
              "internalType": "uint256",
              "name": "move2",
              "type": "uint256"
            },
            {
              "internalType": "uint256",
              "name": "value",
              "type": "uint256"
            },
            {
              "internalType": "address",
              "name": "winner",
              "type": "address"
            }
          ],
          "internalType": "struct RPS.Game[]",
          "name": "deuces",
          "type": "tuple[]"
        }
      ],
      "stateMutability": "view",
      "type": "function"
    },
    {
      "inputs": [
        {
          "internalType": "address",
          "name": "adr",
          "type": "address"
        }
      ],
      "name": "getPlayerGames",
      "outputs": [
        {
          "components": [
            {
              "internalType": "uint256",
              "name": "id",
              "type": "uint256"
            },
            {
              "internalType": "address",
              "name": "opononet1",
              "type": "address"
            },
            {
              "internalType": "uint256",
              "name": "move1",
              "type": "uint256"
            },
            {
              "internalType": "address",
              "name": "opononet2",
              "type": "address"
            },
            {
              "internalType": "uint256",
              "name": "move2",
              "type": "uint256"
            },
            {
              "internalType": "uint256",
              "name": "value",
              "type": "uint256"
            },
            {
              "internalType": "address",
              "name": "winner",
              "type": "address"
            }
          ],
          "internalType": "struct RPS.Game[]",
          "name": "Games",
          "type": "tuple[]"
        }
      ],
      "stateMutability": "view",
      "type": "function"
    },
    {
      "inputs": [
        {
          "internalType": "address",
          "name": "adr",
          "type": "address"
        }
      ],
      "name": "getPlayerLooses",
      "outputs": [
        {
          "components": [
            {
              "internalType": "uint256",
              "name": "id",
              "type": "uint256"
            },
            {
              "internalType": "address",
              "name": "opononet1",
              "type": "address"
            },
            {
              "internalType": "uint256",
              "name": "move1",
              "type": "uint256"
            },
            {
              "internalType": "address",
              "name": "opononet2",
              "type": "address"
            },
            {
              "internalType": "uint256",
              "name": "move2",
              "type": "uint256"
            },
            {
              "internalType": "uint256",
              "name": "value",
              "type": "uint256"
            },
            {
              "internalType": "address",
              "name": "winner",
              "type": "address"
            }
          ],
          "internalType": "struct RPS.Game[]",
          "name": "looses",
          "type": "tuple[]"
        }
      ],
      "stateMutability": "view",
      "type": "function"
    },
    {
      "inputs": [
        {
          "internalType": "address",
          "name": "adr",
          "type": "address"
        }
      ],
      "name": "getPlayerPendingGames",
      "outputs": [
        {
          "components": [
            {
              "internalType": "uint256",
              "name": "id",
              "type": "uint256"
            },
            {
              "internalType": "address",
              "name": "gameCreator",
              "type": "address"
            },
            {
              "internalType": "uint256",
              "name": "value",
              "type": "uint256"
            },
            {
              "internalType": "bool",
              "name": "active",
              "type": "bool"
            }
          ],
          "internalType": "struct RPS.PendingGame[]",
          "name": "PendingGames",
          "type": "tuple[]"
        }
      ],
      "stateMutability": "view",
      "type": "function"
    },
    {
      "inputs": [
        {
          "internalType": "address",
          "name": "adr",
          "type": "address"
        }
      ],
      "name": "getPlayerWins",
      "outputs": [
        {
          "components": [
            {
              "internalType": "uint256",
              "name": "id",
              "type": "uint256"
            },
            {
              "internalType": "address",
              "name": "opononet1",
              "type": "address"
            },
            {
              "internalType": "uint256",
              "name": "move1",
              "type": "uint256"
            },
            {
              "internalType": "address",
              "name": "opononet2",
              "type": "address"
            },
            {
              "internalType": "uint256",
              "name": "move2",
              "type": "uint256"
            },
            {
              "internalType": "uint256",
              "name": "value",
              "type": "uint256"
            },
            {
              "internalType": "address",
              "name": "winner",
              "type": "address"
            }
          ],
          "internalType": "struct RPS.Game[]",
          "name": "wins",
          "type": "tuple[]"
        }
      ],
      "stateMutability": "view",
      "type": "function"
    },
    {
      "inputs": [
        {
          "internalType": "uint256",
          "name": "id",
          "type": "uint256"
        },
        {
          "internalType": "uint256",
          "name": "_secondMove",
          "type": "uint256"
        }
      ],
      "name": "joinGame",
      "outputs": [],
      "stateMutability": "payable",
      "type": "function"
    },
    {
      "inputs": [],
      "name": "owner",
      "outputs": [
        {
          "internalType": "address",
          "name": "",
          "type": "address"
        }
      ],
      "stateMutability": "view",
      "type": "function"
    },
    {
      "inputs": [
        {
          "internalType": "uint256",
          "name": "",
          "type": "uint256"
        }
      ],
      "name": "pendingGames",
      "outputs": [
        {
          "internalType": "uint256",
          "name": "id",
          "type": "uint256"
        },
        {
          "internalType": "address",
          "name": "gameCreator",
          "type": "address"
        },
        {
          "internalType": "uint256",
          "name": "value",
          "type": "uint256"
        },
        {
          "internalType": "bool",
          "name": "active",
          "type": "bool"
        }
      ],
      "stateMutability": "view",
      "type": "function"
    },
    {
      "inputs": [],
      "name": "totalGames",
      "outputs": [
        {
          "internalType": "uint256",
          "name": "",
          "type": "uint256"
        }
      ],
      "stateMutability": "view",
      "type": "function"
    },
    {
      "inputs": [],
      "name": "totalPendingGames",
      "outputs": [
        {
          "internalType": "uint256",
          "name": "",
          "type": "uint256"
        }
      ],
      "stateMutability": "view",
      "type": "function"
    }
  ],
  "bytecode": "0x608060405260405162002765380380620027658339818101604052810190620000299190620000c8565b8060008190555033600160006101000a81548173ffffffffffffffffffffffffffffffffffffffff021916908373ffffffffffffffffffffffffffffffffffffffff1602179055506000600281905550600060038190555050620000fa565b600080fd5b6000819050919050565b620000a2816200008d565b8114620000ae57600080fd5b50565b600081519050620000c28162000097565b92915050565b600060208284031215620000e157620000e062000088565b5b6000620000f184828501620000b1565b91505092915050565b61265b806200010a6000396000f3fe60806040526004361061011f5760003560e01c8063993234e9116100a0578063b9e35db011610064578063b9e35db014610448578063bd83434514610485578063dc01f60d146104c2578063e89e14ee146104ff578063f97e20a71461052a5761011f565b8063993234e91461034a578063a2f77bcc14610387578063aa8c217c146103c4578063b60b9fcb146103ef578063b74ae96c1461040b5761011f565b806348e837b9116100e757806348e837b914610249578063579e94ee146102655780636e9ef4bf146102a55780637f6a9f0d146102e25780638da5cb5b1461031f5761011f565b8063117a5b9014610124578063129daf84146101675780632c4e591b146101a4578063308e401e146101cf5780633d598f801461020c575b600080fd5b34801561013057600080fd5b5061014b60048036038101906101469190611e59565b610555565b60405161015e9796959493929190611ed6565b60405180910390f35b34801561017357600080fd5b5061018e60048036038101906101899190611f71565b6105f7565b60405161019b91906120f9565b60405180910390f35b3480156101b057600080fd5b506101b96109ca565b6040516101c6919061211b565b60405180910390f35b3480156101db57600080fd5b506101f660048036038101906101f19190611f71565b6109d0565b604051610203919061211b565b60405180910390f35b34801561021857600080fd5b50610233600480360381019061022e9190611e59565b610a19565b60405161024091906121a6565b60405180910390f35b610263600480360381019061025e9190611e59565b610acb565b005b34801561027157600080fd5b5061028c60048036038101906102879190611e59565b610b2e565b60405161029c94939291906121d0565b60405180910390f35b3480156102b157600080fd5b506102cc60048036038101906102c79190611f71565b610b8b565b6040516102d99190612319565b60405180910390f35b3480156102ee57600080fd5b5061030960048036038101906103049190611f71565b610de1565b60405161031691906120f9565b60405180910390f35b34801561032b57600080fd5b5061033461103b565b604051610341919061233b565b60405180910390f35b34801561035657600080fd5b50610371600480360381019061036c9190611f71565b611061565b60405161037e91906120f9565b60405180910390f35b34801561039357600080fd5b506103ae60048036038101906103a99190611e59565b61120f565b6040516103bb91906123e4565b60405180910390f35b3480156103d057600080fd5b506103d9611366565b6040516103e6919061211b565b60405180910390f35b610409600480360381019061040491906123ff565b61136c565b005b34801561041757600080fd5b50610432600480360381019061042d9190611f71565b6116fc565b60405161043f91906120f9565b60405180910390f35b34801561045457600080fd5b5061046f600480360381019061046a9190611f71565b6118a8565b60405161047c919061211b565b60405180910390f35b34801561049157600080fd5b506104ac60048036038101906104a79190611f71565b6118f1565b6040516104b9919061211b565b60405180910390f35b3480156104ce57600080fd5b506104e960048036038101906104e49190611f71565b611909565b6040516104f6919061211b565b60405180910390f35b34801561050b57600080fd5b50610514611921565b604051610521919061211b565b60405180910390f35b34801561053657600080fd5b5061053f611929565b60405161054c919061211b565b60405180910390f35b60066020528060005260406000206000915090508060000154908060010160009054906101000a900473ffffffffffffffffffffffffffffffffffffffff16908060020154908060030160009054906101000a900473ffffffffffffffffffffffffffffffffffffffff16908060040154908060050154908060060160009054906101000a900473ffffffffffffffffffffffffffffffffffffffff16905087565b60606000805b60025481116106fe578373ffffffffffffffffffffffffffffffffffffffff166006600083815260200190815260200160002060010160009054906101000a900473ffffffffffffffffffffffffffffffffffffffff1673ffffffffffffffffffffffffffffffffffffffff1614806106d757508373ffffffffffffffffffffffffffffffffffffffff166006600083815260200190815260200160002060030160009054906101000a900473ffffffffffffffffffffffffffffffffffffffff1673ffffffffffffffffffffffffffffffffffffffff16145b156106eb5781806106e79061246e565b9250505b80806106f69061246e565b9150506105fd565b508067ffffffffffffffff811115610719576107186124b7565b5b60405190808252806020026020018201604052801561075257816020015b61073f611d5f565b8152602001906001900390816107375790505b5091506000905060005b60025481116109c3578373ffffffffffffffffffffffffffffffffffffffff166006600083815260200190815260200160002060010160009054906101000a900473ffffffffffffffffffffffffffffffffffffffff1673ffffffffffffffffffffffffffffffffffffffff16148061083657508373ffffffffffffffffffffffffffffffffffffffff166006600083815260200190815260200160002060030160009054906101000a900473ffffffffffffffffffffffffffffffffffffffff1673ffffffffffffffffffffffffffffffffffffffff16145b156109b057600660008281526020019081526020016000206040518060e0016040529081600082015481526020016001820160009054906101000a900473ffffffffffffffffffffffffffffffffffffffff1673ffffffffffffffffffffffffffffffffffffffff1673ffffffffffffffffffffffffffffffffffffffff168152602001600282015481526020016003820160009054906101000a900473ffffffffffffffffffffffffffffffffffffffff1673ffffffffffffffffffffffffffffffffffffffff1673ffffffffffffffffffffffffffffffffffffffff16815260200160048201548152602001600582015481526020016006820160009054906101000a900473ffffffffffffffffffffffffffffffffffffffff1673ffffffffffffffffffffffffffffffffffffffff1673ffffffffffffffffffffffffffffffffffffffff1681525050838381518110610996576109956124e6565b5b602002602001018190525081806109ac9061246e565b9250505b80806109bb9061246e565b91505061075c565b5050919050565b60025481565b6000600760008373ffffffffffffffffffffffffffffffffffffffff1673ffffffffffffffffffffffffffffffffffffffff168152602001908152602001600020549050919050565b610a21611dde565b60056000838152602001908152602001600020604051806080016040529081600082015481526020016001820160009054906101000a900473ffffffffffffffffffffffffffffffffffffffff1673ffffffffffffffffffffffffffffffffffffffff1673ffffffffffffffffffffffffffffffffffffffff168152602001600282015481526020016003820160009054906101000a900460ff1615151515815250509050919050565b3373ffffffffffffffffffffffffffffffffffffffff1631341115610aef57600080fd5b600054341015610afe57600080fd5b6000811480610b0d5750600281145b80610b185750600181145b610b2157600080fd5b610b2b813361192f565b50565b60056020528060005260406000206000915090508060000154908060010160009054906101000a900473ffffffffffffffffffffffffffffffffffffffff16908060020154908060030160009054906101000a900460ff16905084565b60606000805b6003548111610c26578373ffffffffffffffffffffffffffffffffffffffff166005600083815260200190815260200160002060010160009054906101000a900473ffffffffffffffffffffffffffffffffffffffff1673ffffffffffffffffffffffffffffffffffffffff161415610c13578180610c0f9061246e565b9250505b8080610c1e9061246e565b915050610b91565b508067ffffffffffffffff811115610c4157610c406124b7565b5b604051908082528060200260200182016040528015610c7a57816020015b610c67611dde565b815260200190600190039081610c5f5790505b5091506000905060005b6003548111610dda573373ffffffffffffffffffffffffffffffffffffffff166005600083815260200190815260200160002060010160009054906101000a900473ffffffffffffffffffffffffffffffffffffffff1673ffffffffffffffffffffffffffffffffffffffff161415610dc75760056000828152602001908152602001600020604051806080016040529081600082015481526020016001820160009054906101000a900473ffffffffffffffffffffffffffffffffffffffff1673ffffffffffffffffffffffffffffffffffffffff1673ffffffffffffffffffffffffffffffffffffffff168152602001600282015481526020016003820160009054906101000a900460ff161515151581525050838381518110610dad57610dac6124e6565b5b60200260200101819052508180610dc39061246e565b9250505b8080610dd29061246e565b915050610c84565b5050919050565b60606000610dee836105f7565b90506000805b8251811015610ec857600073ffffffffffffffffffffffffffffffffffffffff16838281518110610e2857610e276124e6565b5b602002602001015160c0015173ffffffffffffffffffffffffffffffffffffffff1614158015610ea157508473ffffffffffffffffffffffffffffffffffffffff16838281518110610e7d57610e7c6124e6565b5b602002602001015160c0015173ffffffffffffffffffffffffffffffffffffffff16145b15610eb5578180610eb19061246e565b9250505b8080610ec09061246e565b915050610df4565b508067ffffffffffffffff811115610ee357610ee26124b7565b5b604051908082528060200260200182016040528015610f1c57816020015b610f09611d5f565b815260200190600190039081610f015790505b5092506000905060005b825181101561103357600073ffffffffffffffffffffffffffffffffffffffff16838281518110610f5a57610f596124e6565b5b602002602001015160c0015173ffffffffffffffffffffffffffffffffffffffff1614158015610fd357508473ffffffffffffffffffffffffffffffffffffffff16838281518110610faf57610fae6124e6565b5b602002602001015160c0015173ffffffffffffffffffffffffffffffffffffffff16145b1561102057828181518110610feb57610fea6124e6565b5b6020026020010151848381518110611006576110056124e6565b5b6020026020010181905250818061101c9061246e565b9250505b808061102b9061246e565b915050610f26565b505050919050565b600160009054906101000a900473ffffffffffffffffffffffffffffffffffffffff1681565b6060600061106e836105f7565b90506000805b82518110156110f257600073ffffffffffffffffffffffffffffffffffffffff168382815181106110a8576110a76124e6565b5b602002602001015160c0015173ffffffffffffffffffffffffffffffffffffffff1614156110df5781806110db9061246e565b9250505b80806110ea9061246e565b915050611074565b508067ffffffffffffffff81111561110d5761110c6124b7565b5b60405190808252806020026020018201604052801561114657816020015b611133611d5f565b81526020019060019003908161112b5790505b5092506000905060005b825181101561120757600073ffffffffffffffffffffffffffffffffffffffff16838281518110611184576111836124e6565b5b602002602001015160c0015173ffffffffffffffffffffffffffffffffffffffff1614156111f4578281815181106111bf576111be6124e6565b5b60200260200101518483815181106111da576111d96124e6565b5b602002602001018190525081806111f09061246e565b9250505b80806111ff9061246e565b915050611150565b505050919050565b611217611d5f565b600660008381526020019081526020016000206040518060e0016040529081600082015481526020016001820160009054906101000a900473ffffffffffffffffffffffffffffffffffffffff1673ffffffffffffffffffffffffffffffffffffffff1673ffffffffffffffffffffffffffffffffffffffff168152602001600282015481526020016003820160009054906101000a900473ffffffffffffffffffffffffffffffffffffffff1673ffffffffffffffffffffffffffffffffffffffff1673ffffffffffffffffffffffffffffffffffffffff16815260200160048201548152602001600582015481526020016006820160009054906101000a900473ffffffffffffffffffffffffffffffffffffffff1673ffffffffffffffffffffffffffffffffffffffff1673ffffffffffffffffffffffffffffffffffffffff16815250509050919050565b60005481565b60005434101561137b57600080fd5b600081148061138a5750600281145b806113955750600181145b61139e57600080fd5b600115156005600084815260200190815260200160002060030160009054906101000a900460ff161515146113d257600080fd5b600061140760046000600560008781526020019081526020016000206000015481526020019081526020016000205483611a94565b905060006005600085815260200190815260200160002060030160006101000a81548160ff02191690831515021790555060008082141561153157600054600760006005600088815260200190815260200160002060010160009054906101000a900473ffffffffffffffffffffffffffffffffffffffff1673ffffffffffffffffffffffffffffffffffffffff1673ffffffffffffffffffffffffffffffffffffffff16815260200190815260200160002060008282546114c99190612515565b92505081905550600054600760003373ffffffffffffffffffffffffffffffffffffffff1673ffffffffffffffffffffffffffffffffffffffff16815260200190815260200160002060008282546115219190612515565b925050819055506000905061169d565b600182141561161e57600a601360005461154b919061256b565b61155591906125f4565b600760006005600088815260200190815260200160002060010160009054906101000a900473ffffffffffffffffffffffffffffffffffffffff1673ffffffffffffffffffffffffffffffffffffffff1673ffffffffffffffffffffffffffffffffffffffff16815260200190815260200160002060008282546115d99190612515565b925050819055506005600085815260200190815260200160002060010160009054906101000a900473ffffffffffffffffffffffffffffffffffffffff16905061169c565b600282141561169b57600a6013600054611638919061256b565b61164291906125f4565b600760003373ffffffffffffffffffffffffffffffffffffffff1673ffffffffffffffffffffffffffffffffffffffff16815260200190815260200160002060008282546116909190612515565b925050819055503390505b5b5b6116f66005600086815260200190815260200160002060010160009054906101000a900473ffffffffffffffffffffffffffffffffffffffff166004600087815260200190815260200160002054338660005486611bad565b50505050565b60606000611709836105f7565b90506000805b825181101561178c578473ffffffffffffffffffffffffffffffffffffffff16838281518110611742576117416124e6565b5b602002602001015160c0015173ffffffffffffffffffffffffffffffffffffffff1614156117795781806117759061246e565b9250505b80806117849061246e565b91505061170f565b508067ffffffffffffffff8111156117a7576117a66124b7565b5b6040519080825280602002602001820160405280156117e057816020015b6117cd611d5f565b8152602001906001900390816117c55790505b5092506000905060005b82518110156118a0573373ffffffffffffffffffffffffffffffffffffffff1683828151811061181d5761181c6124e6565b5b602002602001015160c0015173ffffffffffffffffffffffffffffffffffffffff16141561188d57828181518110611858576118576124e6565b5b6020026020010151848381518110611873576118726124e6565b5b602002602001018190525081806118899061246e565b9250505b80806118989061246e565b9150506117ea565b505050919050565b6000600860008373ffffffffffffffffffffffffffffffffffffffff1673ffffffffffffffffffffffffffffffffffffffff168152602001908152602001600020549050919050565b60086020528060005260406000206000915090505481565b60076020528060005260406000206000915090505481565b600047905090565b60035481565b600360008154809291906119429061246e565b91905055506000604051806080016040528060035481526020018373ffffffffffffffffffffffffffffffffffffffff1681526020016000548152602001600115158152509050806005600060035481526020019081526020016000206000820151816000015560208201518160010160006101000a81548173ffffffffffffffffffffffffffffffffffffffff021916908373ffffffffffffffffffffffffffffffffffffffff1602179055506040820151816002015560608201518160030160006101000a81548160ff0219169083151502179055509050508260046000600354815260200190815260200160002081905550600054600760008473ffffffffffffffffffffffffffffffffffffffff1673ffffffffffffffffffffffffffffffffffffffff1681526020019081526020016000206000828254611a889190612515565b92505081905550505050565b60008083148015611aa55750600082145b15611ab35760009050611ba7565b600083148015611ac35750600282145b15611ad15760019050611ba6565b600083148015611ae15750600182145b15611aef5760029050611ba5565b600283148015611aff5750600282145b15611b0d5760009050611ba4565b600283148015611b1d5750600082145b15611b2b5760029050611ba3565b600283148015611b3b5750600182145b15611b495760019050611ba2565b600183148015611b595750600182145b15611b675760009050611ba1565b600183148015611b775750600082145b15611b855760019050611ba0565b600183148015611b955750600282145b15611b9f57600290505b5b5b5b5b5b5b5b5b92915050565b60026000815480929190611bc09061246e565b919050555060006040518060e0016040528060025481526020018873ffffffffffffffffffffffffffffffffffffffff1681526020018781526020018673ffffffffffffffffffffffffffffffffffffffff1681526020018581526020018481526020018373ffffffffffffffffffffffffffffffffffffffff168152509050806006600060025481526020019081526020016000206000820151816000015560208201518160010160006101000a81548173ffffffffffffffffffffffffffffffffffffffff021916908373ffffffffffffffffffffffffffffffffffffffff1602179055506040820151816002015560608201518160030160006101000a81548173ffffffffffffffffffffffffffffffffffffffff021916908373ffffffffffffffffffffffffffffffffffffffff1602179055506080820151816004015560a0820151816005015560c08201518160060160006101000a81548173ffffffffffffffffffffffffffffffffffffffff021916908373ffffffffffffffffffffffffffffffffffffffff16021790555090505050505050505050565b6040518060e0016040528060008152602001600073ffffffffffffffffffffffffffffffffffffffff16815260200160008152602001600073ffffffffffffffffffffffffffffffffffffffff1681526020016000815260200160008152602001600073ffffffffffffffffffffffffffffffffffffffff1681525090565b604051806080016040528060008152602001600073ffffffffffffffffffffffffffffffffffffffff168152602001600081526020016000151581525090565b600080fd5b6000819050919050565b611e3681611e23565b8114611e4157600080fd5b50565b600081359050611e5381611e2d565b92915050565b600060208284031215611e6f57611e6e611e1e565b5b6000611e7d84828501611e44565b91505092915050565b611e8f81611e23565b82525050565b600073ffffffffffffffffffffffffffffffffffffffff82169050919050565b6000611ec082611e95565b9050919050565b611ed081611eb5565b82525050565b600060e082019050611eeb600083018a611e86565b611ef86020830189611ec7565b611f056040830188611e86565b611f126060830187611ec7565b611f1f6080830186611e86565b611f2c60a0830185611e86565b611f3960c0830184611ec7565b98975050505050505050565b611f4e81611eb5565b8114611f5957600080fd5b50565b600081359050611f6b81611f45565b92915050565b600060208284031215611f8757611f86611e1e565b5b6000611f9584828501611f5c565b91505092915050565b600081519050919050565b600082825260208201905092915050565b6000819050602082019050919050565b611fd381611e23565b82525050565b611fe281611eb5565b82525050565b60e082016000820151611ffe6000850182611fca565b5060208201516120116020850182611fd9565b5060408201516120246040850182611fca565b5060608201516120376060850182611fd9565b50608082015161204a6080850182611fca565b5060a082015161205d60a0850182611fca565b5060c082015161207060c0850182611fd9565b50505050565b60006120828383611fe8565b60e08301905092915050565b6000602082019050919050565b60006120a682611f9e565b6120b08185611fa9565b93506120bb83611fba565b8060005b838110156120ec5781516120d38882612076565b97506120de8361208e565b9250506001810190506120bf565b5085935050505092915050565b60006020820190508181036000830152612113818461209b565b905092915050565b60006020820190506121306000830184611e86565b92915050565b60008115159050919050565b61214b81612136565b82525050565b6080820160008201516121676000850182611fca565b50602082015161217a6020850182611fd9565b50604082015161218d6040850182611fca565b5060608201516121a06060850182612142565b50505050565b60006080820190506121bb6000830184612151565b92915050565b6121ca81612136565b82525050565b60006080820190506121e56000830187611e86565b6121f26020830186611ec7565b6121ff6040830185611e86565b61220c60608301846121c1565b95945050505050565b600081519050919050565b600082825260208201905092915050565b6000819050602082019050919050565b6080820160008201516122576000850182611fca565b50602082015161226a6020850182611fd9565b50604082015161227d6040850182611fca565b5060608201516122906060850182612142565b50505050565b60006122a28383612241565b60808301905092915050565b6000602082019050919050565b60006122c682612215565b6122d08185612220565b93506122db83612231565b8060005b8381101561230c5781516122f38882612296565b97506122fe836122ae565b9250506001810190506122df565b5085935050505092915050565b6000602082019050818103600083015261233381846122bb565b905092915050565b60006020820190506123506000830184611ec7565b92915050565b60e08201600082015161236c6000850182611fca565b50602082015161237f6020850182611fd9565b5060408201516123926040850182611fca565b5060608201516123a56060850182611fd9565b5060808201516123b86080850182611fca565b5060a08201516123cb60a0850182611fca565b5060c08201516123de60c0850182611fd9565b50505050565b600060e0820190506123f96000830184612356565b92915050565b6000806040838503121561241657612415611e1e565b5b600061242485828601611e44565b925050602061243585828601611e44565b9150509250929050565b7f4e487b7100000000000000000000000000000000000000000000000000000000600052601160045260246000fd5b600061247982611e23565b91507fffffffffffffffffffffffffffffffffffffffffffffffffffffffffffffffff8214156124ac576124ab61243f565b5b600182019050919050565b7f4e487b7100000000000000000000000000000000000000000000000000000000600052604160045260246000fd5b7f4e487b7100000000000000000000000000000000000000000000000000000000600052603260045260246000fd5b600061252082611e23565b915061252b83611e23565b9250827fffffffffffffffffffffffffffffffffffffffffffffffffffffffffffffffff038211156125605761255f61243f565b5b828201905092915050565b600061257682611e23565b915061258183611e23565b9250817fffffffffffffffffffffffffffffffffffffffffffffffffffffffffffffffff04831182151516156125ba576125b961243f565b5b828202905092915050565b7f4e487b7100000000000000000000000000000000000000000000000000000000600052601260045260246000fd5b60006125ff82611e23565b915061260a83611e23565b92508261261a576126196125c5565b5b82820490509291505056fea264697066735822122011a70a074a26931964fcd66949b2d21843ae47388d2fadd57aa7fb3dc4135e7e64736f6c63430008090033",
  "linkReferences": {},
  "deployedLinkReferences": {}
}