{
  "_format": "hh-sol-artifact-1",
  "contractName": "RPS",
  "sourceName": "contracts/RPS.sol",
  "abi": [
    {
      "inputs": [
        {
          "internalType": "uint256",
          "name": "_amount",
          "type": "uint256"
        }
      ],
      "stateMutability": "payable",
      "type": "constructor"
    },
    {
      "inputs": [],
      "name": "amount",
      "outputs": [
        {
          "internalType": "uint256",
          "name": "",
          "type": "uint256"
        }
      ],
      "stateMutability": "view",
      "type": "function"
    },
    {
      "inputs": [
        {
          "internalType": "uint256",
          "name": "id",
          "type": "uint256"
        }
      ],
      "name": "cancelGame",
      "outputs": [],
      "stateMutability": "nonpayable",
      "type": "function"
    },
    {
      "inputs": [
        {
          "internalType": "uint256",
          "name": "_amount",
          "type": "uint256"
        }
      ],
      "name": "claimRewards",
      "outputs": [],
      "stateMutability": "nonpayable",
      "type": "function"
    },
    {
      "inputs": [
        {
          "internalType": "address",
          "name": "",
          "type": "address"
        }
      ],
      "name": "claimableRewards",
      "outputs": [
        {
          "internalType": "uint256",
          "name": "",
          "type": "uint256"
        }
      ],
      "stateMutability": "view",
      "type": "function"
    },
    {
      "inputs": [
        {
          "internalType": "address",
          "name": "",
          "type": "address"
        }
      ],
      "name": "claimedRewards",
      "outputs": [
        {
          "internalType": "uint256",
          "name": "",
          "type": "uint256"
        }
      ],
      "stateMutability": "view",
      "type": "function"
    },
    {
      "inputs": [
        {
          "internalType": "uint256",
          "name": "_firstMove",
          "type": "uint256"
        }
      ],
      "name": "createGame",
      "outputs": [],
      "stateMutability": "payable",
      "type": "function"
    },
    {
      "inputs": [
        {
          "internalType": "uint256",
          "name": "",
          "type": "uint256"
        }
      ],
      "name": "games",
      "outputs": [
        {
          "internalType": "uint256",
          "name": "id",
          "type": "uint256"
        },
        {
          "internalType": "address",
          "name": "opponent1",
          "type": "address"
        },
        {
          "internalType": "uint256",
          "name": "move1",
          "type": "uint256"
        },
        {
          "internalType": "address",
          "name": "opponent2",
          "type": "address"
        },
        {
          "internalType": "uint256",
          "name": "move2",
          "type": "uint256"
        },
        {
          "internalType": "uint256",
          "name": "value",
          "type": "uint256"
        },
        {
          "internalType": "address",
          "name": "winner",
          "type": "address"
        },
        {
          "internalType": "uint256",
          "name": "timestamp",
          "type": "uint256"
        }
      ],
      "stateMutability": "view",
      "type": "function"
    },
    {
      "inputs": [],
      "name": "getActivePendingGames",
      "outputs": [
        {
          "components": [
            {
              "internalType": "uint256",
              "name": "id",
              "type": "uint256"
            },
            {
              "internalType": "address",
              "name": "gameCreator",
              "type": "address"
            },
            {
              "internalType": "uint256",
              "name": "value",
              "type": "uint256"
            },
            {
              "internalType": "bool",
              "name": "active",
              "type": "bool"
            },
            {
              "internalType": "uint256",
              "name": "timestamp",
              "type": "uint256"
            }
          ],
          "internalType": "struct RPS.PendingGame[]",
          "name": "activePendingGames",
          "type": "tuple[]"
        }
      ],
      "stateMutability": "view",
      "type": "function"
    },
    {
      "inputs": [],
      "name": "getBallance",
      "outputs": [
        {
          "internalType": "uint256",
          "name": "",
          "type": "uint256"
        }
      ],
      "stateMutability": "view",
      "type": "function"
    },
    {
      "inputs": [
        {
          "internalType": "address",
          "name": "adr",
          "type": "address"
        }
      ],
      "name": "getClaimableRewards",
      "outputs": [
        {
          "internalType": "uint256",
          "name": "reward",
          "type": "uint256"
        }
      ],
      "stateMutability": "view",
      "type": "function"
    },
    {
      "inputs": [
        {
          "internalType": "address",
          "name": "adr",
          "type": "address"
        }
      ],
      "name": "getClaimedRewards",
      "outputs": [
        {
          "internalType": "uint256",
          "name": "claimedReward",
          "type": "uint256"
        }
      ],
      "stateMutability": "view",
      "type": "function"
    },
    {
      "inputs": [
        {
          "internalType": "uint256",
          "name": "id",
          "type": "uint256"
        }
      ],
      "name": "getGame",
      "outputs": [
        {
          "components": [
            {
              "internalType": "uint256",
              "name": "id",
              "type": "uint256"
            },
            {
              "internalType": "address",
              "name": "opponent1",
              "type": "address"
            },
            {
              "internalType": "uint256",
              "name": "move1",
              "type": "uint256"
            },
            {
              "internalType": "address",
              "name": "opponent2",
              "type": "address"
            },
            {
              "internalType": "uint256",
              "name": "move2",
              "type": "uint256"
            },
            {
              "internalType": "uint256",
              "name": "value",
              "type": "uint256"
            },
            {
              "internalType": "address",
              "name": "winner",
              "type": "address"
            },
            {
              "internalType": "uint256",
              "name": "timestamp",
              "type": "uint256"
            }
          ],
          "internalType": "struct RPS.Game",
          "name": "game",
          "type": "tuple"
        }
      ],
      "stateMutability": "view",
      "type": "function"
    },
    {
      "inputs": [
        {
          "internalType": "uint256",
          "name": "id",
          "type": "uint256"
        }
      ],
      "name": "getPendingGame",
      "outputs": [
        {
          "components": [
            {
              "internalType": "uint256",
              "name": "id",
              "type": "uint256"
            },
            {
              "internalType": "address",
              "name": "gameCreator",
              "type": "address"
            },
            {
              "internalType": "uint256",
              "name": "value",
              "type": "uint256"
            },
            {
              "internalType": "bool",
              "name": "active",
              "type": "bool"
            },
            {
              "internalType": "uint256",
              "name": "timestamp",
              "type": "uint256"
            }
          ],
          "internalType": "struct RPS.PendingGame",
          "name": "pendingGame",
          "type": "tuple"
        }
      ],
      "stateMutability": "view",
      "type": "function"
    },
    {
      "inputs": [
        {
          "internalType": "address",
          "name": "adr",
          "type": "address"
        }
      ],
      "name": "getPlayerGames",
      "outputs": [
        {
          "components": [
            {
              "internalType": "uint256",
              "name": "id",
              "type": "uint256"
            },
            {
              "internalType": "address",
              "name": "opponent1",
              "type": "address"
            },
            {
              "internalType": "uint256",
              "name": "move1",
              "type": "uint256"
            },
            {
              "internalType": "address",
              "name": "opponent2",
              "type": "address"
            },
            {
              "internalType": "uint256",
              "name": "move2",
              "type": "uint256"
            },
            {
              "internalType": "uint256",
              "name": "value",
              "type": "uint256"
            },
            {
              "internalType": "address",
              "name": "winner",
              "type": "address"
            },
            {
              "internalType": "uint256",
              "name": "timestamp",
              "type": "uint256"
            }
          ],
          "internalType": "struct RPS.Game[]",
          "name": "Games",
          "type": "tuple[]"
        }
      ],
      "stateMutability": "view",
      "type": "function"
    },
    {
      "inputs": [
        {
          "internalType": "address",
          "name": "adr",
          "type": "address"
        }
      ],
      "name": "getPlayerPendingGames",
      "outputs": [
        {
          "components": [
            {
              "internalType": "uint256",
              "name": "id",
              "type": "uint256"
            },
            {
              "internalType": "address",
              "name": "gameCreator",
              "type": "address"
            },
            {
              "internalType": "uint256",
              "name": "value",
              "type": "uint256"
            },
            {
              "internalType": "bool",
              "name": "active",
              "type": "bool"
            },
            {
              "internalType": "uint256",
              "name": "timestamp",
              "type": "uint256"
            }
          ],
          "internalType": "struct RPS.PendingGame[]",
          "name": "PendingGames",
          "type": "tuple[]"
        }
      ],
      "stateMutability": "view",
      "type": "function"
    },
    {
      "inputs": [],
      "name": "getTotalPendingGameCount",
      "outputs": [
        {
          "internalType": "uint256",
          "name": "",
          "type": "uint256"
        }
      ],
      "stateMutability": "view",
      "type": "function"
    },
    {
      "inputs": [],
      "name": "getTotoalGameCount",
      "outputs": [
        {
          "internalType": "uint256",
          "name": "",
          "type": "uint256"
        }
      ],
      "stateMutability": "view",
      "type": "function"
    },
    {
      "inputs": [
        {
          "internalType": "uint256",
          "name": "id",
          "type": "uint256"
        },
        {
          "internalType": "uint256",
          "name": "_secondMove",
          "type": "uint256"
        }
      ],
      "name": "joinGame",
      "outputs": [],
      "stateMutability": "payable",
      "type": "function"
    },
    {
      "inputs": [],
      "name": "owner",
      "outputs": [
        {
          "internalType": "address",
          "name": "",
          "type": "address"
        }
      ],
      "stateMutability": "view",
      "type": "function"
    },
    {
      "inputs": [
        {
          "internalType": "uint256",
          "name": "",
          "type": "uint256"
        }
      ],
      "name": "pendingGames",
      "outputs": [
        {
          "internalType": "uint256",
          "name": "id",
          "type": "uint256"
        },
        {
          "internalType": "address",
          "name": "gameCreator",
          "type": "address"
        },
        {
          "internalType": "uint256",
          "name": "value",
          "type": "uint256"
        },
        {
          "internalType": "bool",
          "name": "active",
          "type": "bool"
        },
        {
          "internalType": "uint256",
          "name": "timestamp",
          "type": "uint256"
        }
      ],
      "stateMutability": "view",
      "type": "function"
    },
    {
      "inputs": [],
      "name": "totalGameCount",
      "outputs": [
        {
          "internalType": "uint256",
          "name": "",
          "type": "uint256"
        }
      ],
      "stateMutability": "view",
      "type": "function"
    },
    {
      "inputs": [],
      "name": "totalPendingGameCount",
      "outputs": [
        {
          "internalType": "uint256",
          "name": "",
          "type": "uint256"
        }
      ],
      "stateMutability": "view",
      "type": "function"
    },
    {
      "inputs": [
        {
          "internalType": "uint256",
          "name": "_amount",
          "type": "uint256"
        }
      ],
      "name": "withdraw",
      "outputs": [],
      "stateMutability": "nonpayable",
      "type": "function"
    }
  ],
  "bytecode": "0x6080604052604051620027e6380380620027e68339818101604052810190620000299190620000c8565b8060008190555033600160006101000a81548173ffffffffffffffffffffffffffffffffffffffff021916908373ffffffffffffffffffffffffffffffffffffffff1602179055506000600281905550600060038190555050620000fa565b600080fd5b6000819050919050565b620000a2816200008d565b8114620000ae57600080fd5b50565b600081519050620000c28162000097565b92915050565b600060208284031215620000e157620000e062000088565b5b6000620000f184828501620000b1565b91505092915050565b6126dc806200010a6000396000f3fe6080604052600436106101405760003560e01c806369958ab9116100b6578063b60b9fcb1161006f578063b60b9fcb14610494578063b6d421d0146104b0578063b9e35db0146104db578063bd83434514610518578063dc01f60d14610555578063e89e14ee1461059257610140565b806369958ab9146103705780636e9ef4bf146103995780638da5cb5b146103d65780639c82dd1f14610401578063a2f77bcc1461042c578063aa8c217c1461046957610140565b8063308e401e11610108578063308e401e146102435780633d598f801461028057806347ad2916146102bd57806348e837b9146102e8578063579e94ee1461030457806367013c751461034557610140565b80630962ef79146101455780630d8b7da71461016e578063117a5b9014610199578063129daf84146101dd5780632e1a7d4d1461021a575b600080fd5b34801561015157600080fd5b5061016c60048036038101906101679190611e74565b6105bd565b005b34801561017a57600080fd5b5061018361074b565b6040516101909190612023565b60405180910390f35b3480156101a557600080fd5b506101c060048036038101906101bb9190611e74565b610933565b6040516101d4989796959493929190612063565b60405180910390f35b3480156101e957600080fd5b5061020460048036038101906101ff919061210d565b6109db565b604051610211919061228c565b60405180910390f35b34801561022657600080fd5b50610241600480360381019061023c9190611e74565b610db9565b005b34801561024f57600080fd5b5061026a6004803603810190610265919061210d565b610e5d565b60405161027791906122ae565b60405180910390f35b34801561028c57600080fd5b506102a760048036038101906102a29190611e74565b610ea6565b6040516102b49190612331565b60405180910390f35b3480156102c957600080fd5b506102d2610f62565b6040516102df91906122ae565b60405180910390f35b61030260048036038101906102fd9190611e74565b610f6c565b005b34801561031057600080fd5b5061032b60048036038101906103269190611e74565b610fd0565b60405161033c95949392919061235b565b60405180910390f35b34801561035157600080fd5b5061035a611033565b60405161036791906122ae565b60405180910390f35b34801561037c57600080fd5b5061039760048036038101906103929190611e74565b611039565b005b3480156103a557600080fd5b506103c060048036038101906103bb919061210d565b611165565b6040516103cd9190612023565b60405180910390f35b3480156103e257600080fd5b506103eb6113c3565b6040516103f891906123ae565b60405180910390f35b34801561040d57600080fd5b506104166113e9565b60405161042391906122ae565b60405180910390f35b34801561043857600080fd5b50610453600480360381019061044e9190611e74565b6113ef565b604051610460919061246b565b60405180910390f35b34801561047557600080fd5b5061047e611551565b60405161048b91906122ae565b60405180910390f35b6104ae60048036038101906104a99190612487565b611557565b005b3480156104bc57600080fd5b506104c56118e5565b6040516104d291906122ae565b60405180910390f35b3480156104e757600080fd5b5061050260048036038101906104fd919061210d565b6118ef565b60405161050f91906122ae565b60405180910390f35b34801561052457600080fd5b5061053f600480360381019061053a919061210d565b611938565b60405161054c91906122ae565b60405180910390f35b34801561056157600080fd5b5061057c6004803603810190610577919061210d565b611950565b60405161058991906122ae565b60405180910390f35b34801561059e57600080fd5b506105a7611968565b6040516105b491906122ae565b60405180910390f35b6000600760003373ffffffffffffffffffffffffffffffffffffffff1673ffffffffffffffffffffffffffffffffffffffff168152602001908152602001600020541161060957600080fd5b600760003373ffffffffffffffffffffffffffffffffffffffff1673ffffffffffffffffffffffffffffffffffffffff1681526020019081526020016000205481111561065557600080fd5b80600760003373ffffffffffffffffffffffffffffffffffffffff1673ffffffffffffffffffffffffffffffffffffffff16815260200190815260200160002060008282546106a491906124f6565b9250508190555080600860003373ffffffffffffffffffffffffffffffffffffffff1673ffffffffffffffffffffffffffffffffffffffff16815260200190815260200160002060008282546106fa919061252a565b925050819055503373ffffffffffffffffffffffffffffffffffffffff166108fc829081150290604051600060405180830381858888f19350505050158015610747573d6000803e3d6000fd5b5050565b60606000805b60035481116107ab57600115156005600083815260200190815260200160002060030160009054906101000a900460ff161515036107985781806107949061255e565b9250505b80806107a39061255e565b915050610751565b508067ffffffffffffffff8111156107c6576107c56125a6565b5b6040519080825280602002602001820160405280156107ff57816020015b6107ec611d6b565b8152602001906001900390816107e45790505b5091506000905060005b600354811161092e57600115156005600083815260200190815260200160002060030160009054906101000a900460ff1615150361091b57600560008281526020019081526020016000206040518060a0016040529081600082015481526020016001820160009054906101000a900473ffffffffffffffffffffffffffffffffffffffff1673ffffffffffffffffffffffffffffffffffffffff1673ffffffffffffffffffffffffffffffffffffffff168152602001600282015481526020016003820160009054906101000a900460ff16151515158152602001600482015481525050838381518110610901576109006125d5565b5b602002602001018190525081806109179061255e565b9250505b80806109269061255e565b915050610809565b505090565b60066020528060005260406000206000915090508060000154908060010160009054906101000a900473ffffffffffffffffffffffffffffffffffffffff16908060020154908060030160009054906101000a900473ffffffffffffffffffffffffffffffffffffffff16908060040154908060050154908060060160009054906101000a900473ffffffffffffffffffffffffffffffffffffffff16908060070154905088565b60606000805b6002548111610ae2578373ffffffffffffffffffffffffffffffffffffffff166006600083815260200190815260200160002060010160009054906101000a900473ffffffffffffffffffffffffffffffffffffffff1673ffffffffffffffffffffffffffffffffffffffff161480610abb57508373ffffffffffffffffffffffffffffffffffffffff166006600083815260200190815260200160002060030160009054906101000a900473ffffffffffffffffffffffffffffffffffffffff1673ffffffffffffffffffffffffffffffffffffffff16145b15610acf578180610acb9061255e565b9250505b8080610ada9061255e565b9150506109e1565b508067ffffffffffffffff811115610afd57610afc6125a6565b5b604051908082528060200260200182016040528015610b3657816020015b610b23611db2565b815260200190600190039081610b1b5790505b5091506000905060005b6002548111610db2578373ffffffffffffffffffffffffffffffffffffffff166006600083815260200190815260200160002060010160009054906101000a900473ffffffffffffffffffffffffffffffffffffffff1673ffffffffffffffffffffffffffffffffffffffff161480610c1a57508373ffffffffffffffffffffffffffffffffffffffff166006600083815260200190815260200160002060030160009054906101000a900473ffffffffffffffffffffffffffffffffffffffff1673ffffffffffffffffffffffffffffffffffffffff16145b15610d9f576006600082815260200190815260200160002060405180610100016040529081600082015481526020016001820160009054906101000a900473ffffffffffffffffffffffffffffffffffffffff1673ffffffffffffffffffffffffffffffffffffffff1673ffffffffffffffffffffffffffffffffffffffff168152602001600282015481526020016003820160009054906101000a900473ffffffffffffffffffffffffffffffffffffffff1673ffffffffffffffffffffffffffffffffffffffff1673ffffffffffffffffffffffffffffffffffffffff16815260200160048201548152602001600582015481526020016006820160009054906101000a900473ffffffffffffffffffffffffffffffffffffffff1673ffffffffffffffffffffffffffffffffffffffff1673ffffffffffffffffffffffffffffffffffffffff168152602001600782015481525050838381518110610d8557610d846125d5565b5b60200260200101819052508180610d9b9061255e565b9250505b8080610daa9061255e565b915050610b40565b5050919050565b600160009054906101000a900473ffffffffffffffffffffffffffffffffffffffff1673ffffffffffffffffffffffffffffffffffffffff163373ffffffffffffffffffffffffffffffffffffffff1614610e1357600080fd5b3373ffffffffffffffffffffffffffffffffffffffff166108fc829081150290604051600060405180830381858888f19350505050158015610e59573d6000803e3d6000fd5b5050565b6000600760008373ffffffffffffffffffffffffffffffffffffffff1673ffffffffffffffffffffffffffffffffffffffff168152602001908152602001600020549050919050565b610eae611d6b565b600560008381526020019081526020016000206040518060a0016040529081600082015481526020016001820160009054906101000a900473ffffffffffffffffffffffffffffffffffffffff1673ffffffffffffffffffffffffffffffffffffffff1673ffffffffffffffffffffffffffffffffffffffff168152602001600282015481526020016003820160009054906101000a900460ff161515151581526020016004820154815250509050919050565b6000600254905090565b3373ffffffffffffffffffffffffffffffffffffffff1631341115610f9057600080fd5b600054341015610f9f57600080fd5b6000811480610fae5750600281145b80610fb95750600181145b610fc257600080fd5b610fcd813342611970565b50565b60056020528060005260406000206000915090508060000154908060010160009054906101000a900473ffffffffffffffffffffffffffffffffffffffff16908060020154908060030160009054906101000a900460ff16908060040154905085565b60035481565b6005600082815260200190815260200160002060010160009054906101000a900473ffffffffffffffffffffffffffffffffffffffff1673ffffffffffffffffffffffffffffffffffffffff163373ffffffffffffffffffffffffffffffffffffffff16146110a757600080fd5b600115156005600083815260200190815260200160002060030160009054906101000a900460ff161515146110db57600080fd5b60006005600083815260200190815260200160002060030160006101000a81548160ff021916908315150217905550600054600760003373ffffffffffffffffffffffffffffffffffffffff1673ffffffffffffffffffffffffffffffffffffffff168152602001908152602001600020600082825461115b919061252a565b9250508190555050565b60606000805b60035481116111ff578373ffffffffffffffffffffffffffffffffffffffff166005600083815260200190815260200160002060010160009054906101000a900473ffffffffffffffffffffffffffffffffffffffff1673ffffffffffffffffffffffffffffffffffffffff16036111ec5781806111e89061255e565b9250505b80806111f79061255e565b91505061116b565b508067ffffffffffffffff81111561121a576112196125a6565b5b60405190808252806020026020018201604052801561125357816020015b611240611d6b565b8152602001906001900390816112385790505b5091506000905060005b60035481116113bc573373ffffffffffffffffffffffffffffffffffffffff166005600083815260200190815260200160002060010160009054906101000a900473ffffffffffffffffffffffffffffffffffffffff1673ffffffffffffffffffffffffffffffffffffffff16036113a957600560008281526020019081526020016000206040518060a0016040529081600082015481526020016001820160009054906101000a900473ffffffffffffffffffffffffffffffffffffffff1673ffffffffffffffffffffffffffffffffffffffff1673ffffffffffffffffffffffffffffffffffffffff168152602001600282015481526020016003820160009054906101000a900460ff1615151515815260200160048201548152505083838151811061138f5761138e6125d5565b5b602002602001018190525081806113a59061255e565b9250505b80806113b49061255e565b91505061125d565b5050919050565b600160009054906101000a900473ffffffffffffffffffffffffffffffffffffffff1681565b60025481565b6113f7611db2565b6006600083815260200190815260200160002060405180610100016040529081600082015481526020016001820160009054906101000a900473ffffffffffffffffffffffffffffffffffffffff1673ffffffffffffffffffffffffffffffffffffffff1673ffffffffffffffffffffffffffffffffffffffff168152602001600282015481526020016003820160009054906101000a900473ffffffffffffffffffffffffffffffffffffffff1673ffffffffffffffffffffffffffffffffffffffff1673ffffffffffffffffffffffffffffffffffffffff16815260200160048201548152602001600582015481526020016006820160009054906101000a900473ffffffffffffffffffffffffffffffffffffffff1673ffffffffffffffffffffffffffffffffffffffff1673ffffffffffffffffffffffffffffffffffffffff1681526020016007820154815250509050919050565b60005481565b60005434101561156657600080fd5b60008114806115755750600281145b806115805750600181145b61158957600080fd5b600115156005600084815260200190815260200160002060030160009054906101000a900460ff161515146115bd57600080fd5b60006115f260046000600560008781526020019081526020016000206000015481526020019081526020016000205483611a8e565b905060006005600085815260200190815260200160002060030160006101000a81548160ff021916908315150217905550600080820361171b57600054600760006005600088815260200190815260200160002060010160009054906101000a900473ffffffffffffffffffffffffffffffffffffffff1673ffffffffffffffffffffffffffffffffffffffff1673ffffffffffffffffffffffffffffffffffffffff16815260200190815260200160002060008282546116b3919061252a565b92505081905550600054600760003373ffffffffffffffffffffffffffffffffffffffff1673ffffffffffffffffffffffffffffffffffffffff168152602001908152602001600020600082825461170b919061252a565b9250508190555060009050611885565b6001820361180757600a60136000546117349190612604565b61173e9190612675565b600760006005600088815260200190815260200160002060010160009054906101000a900473ffffffffffffffffffffffffffffffffffffffff1673ffffffffffffffffffffffffffffffffffffffff1673ffffffffffffffffffffffffffffffffffffffff16815260200190815260200160002060008282546117c2919061252a565b925050819055506005600085815260200190815260200160002060010160009054906101000a900473ffffffffffffffffffffffffffffffffffffffff169050611884565b6002820361188357600a60136000546118209190612604565b61182a9190612675565b600760003373ffffffffffffffffffffffffffffffffffffffff1673ffffffffffffffffffffffffffffffffffffffff1681526020019081526020016000206000828254611878919061252a565b925050819055503390505b5b5b6118df6005600086815260200190815260200160002060010160009054906101000a900473ffffffffffffffffffffffffffffffffffffffff16600460008781526020019081526020016000205433866000548642611ba7565b50505050565b6000600354905090565b6000600860008373ffffffffffffffffffffffffffffffffffffffff1673ffffffffffffffffffffffffffffffffffffffff168152602001908152602001600020549050919050565b60086020528060005260406000206000915090505481565b60076020528060005260406000206000915090505481565b600047905090565b600360008154809291906119839061255e565b919050555060006040518060a0016040528060035481526020018473ffffffffffffffffffffffffffffffffffffffff1681526020016000548152602001600115158152602001838152509050806005600060035481526020019081526020016000206000820151816000015560208201518160010160006101000a81548173ffffffffffffffffffffffffffffffffffffffff021916908373ffffffffffffffffffffffffffffffffffffffff1602179055506040820151816002015560608201518160030160006101000a81548160ff02191690831515021790555060808201518160040155905050836004600060035481526020019081526020016000208190555050505050565b60008083148015611a9f5750600082145b15611aad5760009050611ba1565b600083148015611abd5750600282145b15611acb5760019050611ba0565b600083148015611adb5750600182145b15611ae95760029050611b9f565b600283148015611af95750600282145b15611b075760009050611b9e565b600283148015611b175750600082145b15611b255760029050611b9d565b600283148015611b355750600182145b15611b435760019050611b9c565b600183148015611b535750600182145b15611b615760009050611b9b565b600183148015611b715750600082145b15611b7f5760019050611b9a565b600183148015611b8f5750600282145b15611b9957600290505b5b5b5b5b5b5b5b5b92915050565b60026000815480929190611bba9061255e565b9190505550600060405180610100016040528060025481526020018973ffffffffffffffffffffffffffffffffffffffff1681526020018881526020018773ffffffffffffffffffffffffffffffffffffffff1681526020018681526020018581526020018473ffffffffffffffffffffffffffffffffffffffff168152602001838152509050806006600060025481526020019081526020016000206000820151816000015560208201518160010160006101000a81548173ffffffffffffffffffffffffffffffffffffffff021916908373ffffffffffffffffffffffffffffffffffffffff1602179055506040820151816002015560608201518160030160006101000a81548173ffffffffffffffffffffffffffffffffffffffff021916908373ffffffffffffffffffffffffffffffffffffffff1602179055506080820151816004015560a0820151816005015560c08201518160060160006101000a81548173ffffffffffffffffffffffffffffffffffffffff021916908373ffffffffffffffffffffffffffffffffffffffff16021790555060e082015181600701559050505050505050505050565b6040518060a0016040528060008152602001600073ffffffffffffffffffffffffffffffffffffffff16815260200160008152602001600015158152602001600081525090565b60405180610100016040528060008152602001600073ffffffffffffffffffffffffffffffffffffffff16815260200160008152602001600073ffffffffffffffffffffffffffffffffffffffff1681526020016000815260200160008152602001600073ffffffffffffffffffffffffffffffffffffffff168152602001600081525090565b600080fd5b6000819050919050565b611e5181611e3e565b8114611e5c57600080fd5b50565b600081359050611e6e81611e48565b92915050565b600060208284031215611e8a57611e89611e39565b5b6000611e9884828501611e5f565b91505092915050565b600081519050919050565b600082825260208201905092915050565b6000819050602082019050919050565b611ed681611e3e565b82525050565b600073ffffffffffffffffffffffffffffffffffffffff82169050919050565b6000611f0782611edc565b9050919050565b611f1781611efc565b82525050565b60008115159050919050565b611f3281611f1d565b82525050565b60a082016000820151611f4e6000850182611ecd565b506020820151611f616020850182611f0e565b506040820151611f746040850182611ecd565b506060820151611f876060850182611f29565b506080820151611f9a6080850182611ecd565b50505050565b6000611fac8383611f38565b60a08301905092915050565b6000602082019050919050565b6000611fd082611ea1565b611fda8185611eac565b9350611fe583611ebd565b8060005b83811015612016578151611ffd8882611fa0565b975061200883611fb8565b925050600181019050611fe9565b5085935050505092915050565b6000602082019050818103600083015261203d8184611fc5565b905092915050565b61204e81611e3e565b82525050565b61205d81611efc565b82525050565b600061010082019050612079600083018b612045565b612086602083018a612054565b6120936040830189612045565b6120a06060830188612054565b6120ad6080830187612045565b6120ba60a0830186612045565b6120c760c0830185612054565b6120d460e0830184612045565b9998505050505050505050565b6120ea81611efc565b81146120f557600080fd5b50565b600081359050612107816120e1565b92915050565b60006020828403121561212357612122611e39565b5b6000612131848285016120f8565b91505092915050565b600081519050919050565b600082825260208201905092915050565b6000819050602082019050919050565b6101008201600082015161217d6000850182611ecd565b5060208201516121906020850182611f0e565b5060408201516121a36040850182611ecd565b5060608201516121b66060850182611f0e565b5060808201516121c96080850182611ecd565b5060a08201516121dc60a0850182611ecd565b5060c08201516121ef60c0850182611f0e565b5060e082015161220260e0850182611ecd565b50505050565b60006122148383612166565b6101008301905092915050565b6000602082019050919050565b60006122398261213a565b6122438185612145565b935061224e83612156565b8060005b8381101561227f5781516122668882612208565b975061227183612221565b925050600181019050612252565b5085935050505092915050565b600060208201905081810360008301526122a6818461222e565b905092915050565b60006020820190506122c36000830184612045565b92915050565b60a0820160008201516122df6000850182611ecd565b5060208201516122f26020850182611f0e565b5060408201516123056040850182611ecd565b5060608201516123186060850182611f29565b50608082015161232b6080850182611ecd565b50505050565b600060a08201905061234660008301846122c9565b92915050565b61235581611f1d565b82525050565b600060a0820190506123706000830188612045565b61237d6020830187612054565b61238a6040830186612045565b612397606083018561234c565b6123a46080830184612045565b9695505050505050565b60006020820190506123c36000830184612054565b92915050565b610100820160008201516123e06000850182611ecd565b5060208201516123f36020850182611f0e565b5060408201516124066040850182611ecd565b5060608201516124196060850182611f0e565b50608082015161242c6080850182611ecd565b5060a082015161243f60a0850182611ecd565b5060c082015161245260c0850182611f0e565b5060e082015161246560e0850182611ecd565b50505050565b60006101008201905061248160008301846123c9565b92915050565b6000806040838503121561249e5761249d611e39565b5b60006124ac85828601611e5f565b92505060206124bd85828601611e5f565b9150509250929050565b7f4e487b7100000000000000000000000000000000000000000000000000000000600052601160045260246000fd5b600061250182611e3e565b915061250c83611e3e565b9250828203905081811115612524576125236124c7565b5b92915050565b600061253582611e3e565b915061254083611e3e565b9250828201905080821115612558576125576124c7565b5b92915050565b600061256982611e3e565b91507fffffffffffffffffffffffffffffffffffffffffffffffffffffffffffffffff820361259b5761259a6124c7565b5b600182019050919050565b7f4e487b7100000000000000000000000000000000000000000000000000000000600052604160045260246000fd5b7f4e487b7100000000000000000000000000000000000000000000000000000000600052603260045260246000fd5b600061260f82611e3e565b915061261a83611e3e565b925082820261262881611e3e565b9150828204841483151761263f5761263e6124c7565b5b5092915050565b7f4e487b7100000000000000000000000000000000000000000000000000000000600052601260045260246000fd5b600061268082611e3e565b915061268b83611e3e565b92508261269b5761269a612646565b5b82820490509291505056fea2646970667358221220dcad75eaa5b6d04b03922e29cb92e8147394da433499398ac1c52ab71b0bb10864736f6c63430008120033",
  "linkReferences": {},
  "deployedLinkReferences": {}
}