{
  "_format": "hh-sol-artifact-1",
  "contractName": "RPS",
  "sourceName": "contracts/RPS.sol",
  "abi": [
    {
      "inputs": [
        {
          "internalType": "uint256",
          "name": "_amount",
          "type": "uint256"
        }
      ],
      "stateMutability": "payable",
      "type": "constructor"
    },
    {
      "inputs": [],
      "name": "amount",
      "outputs": [
        {
          "internalType": "uint256",
          "name": "",
          "type": "uint256"
        }
      ],
      "stateMutability": "view",
      "type": "function"
    },
    {
      "inputs": [
        {
          "internalType": "uint256",
          "name": "id",
          "type": "uint256"
        }
      ],
      "name": "cancelGame",
      "outputs": [],
      "stateMutability": "nonpayable",
      "type": "function"
    },
    {
      "inputs": [
        {
          "internalType": "uint256",
          "name": "_amount",
          "type": "uint256"
        }
      ],
      "name": "claimRewards",
      "outputs": [],
      "stateMutability": "nonpayable",
      "type": "function"
    },
    {
      "inputs": [
        {
          "internalType": "address",
          "name": "",
          "type": "address"
        }
      ],
      "name": "claimableRewards",
      "outputs": [
        {
          "internalType": "uint256",
          "name": "",
          "type": "uint256"
        }
      ],
      "stateMutability": "view",
      "type": "function"
    },
    {
      "inputs": [
        {
          "internalType": "address",
          "name": "",
          "type": "address"
        }
      ],
      "name": "claimedRewards",
      "outputs": [
        {
          "internalType": "uint256",
          "name": "",
          "type": "uint256"
        }
      ],
      "stateMutability": "view",
      "type": "function"
    },
    {
      "inputs": [
        {
          "internalType": "uint256",
          "name": "_firstMove",
          "type": "uint256"
        }
      ],
      "name": "createGame",
      "outputs": [],
      "stateMutability": "payable",
      "type": "function"
    },
    {
      "inputs": [
        {
          "internalType": "uint256",
          "name": "",
          "type": "uint256"
        }
      ],
      "name": "games",
      "outputs": [
        {
          "internalType": "uint256",
          "name": "id",
          "type": "uint256"
        },
        {
          "internalType": "address",
          "name": "opponent1",
          "type": "address"
        },
        {
          "internalType": "uint256",
          "name": "move1",
          "type": "uint256"
        },
        {
          "internalType": "address",
          "name": "opponent2",
          "type": "address"
        },
        {
          "internalType": "uint256",
          "name": "move2",
          "type": "uint256"
        },
        {
          "internalType": "uint256",
          "name": "value",
          "type": "uint256"
        },
        {
          "internalType": "address",
          "name": "winner",
          "type": "address"
        }
      ],
      "stateMutability": "view",
      "type": "function"
    },
    {
      "inputs": [],
      "name": "getActivePendingGames",
      "outputs": [
        {
          "components": [
            {
              "internalType": "uint256",
              "name": "id",
              "type": "uint256"
            },
            {
              "internalType": "address",
              "name": "gameCreator",
              "type": "address"
            },
            {
              "internalType": "uint256",
              "name": "value",
              "type": "uint256"
            },
            {
              "internalType": "bool",
              "name": "active",
              "type": "bool"
            }
          ],
          "internalType": "struct RPS.PendingGame[]",
          "name": "activePendingGames",
          "type": "tuple[]"
        }
      ],
      "stateMutability": "view",
      "type": "function"
    },
    {
      "inputs": [],
      "name": "getBallance",
      "outputs": [
        {
          "internalType": "uint256",
          "name": "",
          "type": "uint256"
        }
      ],
      "stateMutability": "view",
      "type": "function"
    },
    {
      "inputs": [
        {
          "internalType": "address",
          "name": "adr",
          "type": "address"
        }
      ],
      "name": "getClaimableRewards",
      "outputs": [
        {
          "internalType": "uint256",
          "name": "reward",
          "type": "uint256"
        }
      ],
      "stateMutability": "view",
      "type": "function"
    },
    {
      "inputs": [
        {
          "internalType": "address",
          "name": "adr",
          "type": "address"
        }
      ],
      "name": "getClaimedRewards",
      "outputs": [
        {
          "internalType": "uint256",
          "name": "claimedReward",
          "type": "uint256"
        }
      ],
      "stateMutability": "view",
      "type": "function"
    },
    {
      "inputs": [
        {
          "internalType": "uint256",
          "name": "id",
          "type": "uint256"
        }
      ],
      "name": "getGame",
      "outputs": [
        {
          "components": [
            {
              "internalType": "uint256",
              "name": "id",
              "type": "uint256"
            },
            {
              "internalType": "address",
              "name": "opponent1",
              "type": "address"
            },
            {
              "internalType": "uint256",
              "name": "move1",
              "type": "uint256"
            },
            {
              "internalType": "address",
              "name": "opponent2",
              "type": "address"
            },
            {
              "internalType": "uint256",
              "name": "move2",
              "type": "uint256"
            },
            {
              "internalType": "uint256",
              "name": "value",
              "type": "uint256"
            },
            {
              "internalType": "address",
              "name": "winner",
              "type": "address"
            }
          ],
          "internalType": "struct RPS.Game",
          "name": "game",
          "type": "tuple"
        }
      ],
      "stateMutability": "view",
      "type": "function"
    },
    {
      "inputs": [
        {
          "internalType": "uint256",
          "name": "id",
          "type": "uint256"
        }
      ],
      "name": "getPendingGame",
      "outputs": [
        {
          "components": [
            {
              "internalType": "uint256",
              "name": "id",
              "type": "uint256"
            },
            {
              "internalType": "address",
              "name": "gameCreator",
              "type": "address"
            },
            {
              "internalType": "uint256",
              "name": "value",
              "type": "uint256"
            },
            {
              "internalType": "bool",
              "name": "active",
              "type": "bool"
            }
          ],
          "internalType": "struct RPS.PendingGame",
          "name": "pendingGame",
          "type": "tuple"
        }
      ],
      "stateMutability": "view",
      "type": "function"
    },
    {
      "inputs": [
        {
          "internalType": "address",
          "name": "adr",
          "type": "address"
        }
      ],
      "name": "getPlayerDeuces",
      "outputs": [
        {
          "components": [
            {
              "internalType": "uint256",
              "name": "id",
              "type": "uint256"
            },
            {
              "internalType": "address",
              "name": "opponent1",
              "type": "address"
            },
            {
              "internalType": "uint256",
              "name": "move1",
              "type": "uint256"
            },
            {
              "internalType": "address",
              "name": "opponent2",
              "type": "address"
            },
            {
              "internalType": "uint256",
              "name": "move2",
              "type": "uint256"
            },
            {
              "internalType": "uint256",
              "name": "value",
              "type": "uint256"
            },
            {
              "internalType": "address",
              "name": "winner",
              "type": "address"
            }
          ],
          "internalType": "struct RPS.Game[]",
          "name": "deuces",
          "type": "tuple[]"
        }
      ],
      "stateMutability": "view",
      "type": "function"
    },
    {
      "inputs": [
        {
          "internalType": "address",
          "name": "adr",
          "type": "address"
        }
      ],
      "name": "getPlayerGames",
      "outputs": [
        {
          "components": [
            {
              "internalType": "uint256",
              "name": "id",
              "type": "uint256"
            },
            {
              "internalType": "address",
              "name": "opponent1",
              "type": "address"
            },
            {
              "internalType": "uint256",
              "name": "move1",
              "type": "uint256"
            },
            {
              "internalType": "address",
              "name": "opponent2",
              "type": "address"
            },
            {
              "internalType": "uint256",
              "name": "move2",
              "type": "uint256"
            },
            {
              "internalType": "uint256",
              "name": "value",
              "type": "uint256"
            },
            {
              "internalType": "address",
              "name": "winner",
              "type": "address"
            }
          ],
          "internalType": "struct RPS.Game[]",
          "name": "Games",
          "type": "tuple[]"
        }
      ],
      "stateMutability": "view",
      "type": "function"
    },
    {
      "inputs": [
        {
          "internalType": "address",
          "name": "adr",
          "type": "address"
        }
      ],
      "name": "getPlayerLooses",
      "outputs": [
        {
          "components": [
            {
              "internalType": "uint256",
              "name": "id",
              "type": "uint256"
            },
            {
              "internalType": "address",
              "name": "opponent1",
              "type": "address"
            },
            {
              "internalType": "uint256",
              "name": "move1",
              "type": "uint256"
            },
            {
              "internalType": "address",
              "name": "opponent2",
              "type": "address"
            },
            {
              "internalType": "uint256",
              "name": "move2",
              "type": "uint256"
            },
            {
              "internalType": "uint256",
              "name": "value",
              "type": "uint256"
            },
            {
              "internalType": "address",
              "name": "winner",
              "type": "address"
            }
          ],
          "internalType": "struct RPS.Game[]",
          "name": "looses",
          "type": "tuple[]"
        }
      ],
      "stateMutability": "view",
      "type": "function"
    },
    {
      "inputs": [
        {
          "internalType": "address",
          "name": "adr",
          "type": "address"
        }
      ],
      "name": "getPlayerPendingGames",
      "outputs": [
        {
          "components": [
            {
              "internalType": "uint256",
              "name": "id",
              "type": "uint256"
            },
            {
              "internalType": "address",
              "name": "gameCreator",
              "type": "address"
            },
            {
              "internalType": "uint256",
              "name": "value",
              "type": "uint256"
            },
            {
              "internalType": "bool",
              "name": "active",
              "type": "bool"
            }
          ],
          "internalType": "struct RPS.PendingGame[]",
          "name": "PendingGames",
          "type": "tuple[]"
        }
      ],
      "stateMutability": "view",
      "type": "function"
    },
    {
      "inputs": [
        {
          "internalType": "address",
          "name": "adr",
          "type": "address"
        }
      ],
      "name": "getPlayerWins",
      "outputs": [
        {
          "components": [
            {
              "internalType": "uint256",
              "name": "id",
              "type": "uint256"
            },
            {
              "internalType": "address",
              "name": "opponent1",
              "type": "address"
            },
            {
              "internalType": "uint256",
              "name": "move1",
              "type": "uint256"
            },
            {
              "internalType": "address",
              "name": "opponent2",
              "type": "address"
            },
            {
              "internalType": "uint256",
              "name": "move2",
              "type": "uint256"
            },
            {
              "internalType": "uint256",
              "name": "value",
              "type": "uint256"
            },
            {
              "internalType": "address",
              "name": "winner",
              "type": "address"
            }
          ],
          "internalType": "struct RPS.Game[]",
          "name": "wins",
          "type": "tuple[]"
        }
      ],
      "stateMutability": "view",
      "type": "function"
    },
    {
      "inputs": [],
      "name": "getTotalPendingGameCount",
      "outputs": [
        {
          "internalType": "uint256",
          "name": "",
          "type": "uint256"
        }
      ],
      "stateMutability": "view",
      "type": "function"
    },
    {
      "inputs": [],
      "name": "getTotoalGameCount",
      "outputs": [
        {
          "internalType": "uint256",
          "name": "",
          "type": "uint256"
        }
      ],
      "stateMutability": "view",
      "type": "function"
    },
    {
      "inputs": [
        {
          "internalType": "uint256",
          "name": "id",
          "type": "uint256"
        },
        {
          "internalType": "uint256",
          "name": "_secondMove",
          "type": "uint256"
        }
      ],
      "name": "joinGame",
      "outputs": [],
      "stateMutability": "payable",
      "type": "function"
    },
    {
      "inputs": [],
      "name": "owner",
      "outputs": [
        {
          "internalType": "address",
          "name": "",
          "type": "address"
        }
      ],
      "stateMutability": "view",
      "type": "function"
    },
    {
      "inputs": [
        {
          "internalType": "uint256",
          "name": "",
          "type": "uint256"
        }
      ],
      "name": "pendingGames",
      "outputs": [
        {
          "internalType": "uint256",
          "name": "id",
          "type": "uint256"
        },
        {
          "internalType": "address",
          "name": "gameCreator",
          "type": "address"
        },
        {
          "internalType": "uint256",
          "name": "value",
          "type": "uint256"
        },
        {
          "internalType": "bool",
          "name": "active",
          "type": "bool"
        }
      ],
      "stateMutability": "view",
      "type": "function"
    },
    {
      "inputs": [],
      "name": "totalGameCount",
      "outputs": [
        {
          "internalType": "uint256",
          "name": "",
          "type": "uint256"
        }
      ],
      "stateMutability": "view",
      "type": "function"
    },
    {
      "inputs": [],
      "name": "totalPendingGameCount",
      "outputs": [
        {
          "internalType": "uint256",
          "name": "",
          "type": "uint256"
        }
      ],
      "stateMutability": "view",
      "type": "function"
    },
    {
      "inputs": [
        {
          "internalType": "uint256",
          "name": "_amount",
          "type": "uint256"
        }
      ],
      "name": "withdraw",
      "outputs": [],
      "stateMutability": "nonpayable",
      "type": "function"
    }
  ],
  "bytecode": "0x608060405260405162002dac38038062002dac8339818101604052810190620000299190620000c8565b8060008190555033600160006101000a81548173ffffffffffffffffffffffffffffffffffffffff021916908373ffffffffffffffffffffffffffffffffffffffff1602179055506000600281905550600060038190555050620000fa565b600080fd5b6000819050919050565b620000a2816200008d565b8114620000ae57600080fd5b50565b600081519050620000c28162000097565b92915050565b600060208284031215620000e157620000e062000088565b5b6000620000f184828501620000b1565b91505092915050565b612ca2806200010a6000396000f3fe6080604052600436106101815760003560e01c80637f6a9f0d116100d1578063b60b9fcb1161008a578063b9e35db011610064578063b9e35db0146105d1578063bd8343451461060e578063dc01f60d1461064b578063e89e14ee1461068857610181565b8063b60b9fcb1461054d578063b6d421d014610569578063b74ae96c1461059457610181565b80637f6a9f0d146104155780638da5cb5b14610452578063993234e91461047d5780639c82dd1f146104ba578063a2f77bcc146104e5578063aa8c217c1461052257610181565b80633d598f801161013e578063579e94ee11610118578063579e94ee1461034457806367013c751461038457806369958ab9146103af5780636e9ef4bf146103d857610181565b80633d598f80146102c057806347ad2916146102fd57806348e837b91461032857610181565b80630962ef79146101865780630d8b7da7146101af578063117a5b90146101da578063129daf841461021d5780632e1a7d4d1461025a578063308e401e14610283575b600080fd5b34801561019257600080fd5b506101ad60048036038101906101a891906124a7565b6106b3565b005b3480156101bb57600080fd5b506101c4610841565b6040516101d19190612643565b60405180910390f35b3480156101e657600080fd5b5061020160048036038101906101fc91906124a7565b610a1f565b6040516102149796959493929190612683565b60405180910390f35b34801561022957600080fd5b50610244600480360381019061023f919061271e565b610ac1565b6040516102519190612888565b60405180910390f35b34801561026657600080fd5b50610281600480360381019061027c91906124a7565b610e94565b005b34801561028f57600080fd5b506102aa60048036038101906102a5919061271e565b610f38565b6040516102b791906128aa565b60405180910390f35b3480156102cc57600080fd5b506102e760048036038101906102e291906124a7565b610f81565b6040516102f4919061291a565b60405180910390f35b34801561030957600080fd5b50610312611033565b60405161031f91906128aa565b60405180910390f35b610342600480360381019061033d91906124a7565b61103d565b005b34801561035057600080fd5b5061036b600480360381019061036691906124a7565b6110a0565b60405161037b9493929190612944565b60405180910390f35b34801561039057600080fd5b506103996110fd565b6040516103a691906128aa565b60405180910390f35b3480156103bb57600080fd5b506103d660048036038101906103d191906124a7565b611103565b005b3480156103e457600080fd5b506103ff60048036038101906103fa919061271e565b61122f565b60405161040c9190612643565b60405180910390f35b34801561042157600080fd5b5061043c6004803603810190610437919061271e565b611483565b6040516104499190612888565b60405180910390f35b34801561045e57600080fd5b506104676116de565b6040516104749190612989565b60405180910390f35b34801561048957600080fd5b506104a4600480360381019061049f919061271e565b611704565b6040516104b19190612888565b60405180910390f35b3480156104c657600080fd5b506104cf6118b0565b6040516104dc91906128aa565b60405180910390f35b3480156104f157600080fd5b5061050c600480360381019061050791906124a7565b6118b6565b6040516105199190612a32565b60405180910390f35b34801561052e57600080fd5b50610537611a0d565b60405161054491906128aa565b60405180910390f35b61056760048036038101906105629190612a4d565b611a13565b005b34801561057557600080fd5b5061057e611da0565b60405161058b91906128aa565b60405180910390f35b3480156105a057600080fd5b506105bb60048036038101906105b6919061271e565b611daa565b6040516105c89190612888565b60405180910390f35b3480156105dd57600080fd5b506105f860048036038101906105f3919061271e565b611f54565b60405161060591906128aa565b60405180910390f35b34801561061a57600080fd5b506106356004803603810190610630919061271e565b611f9d565b60405161064291906128aa565b60405180910390f35b34801561065757600080fd5b50610672600480360381019061066d919061271e565b611fb5565b60405161067f91906128aa565b60405180910390f35b34801561069457600080fd5b5061069d611fcd565b6040516106aa91906128aa565b60405180910390f35b6000600760003373ffffffffffffffffffffffffffffffffffffffff1673ffffffffffffffffffffffffffffffffffffffff16815260200190815260200160002054116106ff57600080fd5b600760003373ffffffffffffffffffffffffffffffffffffffff1673ffffffffffffffffffffffffffffffffffffffff1681526020019081526020016000205481111561074b57600080fd5b80600760003373ffffffffffffffffffffffffffffffffffffffff1673ffffffffffffffffffffffffffffffffffffffff168152602001908152602001600020600082825461079a9190612abc565b9250508190555080600860003373ffffffffffffffffffffffffffffffffffffffff1673ffffffffffffffffffffffffffffffffffffffff16815260200190815260200160002060008282546107f09190612af0565b925050819055503373ffffffffffffffffffffffffffffffffffffffff166108fc829081150290604051600060405180830381858888f1935050505015801561083d573d6000803e3d6000fd5b5050565b60606000805b60035481116108a157600115156005600083815260200190815260200160002060030160009054906101000a900460ff1615150361088e57818061088a90612b24565b9250505b808061089990612b24565b915050610847565b508067ffffffffffffffff8111156108bc576108bb612b6c565b5b6040519080825280602002602001820160405280156108f557816020015b6108e26123ad565b8152602001906001900390816108da5790505b5091506000905060005b6003548111610a1a57600115156005600083815260200190815260200160002060030160009054906101000a900460ff16151503610a075760056000828152602001908152602001600020604051806080016040529081600082015481526020016001820160009054906101000a900473ffffffffffffffffffffffffffffffffffffffff1673ffffffffffffffffffffffffffffffffffffffff1673ffffffffffffffffffffffffffffffffffffffff168152602001600282015481526020016003820160009054906101000a900460ff1615151515815250508383815181106109ed576109ec612b9b565b5b60200260200101819052508180610a0390612b24565b9250505b8080610a1290612b24565b9150506108ff565b505090565b60066020528060005260406000206000915090508060000154908060010160009054906101000a900473ffffffffffffffffffffffffffffffffffffffff16908060020154908060030160009054906101000a900473ffffffffffffffffffffffffffffffffffffffff16908060040154908060050154908060060160009054906101000a900473ffffffffffffffffffffffffffffffffffffffff16905087565b60606000805b6002548111610bc8578373ffffffffffffffffffffffffffffffffffffffff166006600083815260200190815260200160002060010160009054906101000a900473ffffffffffffffffffffffffffffffffffffffff1673ffffffffffffffffffffffffffffffffffffffff161480610ba157508373ffffffffffffffffffffffffffffffffffffffff166006600083815260200190815260200160002060030160009054906101000a900473ffffffffffffffffffffffffffffffffffffffff1673ffffffffffffffffffffffffffffffffffffffff16145b15610bb5578180610bb190612b24565b9250505b8080610bc090612b24565b915050610ac7565b508067ffffffffffffffff811115610be357610be2612b6c565b5b604051908082528060200260200182016040528015610c1c57816020015b610c096123ed565b815260200190600190039081610c015790505b5091506000905060005b6002548111610e8d578373ffffffffffffffffffffffffffffffffffffffff166006600083815260200190815260200160002060010160009054906101000a900473ffffffffffffffffffffffffffffffffffffffff1673ffffffffffffffffffffffffffffffffffffffff161480610d0057508373ffffffffffffffffffffffffffffffffffffffff166006600083815260200190815260200160002060030160009054906101000a900473ffffffffffffffffffffffffffffffffffffffff1673ffffffffffffffffffffffffffffffffffffffff16145b15610e7a57600660008281526020019081526020016000206040518060e0016040529081600082015481526020016001820160009054906101000a900473ffffffffffffffffffffffffffffffffffffffff1673ffffffffffffffffffffffffffffffffffffffff1673ffffffffffffffffffffffffffffffffffffffff168152602001600282015481526020016003820160009054906101000a900473ffffffffffffffffffffffffffffffffffffffff1673ffffffffffffffffffffffffffffffffffffffff1673ffffffffffffffffffffffffffffffffffffffff16815260200160048201548152602001600582015481526020016006820160009054906101000a900473ffffffffffffffffffffffffffffffffffffffff1673ffffffffffffffffffffffffffffffffffffffff1673ffffffffffffffffffffffffffffffffffffffff1681525050838381518110610e6057610e5f612b9b565b5b60200260200101819052508180610e7690612b24565b9250505b8080610e8590612b24565b915050610c26565b5050919050565b600160009054906101000a900473ffffffffffffffffffffffffffffffffffffffff1673ffffffffffffffffffffffffffffffffffffffff163373ffffffffffffffffffffffffffffffffffffffff1614610eee57600080fd5b3373ffffffffffffffffffffffffffffffffffffffff166108fc829081150290604051600060405180830381858888f19350505050158015610f34573d6000803e3d6000fd5b5050565b6000600760008373ffffffffffffffffffffffffffffffffffffffff1673ffffffffffffffffffffffffffffffffffffffff168152602001908152602001600020549050919050565b610f896123ad565b60056000838152602001908152602001600020604051806080016040529081600082015481526020016001820160009054906101000a900473ffffffffffffffffffffffffffffffffffffffff1673ffffffffffffffffffffffffffffffffffffffff1673ffffffffffffffffffffffffffffffffffffffff168152602001600282015481526020016003820160009054906101000a900460ff1615151515815250509050919050565b6000600254905090565b3373ffffffffffffffffffffffffffffffffffffffff163134111561106157600080fd5b60005434101561107057600080fd5b600081148061107f5750600281145b8061108a5750600181145b61109357600080fd5b61109d8133611fd5565b50565b60056020528060005260406000206000915090508060000154908060010160009054906101000a900473ffffffffffffffffffffffffffffffffffffffff16908060020154908060030160009054906101000a900460ff16905084565b60035481565b6005600082815260200190815260200160002060010160009054906101000a900473ffffffffffffffffffffffffffffffffffffffff1673ffffffffffffffffffffffffffffffffffffffff163373ffffffffffffffffffffffffffffffffffffffff161461117157600080fd5b600115156005600083815260200190815260200160002060030160009054906101000a900460ff161515146111a557600080fd5b60006005600083815260200190815260200160002060030160006101000a81548160ff021916908315150217905550600054600760003373ffffffffffffffffffffffffffffffffffffffff1673ffffffffffffffffffffffffffffffffffffffff16815260200190815260200160002060008282546112259190612af0565b9250508190555050565b60606000805b60035481116112c9578373ffffffffffffffffffffffffffffffffffffffff166005600083815260200190815260200160002060010160009054906101000a900473ffffffffffffffffffffffffffffffffffffffff1673ffffffffffffffffffffffffffffffffffffffff16036112b65781806112b290612b24565b9250505b80806112c190612b24565b915050611235565b508067ffffffffffffffff8111156112e4576112e3612b6c565b5b60405190808252806020026020018201604052801561131d57816020015b61130a6123ad565b8152602001906001900390816113025790505b5091506000905060005b600354811161147c573373ffffffffffffffffffffffffffffffffffffffff166005600083815260200190815260200160002060010160009054906101000a900473ffffffffffffffffffffffffffffffffffffffff1673ffffffffffffffffffffffffffffffffffffffff16036114695760056000828152602001908152602001600020604051806080016040529081600082015481526020016001820160009054906101000a900473ffffffffffffffffffffffffffffffffffffffff1673ffffffffffffffffffffffffffffffffffffffff1673ffffffffffffffffffffffffffffffffffffffff168152602001600282015481526020016003820160009054906101000a900460ff16151515158152505083838151811061144f5761144e612b9b565b5b6020026020010181905250818061146590612b24565b9250505b808061147490612b24565b915050611327565b5050919050565b6060600061149083610ac1565b90506000805b825181101561156b57600073ffffffffffffffffffffffffffffffffffffffff168382815181106114ca576114c9612b9b565b5b602002602001015160c0015173ffffffffffffffffffffffffffffffffffffffff161415801561154457508473ffffffffffffffffffffffffffffffffffffffff1683828151811061151f5761151e612b9b565b5b602002602001015160c0015173ffffffffffffffffffffffffffffffffffffffff1614155b1561155857818061155490612b24565b9250505b808061156390612b24565b915050611496565b508067ffffffffffffffff81111561158657611585612b6c565b5b6040519080825280602002602001820160405280156115bf57816020015b6115ac6123ed565b8152602001906001900390816115a45790505b5092506000905060005b82518110156116d657600073ffffffffffffffffffffffffffffffffffffffff168382815181106115fd576115fc612b9b565b5b602002602001015160c0015173ffffffffffffffffffffffffffffffffffffffff161415801561167657508473ffffffffffffffffffffffffffffffffffffffff1683828151811061165257611651612b9b565b5b602002602001015160c0015173ffffffffffffffffffffffffffffffffffffffff16145b156116c35782818151811061168e5761168d612b9b565b5b60200260200101518483815181106116a9576116a8612b9b565b5b602002602001018190525081806116bf90612b24565b9250505b80806116ce90612b24565b9150506115c9565b505050919050565b600160009054906101000a900473ffffffffffffffffffffffffffffffffffffffff1681565b6060600061171183610ac1565b90506000805b825181101561179457600073ffffffffffffffffffffffffffffffffffffffff1683828151811061174b5761174a612b9b565b5b602002602001015160c0015173ffffffffffffffffffffffffffffffffffffffff160361178157818061177d90612b24565b9250505b808061178c90612b24565b915050611717565b508067ffffffffffffffff8111156117af576117ae612b6c565b5b6040519080825280602002602001820160405280156117e857816020015b6117d56123ed565b8152602001906001900390816117cd5790505b5092506000905060005b82518110156118a857600073ffffffffffffffffffffffffffffffffffffffff1683828151811061182657611825612b9b565b5b602002602001015160c0015173ffffffffffffffffffffffffffffffffffffffff1603611895578281815181106118605761185f612b9b565b5b602002602001015184838151811061187b5761187a612b9b565b5b6020026020010181905250818061189190612b24565b9250505b80806118a090612b24565b9150506117f2565b505050919050565b60025481565b6118be6123ed565b600660008381526020019081526020016000206040518060e0016040529081600082015481526020016001820160009054906101000a900473ffffffffffffffffffffffffffffffffffffffff1673ffffffffffffffffffffffffffffffffffffffff1673ffffffffffffffffffffffffffffffffffffffff168152602001600282015481526020016003820160009054906101000a900473ffffffffffffffffffffffffffffffffffffffff1673ffffffffffffffffffffffffffffffffffffffff1673ffffffffffffffffffffffffffffffffffffffff16815260200160048201548152602001600582015481526020016006820160009054906101000a900473ffffffffffffffffffffffffffffffffffffffff1673ffffffffffffffffffffffffffffffffffffffff1673ffffffffffffffffffffffffffffffffffffffff16815250509050919050565b60005481565b600054341015611a2257600080fd5b6000811480611a315750600281145b80611a3c5750600181145b611a4557600080fd5b600115156005600084815260200190815260200160002060030160009054906101000a900460ff16151514611a7957600080fd5b6000611aae600460006005600087815260200190815260200160002060000154815260200190815260200160002054836120e2565b905060006005600085815260200190815260200160002060030160006101000a81548160ff0219169083151502179055506000808203611bd757600054600760006005600088815260200190815260200160002060010160009054906101000a900473ffffffffffffffffffffffffffffffffffffffff1673ffffffffffffffffffffffffffffffffffffffff1673ffffffffffffffffffffffffffffffffffffffff1681526020019081526020016000206000828254611b6f9190612af0565b92505081905550600054600760003373ffffffffffffffffffffffffffffffffffffffff1673ffffffffffffffffffffffffffffffffffffffff1681526020019081526020016000206000828254611bc79190612af0565b9250508190555060009050611d41565b60018203611cc357600a6013600054611bf09190612bca565b611bfa9190612c3b565b600760006005600088815260200190815260200160002060010160009054906101000a900473ffffffffffffffffffffffffffffffffffffffff1673ffffffffffffffffffffffffffffffffffffffff1673ffffffffffffffffffffffffffffffffffffffff1681526020019081526020016000206000828254611c7e9190612af0565b925050819055506005600085815260200190815260200160002060010160009054906101000a900473ffffffffffffffffffffffffffffffffffffffff169050611d40565b60028203611d3f57600a6013600054611cdc9190612bca565b611ce69190612c3b565b600760003373ffffffffffffffffffffffffffffffffffffffff1673ffffffffffffffffffffffffffffffffffffffff1681526020019081526020016000206000828254611d349190612af0565b925050819055503390505b5b5b611d9a6005600086815260200190815260200160002060010160009054906101000a900473ffffffffffffffffffffffffffffffffffffffff1660046000878152602001908152602001600020543386600054866121fb565b50505050565b6000600354905090565b60606000611db783610ac1565b90506000805b8251811015611e39578473ffffffffffffffffffffffffffffffffffffffff16838281518110611df057611def612b9b565b5b602002602001015160c0015173ffffffffffffffffffffffffffffffffffffffff1603611e26578180611e2290612b24565b9250505b8080611e3190612b24565b915050611dbd565b508067ffffffffffffffff811115611e5457611e53612b6c565b5b604051908082528060200260200182016040528015611e8d57816020015b611e7a6123ed565b815260200190600190039081611e725790505b5092506000905060005b8251811015611f4c573373ffffffffffffffffffffffffffffffffffffffff16838281518110611eca57611ec9612b9b565b5b602002602001015160c0015173ffffffffffffffffffffffffffffffffffffffff1603611f3957828181518110611f0457611f03612b9b565b5b6020026020010151848381518110611f1f57611f1e612b9b565b5b60200260200101819052508180611f3590612b24565b9250505b8080611f4490612b24565b915050611e97565b505050919050565b6000600860008373ffffffffffffffffffffffffffffffffffffffff1673ffffffffffffffffffffffffffffffffffffffff168152602001908152602001600020549050919050565b60086020528060005260406000206000915090505481565b60076020528060005260406000206000915090505481565b600047905090565b60036000815480929190611fe890612b24565b91905055506000604051806080016040528060035481526020018373ffffffffffffffffffffffffffffffffffffffff1681526020016000548152602001600115158152509050806005600060035481526020019081526020016000206000820151816000015560208201518160010160006101000a81548173ffffffffffffffffffffffffffffffffffffffff021916908373ffffffffffffffffffffffffffffffffffffffff1602179055506040820151816002015560608201518160030160006101000a81548160ff0219169083151502179055509050508260046000600354815260200190815260200160002081905550505050565b600080831480156120f35750600082145b1561210157600090506121f5565b6000831480156121115750600282145b1561211f57600190506121f4565b60008314801561212f5750600182145b1561213d57600290506121f3565b60028314801561214d5750600282145b1561215b57600090506121f2565b60028314801561216b5750600082145b1561217957600290506121f1565b6002831480156121895750600182145b1561219757600190506121f0565b6001831480156121a75750600182145b156121b557600090506121ef565b6001831480156121c55750600082145b156121d357600190506121ee565b6001831480156121e35750600282145b156121ed57600290505b5b5b5b5b5b5b5b5b92915050565b6002600081548092919061220e90612b24565b919050555060006040518060e0016040528060025481526020018873ffffffffffffffffffffffffffffffffffffffff1681526020018781526020018673ffffffffffffffffffffffffffffffffffffffff1681526020018581526020018481526020018373ffffffffffffffffffffffffffffffffffffffff168152509050806006600060025481526020019081526020016000206000820151816000015560208201518160010160006101000a81548173ffffffffffffffffffffffffffffffffffffffff021916908373ffffffffffffffffffffffffffffffffffffffff1602179055506040820151816002015560608201518160030160006101000a81548173ffffffffffffffffffffffffffffffffffffffff021916908373ffffffffffffffffffffffffffffffffffffffff1602179055506080820151816004015560a0820151816005015560c08201518160060160006101000a81548173ffffffffffffffffffffffffffffffffffffffff021916908373ffffffffffffffffffffffffffffffffffffffff16021790555090505050505050505050565b604051806080016040528060008152602001600073ffffffffffffffffffffffffffffffffffffffff168152602001600081526020016000151581525090565b6040518060e0016040528060008152602001600073ffffffffffffffffffffffffffffffffffffffff16815260200160008152602001600073ffffffffffffffffffffffffffffffffffffffff1681526020016000815260200160008152602001600073ffffffffffffffffffffffffffffffffffffffff1681525090565b600080fd5b6000819050919050565b61248481612471565b811461248f57600080fd5b50565b6000813590506124a18161247b565b92915050565b6000602082840312156124bd576124bc61246c565b5b60006124cb84828501612492565b91505092915050565b600081519050919050565b600082825260208201905092915050565b6000819050602082019050919050565b61250981612471565b82525050565b600073ffffffffffffffffffffffffffffffffffffffff82169050919050565b600061253a8261250f565b9050919050565b61254a8161252f565b82525050565b60008115159050919050565b61256581612550565b82525050565b6080820160008201516125816000850182612500565b5060208201516125946020850182612541565b5060408201516125a76040850182612500565b5060608201516125ba606085018261255c565b50505050565b60006125cc838361256b565b60808301905092915050565b6000602082019050919050565b60006125f0826124d4565b6125fa81856124df565b9350612605836124f0565b8060005b8381101561263657815161261d88826125c0565b9750612628836125d8565b925050600181019050612609565b5085935050505092915050565b6000602082019050818103600083015261265d81846125e5565b905092915050565b61266e81612471565b82525050565b61267d8161252f565b82525050565b600060e082019050612698600083018a612665565b6126a56020830189612674565b6126b26040830188612665565b6126bf6060830187612674565b6126cc6080830186612665565b6126d960a0830185612665565b6126e660c0830184612674565b98975050505050505050565b6126fb8161252f565b811461270657600080fd5b50565b600081359050612718816126f2565b92915050565b6000602082840312156127345761273361246c565b5b600061274284828501612709565b91505092915050565b600081519050919050565b600082825260208201905092915050565b6000819050602082019050919050565b60e08201600082015161278d6000850182612500565b5060208201516127a06020850182612541565b5060408201516127b36040850182612500565b5060608201516127c66060850182612541565b5060808201516127d96080850182612500565b5060a08201516127ec60a0850182612500565b5060c08201516127ff60c0850182612541565b50505050565b60006128118383612777565b60e08301905092915050565b6000602082019050919050565b60006128358261274b565b61283f8185612756565b935061284a83612767565b8060005b8381101561287b5781516128628882612805565b975061286d8361281d565b92505060018101905061284e565b5085935050505092915050565b600060208201905081810360008301526128a2818461282a565b905092915050565b60006020820190506128bf6000830184612665565b92915050565b6080820160008201516128db6000850182612500565b5060208201516128ee6020850182612541565b5060408201516129016040850182612500565b506060820151612914606085018261255c565b50505050565b600060808201905061292f60008301846128c5565b92915050565b61293e81612550565b82525050565b60006080820190506129596000830187612665565b6129666020830186612674565b6129736040830185612665565b6129806060830184612935565b95945050505050565b600060208201905061299e6000830184612674565b92915050565b60e0820160008201516129ba6000850182612500565b5060208201516129cd6020850182612541565b5060408201516129e06040850182612500565b5060608201516129f36060850182612541565b506080820151612a066080850182612500565b5060a0820151612a1960a0850182612500565b5060c0820151612a2c60c0850182612541565b50505050565b600060e082019050612a4760008301846129a4565b92915050565b60008060408385031215612a6457612a6361246c565b5b6000612a7285828601612492565b9250506020612a8385828601612492565b9150509250929050565b7f4e487b7100000000000000000000000000000000000000000000000000000000600052601160045260246000fd5b6000612ac782612471565b9150612ad283612471565b9250828203905081811115612aea57612ae9612a8d565b5b92915050565b6000612afb82612471565b9150612b0683612471565b9250828201905080821115612b1e57612b1d612a8d565b5b92915050565b6000612b2f82612471565b91507fffffffffffffffffffffffffffffffffffffffffffffffffffffffffffffffff8203612b6157612b60612a8d565b5b600182019050919050565b7f4e487b7100000000000000000000000000000000000000000000000000000000600052604160045260246000fd5b7f4e487b7100000000000000000000000000000000000000000000000000000000600052603260045260246000fd5b6000612bd582612471565b9150612be083612471565b9250828202612bee81612471565b91508282048414831517612c0557612c04612a8d565b5b5092915050565b7f4e487b7100000000000000000000000000000000000000000000000000000000600052601260045260246000fd5b6000612c4682612471565b9150612c5183612471565b925082612c6157612c60612c0c565b5b82820490509291505056fea264697066735822122089b2844b099f18d7b21f23eabc433f33b5c7d2e8cf6b5093a770967071e18f6964736f6c63430008120033",
  "linkReferences": {},
  "deployedLinkReferences": {}
}