{
  "_format": "hh-sol-artifact-1",
  "contractName": "RPS",
  "sourceName": "contracts/RPS.sol",
  "abi": [
    {
      "inputs": [
        {
          "internalType": "uint256",
          "name": "_amount",
          "type": "uint256"
        }
      ],
      "stateMutability": "payable",
      "type": "constructor"
    },
    {
      "anonymous": false,
      "inputs": [
        {
          "indexed": false,
          "internalType": "address",
          "name": "creator",
          "type": "address"
        },
        {
          "indexed": false,
          "internalType": "uint256",
          "name": "amount",
          "type": "uint256"
        },
        {
          "indexed": false,
          "internalType": "uint256",
          "name": "timestamp",
          "type": "uint256"
        }
      ],
      "name": "GameCreated",
      "type": "event"
    },
    {
      "inputs": [],
      "name": "amount",
      "outputs": [
        {
          "internalType": "uint256",
          "name": "",
          "type": "uint256"
        }
      ],
      "stateMutability": "view",
      "type": "function"
    },
    {
      "inputs": [
        {
          "internalType": "uint256",
          "name": "id",
          "type": "uint256"
        }
      ],
      "name": "cancelGame",
      "outputs": [],
      "stateMutability": "nonpayable",
      "type": "function"
    },
    {
      "inputs": [
        {
          "internalType": "uint256",
          "name": "_amount",
          "type": "uint256"
        }
      ],
      "name": "claimRewards",
      "outputs": [],
      "stateMutability": "nonpayable",
      "type": "function"
    },
    {
      "inputs": [
        {
          "internalType": "address",
          "name": "",
          "type": "address"
        }
      ],
      "name": "claimableRewards",
      "outputs": [
        {
          "internalType": "uint256",
          "name": "",
          "type": "uint256"
        }
      ],
      "stateMutability": "view",
      "type": "function"
    },
    {
      "inputs": [
        {
          "internalType": "address",
          "name": "",
          "type": "address"
        }
      ],
      "name": "claimedRewards",
      "outputs": [
        {
          "internalType": "uint256",
          "name": "",
          "type": "uint256"
        }
      ],
      "stateMutability": "view",
      "type": "function"
    },
    {
      "inputs": [
        {
          "internalType": "uint256",
          "name": "_firstMove",
          "type": "uint256"
        },
        {
          "internalType": "uint256",
          "name": "_amount",
          "type": "uint256"
        }
      ],
      "name": "createGame",
      "outputs": [],
      "stateMutability": "nonpayable",
      "type": "function"
    },
    {
      "inputs": [
        {
          "internalType": "uint256",
          "name": "",
          "type": "uint256"
        }
      ],
      "name": "games",
      "outputs": [
        {
          "internalType": "uint256",
          "name": "id",
          "type": "uint256"
        },
        {
          "internalType": "address",
          "name": "opponent1",
          "type": "address"
        },
        {
          "internalType": "uint256",
          "name": "move1",
          "type": "uint256"
        },
        {
          "internalType": "address",
          "name": "opponent2",
          "type": "address"
        },
        {
          "internalType": "uint256",
          "name": "move2",
          "type": "uint256"
        },
        {
          "internalType": "uint256",
          "name": "value",
          "type": "uint256"
        },
        {
          "internalType": "address",
          "name": "winner",
          "type": "address"
        },
        {
          "internalType": "uint256",
          "name": "timestamp",
          "type": "uint256"
        }
      ],
      "stateMutability": "view",
      "type": "function"
    },
    {
      "inputs": [],
      "name": "getGames",
      "outputs": [
        {
          "components": [
            {
              "internalType": "uint256",
              "name": "id",
              "type": "uint256"
            },
            {
              "internalType": "address",
              "name": "opponent1",
              "type": "address"
            },
            {
              "internalType": "uint256",
              "name": "move1",
              "type": "uint256"
            },
            {
              "internalType": "address",
              "name": "opponent2",
              "type": "address"
            },
            {
              "internalType": "uint256",
              "name": "move2",
              "type": "uint256"
            },
            {
              "internalType": "uint256",
              "name": "value",
              "type": "uint256"
            },
            {
              "internalType": "address",
              "name": "winner",
              "type": "address"
            },
            {
              "internalType": "uint256",
              "name": "timestamp",
              "type": "uint256"
            }
          ],
          "internalType": "struct RPS.Game[]",
          "name": "_games",
          "type": "tuple[]"
        }
      ],
      "stateMutability": "view",
      "type": "function"
    },
    {
      "inputs": [],
      "name": "getPendingGames",
      "outputs": [
        {
          "components": [
            {
              "internalType": "uint256",
              "name": "id",
              "type": "uint256"
            },
            {
              "internalType": "address",
              "name": "gameCreator",
              "type": "address"
            },
            {
              "internalType": "uint256",
              "name": "value",
              "type": "uint256"
            },
            {
              "internalType": "bool",
              "name": "active",
              "type": "bool"
            },
            {
              "internalType": "uint256",
              "name": "timestamp",
              "type": "uint256"
            }
          ],
          "internalType": "struct RPS.PendingGame[]",
          "name": "_pendingGames",
          "type": "tuple[]"
        }
      ],
      "stateMutability": "view",
      "type": "function"
    },
    {
      "inputs": [
        {
          "internalType": "uint256",
          "name": "id",
          "type": "uint256"
        },
        {
          "internalType": "uint256",
          "name": "_secondMove",
          "type": "uint256"
        },
        {
          "internalType": "uint256",
          "name": "_amount",
          "type": "uint256"
        }
      ],
      "name": "joinGame",
      "outputs": [],
      "stateMutability": "nonpayable",
      "type": "function"
    },
    {
      "inputs": [],
      "name": "owner",
      "outputs": [
        {
          "internalType": "address",
          "name": "",
          "type": "address"
        }
      ],
      "stateMutability": "view",
      "type": "function"
    },
    {
      "inputs": [
        {
          "internalType": "uint256",
          "name": "",
          "type": "uint256"
        }
      ],
      "name": "pendingGames",
      "outputs": [
        {
          "internalType": "uint256",
          "name": "id",
          "type": "uint256"
        },
        {
          "internalType": "address",
          "name": "gameCreator",
          "type": "address"
        },
        {
          "internalType": "uint256",
          "name": "value",
          "type": "uint256"
        },
        {
          "internalType": "bool",
          "name": "active",
          "type": "bool"
        },
        {
          "internalType": "uint256",
          "name": "timestamp",
          "type": "uint256"
        }
      ],
      "stateMutability": "view",
      "type": "function"
    },
    {
      "inputs": [
        {
          "internalType": "address",
          "name": "adr",
          "type": "address"
        }
      ],
      "name": "tokenBalance",
      "outputs": [
        {
          "internalType": "uint256",
          "name": "balance",
          "type": "uint256"
        }
      ],
      "stateMutability": "view",
      "type": "function"
    },
    {
      "inputs": [
        {
          "internalType": "uint256",
          "name": "_amount",
          "type": "uint256"
        }
      ],
      "name": "withdraw",
      "outputs": [],
      "stateMutability": "nonpayable",
      "type": "function"
    }
  ],
  "bytecode": "0x6080604052739e6969254d73eda498375b079d8be540fb42fea7600260006101000a81548173ffffffffffffffffffffffffffffffffffffffff021916908373ffffffffffffffffffffffffffffffffffffffff160217905550600260009054906101000a900473ffffffffffffffffffffffffffffffffffffffff16600360006101000a81548173ffffffffffffffffffffffffffffffffffffffff021916908373ffffffffffffffffffffffffffffffffffffffff16021790555060405162002765380380620027658339818101604052810190620000e1919062000170565b8060008190555033600160006101000a81548173ffffffffffffffffffffffffffffffffffffffff021916908373ffffffffffffffffffffffffffffffffffffffff16021790555050620001a2565b600080fd5b6000819050919050565b6200014a8162000135565b81146200015657600080fd5b50565b6000815190506200016a816200013f565b92915050565b60006020828403121562000189576200018862000130565b5b6000620001998482850162000159565b91505092915050565b6125b380620001b26000396000f3fe608060405234801561001057600080fd5b50600436106100ea5760003560e01c80638da5cb5b1161008c578063c04c594711610066578063c04c594714610252578063dc01f60d14610270578063eedc966a146102a0578063ff6f4bc1146102d0576100ea565b80638da5cb5b146101e6578063aa8c217c14610204578063bd83434514610222576100ea565b8063579e94ee116100c8578063579e94ee1461015e57806360104cef1461019257806364c926ef146101ae57806369958ab9146101ca576100ea565b80630962ef79146100ef578063117a5b901461010b5780632e1a7d4d14610142575b600080fd5b610109600480360381019061010491906119f5565b6102ee565b005b610125600480360381019061012091906119f5565b6105c3565b604051610139989796959493929190611a72565b60405180910390f35b61015c600480360381019061015791906119f5565b61067b565b005b610178600480360381019061017391906119f5565b61071f565b604051610189959493929190611b0b565b60405180910390f35b6101ac60048036038101906101a79190611b5e565b610792565b005b6101c860048036038101906101c39190611b9e565b610a4b565b005b6101e460048036038101906101df91906119f5565b6110cd565b005b6101ee611226565b6040516101fb9190611bf1565b60405180910390f35b61020c61124c565b6040516102199190611c0c565b60405180910390f35b61023c60048036038101906102379190611c53565b611252565b6040516102499190611c0c565b60405180910390f35b61025a61126a565b6040516102679190611df0565b60405180910390f35b61028a60048036038101906102859190611c53565b6113fe565b6040516102979190611c0c565b60405180910390f35b6102ba60048036038101906102b59190611c53565b611416565b6040516102c79190611c0c565b60405180910390f35b6102d86114bb565b6040516102e59190611f38565b60405180910390f35b60008111610331576040517f08c379a000000000000000000000000000000000000000000000000000000000815260040161032890611fb7565b60405180910390fd5b6000600760003373ffffffffffffffffffffffffffffffffffffffff1673ffffffffffffffffffffffffffffffffffffffff16815260200190815260200160002054116103b3576040517f08c379a00000000000000000000000000000000000000000000000000000000081526004016103aa90612023565b60405180910390fd5b600760003373ffffffffffffffffffffffffffffffffffffffff1673ffffffffffffffffffffffffffffffffffffffff16815260200190815260200160002054811115610435576040517f08c379a000000000000000000000000000000000000000000000000000000000815260040161042c906120b5565b60405180910390fd5b80600760003373ffffffffffffffffffffffffffffffffffffffff1673ffffffffffffffffffffffffffffffffffffffff16815260200190815260200160002060008282546104849190612104565b9250508190555080600860003373ffffffffffffffffffffffffffffffffffffffff1673ffffffffffffffffffffffffffffffffffffffff16815260200190815260200160002060008282546104da9190612138565b92505081905550600360009054906101000a900473ffffffffffffffffffffffffffffffffffffffff1673ffffffffffffffffffffffffffffffffffffffff1663a9059cbb33836040518363ffffffff1660e01b815260040161053e92919061216c565b6020604051808303816000875af115801561055d573d6000803e3d6000fd5b505050506040513d601f19601f8201168201806040525081019061058191906121c1565b6105c0576040517f08c379a00000000000000000000000000000000000000000000000000000000081526004016105b79061223a565b60405180910390fd5b50565b600581815481106105d357600080fd5b90600052602060002090600802016000915090508060000154908060010160009054906101000a900473ffffffffffffffffffffffffffffffffffffffff16908060020154908060030160009054906101000a900473ffffffffffffffffffffffffffffffffffffffff16908060040154908060050154908060060160009054906101000a900473ffffffffffffffffffffffffffffffffffffffff16908060070154905088565b600160009054906101000a900473ffffffffffffffffffffffffffffffffffffffff1673ffffffffffffffffffffffffffffffffffffffff163373ffffffffffffffffffffffffffffffffffffffff16146106d557600080fd5b3373ffffffffffffffffffffffffffffffffffffffff166108fc829081150290604051600060405180830381858888f1935050505015801561071b573d6000803e3d6000fd5b5050565b6004818154811061072f57600080fd5b90600052602060002090600502016000915090508060000154908060010160009054906101000a900473ffffffffffffffffffffffffffffffffffffffff16908060020154908060030160009054906101000a900460ff16908060040154905085565b6000548110156107d7576040517f08c379a00000000000000000000000000000000000000000000000000000000081526004016107ce906122a6565b60405180910390fd5b806107e133611416565b1015610822576040517f08c379a000000000000000000000000000000000000000000000000000000000815260040161081990612312565b60405180910390fd5b80600360009054906101000a900473ffffffffffffffffffffffffffffffffffffffff1673ffffffffffffffffffffffffffffffffffffffff1663dd62ed3e33306040518363ffffffff1660e01b8152600401610880929190612332565b602060405180830381865afa15801561089d573d6000803e3d6000fd5b505050506040513d601f19601f820116820180604052508101906108c19190612370565b1015610902576040517f08c379a00000000000000000000000000000000000000000000000000000000081526004016108f9906123e9565b60405180910390fd5b60008214806109115750600282145b8061091c5750600182145b61095b576040517f08c379a000000000000000000000000000000000000000000000000000000000815260040161095290612455565b60405180910390fd5b600360009054906101000a900473ffffffffffffffffffffffffffffffffffffffff1673ffffffffffffffffffffffffffffffffffffffff166323b872dd3330846040518463ffffffff1660e01b81526004016109ba93929190612475565b6020604051808303816000875af11580156109d9573d6000803e3d6000fd5b505050506040513d601f19601f820116820180604052508101906109fd91906121c1565b610a3c576040517f08c379a0000000000000000000000000000000000000000000000000000000008152600401610a339061223a565b60405180910390fd5b610a478233426115a9565b5050565b600054811015610a90576040517f08c379a0000000000000000000000000000000000000000000000000000000008152600401610a87906122a6565b60405180910390fd5b80610a9a33611416565b1015610adb576040517f08c379a0000000000000000000000000000000000000000000000000000000008152600401610ad290612312565b60405180910390fd5b6000821480610aea5750600282145b80610af55750600182145b610b34576040517f08c379a0000000000000000000000000000000000000000000000000000000008152600401610b2b90612455565b60405180910390fd5b80600360009054906101000a900473ffffffffffffffffffffffffffffffffffffffff1673ffffffffffffffffffffffffffffffffffffffff1663dd62ed3e33306040518363ffffffff1660e01b8152600401610b92929190612332565b602060405180830381865afa158015610baf573d6000803e3d6000fd5b505050506040513d601f19601f82011682018060405250810190610bd39190612370565b1015610c14576040517f08c379a0000000000000000000000000000000000000000000000000000000008152600401610c0b906123e9565b60405180910390fd5b600360009054906101000a900473ffffffffffffffffffffffffffffffffffffffff1673ffffffffffffffffffffffffffffffffffffffff166323b872dd3330846040518463ffffffff1660e01b8152600401610c7393929190612475565b6020604051808303816000875af1158015610c92573d6000803e3d6000fd5b505050506040513d601f19601f82011682018060405250810190610cb691906121c1565b610cf5576040517f08c379a0000000000000000000000000000000000000000000000000000000008152600401610cec9061223a565b60405180910390fd5b6000600184610d049190612104565b90506001151560048281548110610d1e57610d1d6124ac565b5b906000526020600020906005020160030160009054906101000a900460ff16151514610d4957600080fd5b6000610d8d6006600060048581548110610d6657610d656124ac565b5b906000526020600020906005020160000154815260200190815260200160002054856116d1565b9050600060048381548110610da557610da46124ac565b5b906000526020600020906005020160030160006101000a81548160ff0219169083151502179055506000808203610ed4576000546007600060048681548110610df157610df06124ac565b5b906000526020600020906005020160010160009054906101000a900473ffffffffffffffffffffffffffffffffffffffff1673ffffffffffffffffffffffffffffffffffffffff1673ffffffffffffffffffffffffffffffffffffffff1681526020019081526020016000206000828254610e6c9190612138565b92505081905550600054600760003373ffffffffffffffffffffffffffffffffffffffff1673ffffffffffffffffffffffffffffffffffffffff1681526020019081526020016000206000828254610ec49190612138565b925050819055506000905061105c565b60018203610fde57600a6013600054610eed91906124db565b610ef7919061254c565b6007600060048681548110610f0f57610f0e6124ac565b5b906000526020600020906005020160010160009054906101000a900473ffffffffffffffffffffffffffffffffffffffff1673ffffffffffffffffffffffffffffffffffffffff1673ffffffffffffffffffffffffffffffffffffffff1681526020019081526020016000206000828254610f8a9190612138565b9250508190555060048381548110610fa557610fa46124ac565b5b906000526020600020906005020160010160009054906101000a900473ffffffffffffffffffffffffffffffffffffffff16905061105b565b6002820361105a57600a6013600054610ff791906124db565b611001919061254c565b600760003373ffffffffffffffffffffffffffffffffffffffff1673ffffffffffffffffffffffffffffffffffffffff168152602001908152602001600020600082825461104f9190612138565b925050819055503390505b5b5b6110c560048481548110611073576110726124ac565b5b906000526020600020906005020160010160009054906101000a900473ffffffffffffffffffffffffffffffffffffffff166006600089815260200190815260200160002054338860005486426117ea565b505050505050565b600481815481106110e1576110e06124ac565b5b906000526020600020906005020160010160009054906101000a900473ffffffffffffffffffffffffffffffffffffffff1673ffffffffffffffffffffffffffffffffffffffff163373ffffffffffffffffffffffffffffffffffffffff161461114a57600080fd5b6001151560048281548110611162576111616124ac565b5b906000526020600020906005020160030160009054906101000a900460ff1615151461118d57600080fd5b6000600482815481106111a3576111a26124ac565b5b906000526020600020906005020160030160006101000a81548160ff021916908315150217905550600054600760003373ffffffffffffffffffffffffffffffffffffffff1673ffffffffffffffffffffffffffffffffffffffff168152602001908152602001600020600082825461121c9190612138565b9250508190555050565b600160009054906101000a900473ffffffffffffffffffffffffffffffffffffffff1681565b60005481565b60086020528060005260406000206000915090505481565b60606005805480602002602001604051908101604052809291908181526020016000905b828210156113f5578382906000526020600020906008020160405180610100016040529081600082015481526020016001820160009054906101000a900473ffffffffffffffffffffffffffffffffffffffff1673ffffffffffffffffffffffffffffffffffffffff1673ffffffffffffffffffffffffffffffffffffffff168152602001600282015481526020016003820160009054906101000a900473ffffffffffffffffffffffffffffffffffffffff1673ffffffffffffffffffffffffffffffffffffffff1673ffffffffffffffffffffffffffffffffffffffff16815260200160048201548152602001600582015481526020016006820160009054906101000a900473ffffffffffffffffffffffffffffffffffffffff1673ffffffffffffffffffffffffffffffffffffffff1673ffffffffffffffffffffffffffffffffffffffff1681526020016007820154815250508152602001906001019061128e565b50505050905090565b60076020528060005260406000206000915090505481565b6000600360009054906101000a900473ffffffffffffffffffffffffffffffffffffffff1673ffffffffffffffffffffffffffffffffffffffff166370a08231836040518263ffffffff1660e01b81526004016114739190611bf1565b602060405180830381865afa158015611490573d6000803e3d6000fd5b505050506040513d601f19601f820116820180604052508101906114b49190612370565b9050919050565b60606004805480602002602001604051908101604052809291908181526020016000905b828210156115a057838290600052602060002090600502016040518060a0016040529081600082015481526020016001820160009054906101000a900473ffffffffffffffffffffffffffffffffffffffff1673ffffffffffffffffffffffffffffffffffffffff1673ffffffffffffffffffffffffffffffffffffffff168152602001600282015481526020016003820160009054906101000a900460ff16151515158152602001600482015481525050815260200190600101906114df565b50505050905090565b600060016004805490506115bd9190612138565b905060046040518060a001604052808381526020018573ffffffffffffffffffffffffffffffffffffffff16815260200160005481526020016001151581526020018481525090806001815401808255809150506001900390600052602060002090600502016000909190919091506000820151816000015560208201518160010160006101000a81548173ffffffffffffffffffffffffffffffffffffffff021916908373ffffffffffffffffffffffffffffffffffffffff1602179055506040820151816002015560608201518160030160006101000a81548160ff02191690831515021790555060808201518160040155505083600660008381526020019081526020016000208190555050505050565b600080831480156116e25750600082145b156116f057600090506117e4565b6000831480156117005750600282145b1561170e57600190506117e3565b60008314801561171e5750600182145b1561172c57600290506117e2565b60028314801561173c5750600282145b1561174a57600090506117e1565b60028314801561175a5750600082145b1561176857600290506117e0565b6002831480156117785750600182145b1561178657600190506117df565b6001831480156117965750600182145b156117a457600090506117de565b6001831480156117b45750600082145b156117c257600190506117dd565b6001831480156117d25750600282145b156117dc57600290505b5b5b5b5b5b5b5b5b92915050565b600060016005805490506117fe9190612138565b905060056040518061010001604052808381526020018a73ffffffffffffffffffffffffffffffffffffffff1681526020018981526020018873ffffffffffffffffffffffffffffffffffffffff1681526020018781526020018681526020018573ffffffffffffffffffffffffffffffffffffffff1681526020018481525090806001815401808255809150506001900390600052602060002090600802016000909190919091506000820151816000015560208201518160010160006101000a81548173ffffffffffffffffffffffffffffffffffffffff021916908373ffffffffffffffffffffffffffffffffffffffff1602179055506040820151816002015560608201518160030160006101000a81548173ffffffffffffffffffffffffffffffffffffffff021916908373ffffffffffffffffffffffffffffffffffffffff1602179055506080820151816004015560a0820151816005015560c08201518160060160006101000a81548173ffffffffffffffffffffffffffffffffffffffff021916908373ffffffffffffffffffffffffffffffffffffffff16021790555060e0820151816007015550505050505050505050565b600080fd5b6000819050919050565b6119d2816119bf565b81146119dd57600080fd5b50565b6000813590506119ef816119c9565b92915050565b600060208284031215611a0b57611a0a6119ba565b5b6000611a19848285016119e0565b91505092915050565b611a2b816119bf565b82525050565b600073ffffffffffffffffffffffffffffffffffffffff82169050919050565b6000611a5c82611a31565b9050919050565b611a6c81611a51565b82525050565b600061010082019050611a88600083018b611a22565b611a95602083018a611a63565b611aa26040830189611a22565b611aaf6060830188611a63565b611abc6080830187611a22565b611ac960a0830186611a22565b611ad660c0830185611a63565b611ae360e0830184611a22565b9998505050505050505050565b60008115159050919050565b611b0581611af0565b82525050565b600060a082019050611b206000830188611a22565b611b2d6020830187611a63565b611b3a6040830186611a22565b611b476060830185611afc565b611b546080830184611a22565b9695505050505050565b60008060408385031215611b7557611b746119ba565b5b6000611b83858286016119e0565b9250506020611b94858286016119e0565b9150509250929050565b600080600060608486031215611bb757611bb66119ba565b5b6000611bc5868287016119e0565b9350506020611bd6868287016119e0565b9250506040611be7868287016119e0565b9150509250925092565b6000602082019050611c066000830184611a63565b92915050565b6000602082019050611c216000830184611a22565b92915050565b611c3081611a51565b8114611c3b57600080fd5b50565b600081359050611c4d81611c27565b92915050565b600060208284031215611c6957611c686119ba565b5b6000611c7784828501611c3e565b91505092915050565b600081519050919050565b600082825260208201905092915050565b6000819050602082019050919050565b611cb5816119bf565b82525050565b611cc481611a51565b82525050565b61010082016000820151611ce16000850182611cac565b506020820151611cf46020850182611cbb565b506040820151611d076040850182611cac565b506060820151611d1a6060850182611cbb565b506080820151611d2d6080850182611cac565b5060a0820151611d4060a0850182611cac565b5060c0820151611d5360c0850182611cbb565b5060e0820151611d6660e0850182611cac565b50505050565b6000611d788383611cca565b6101008301905092915050565b6000602082019050919050565b6000611d9d82611c80565b611da78185611c8b565b9350611db283611c9c565b8060005b83811015611de3578151611dca8882611d6c565b9750611dd583611d85565b925050600181019050611db6565b5085935050505092915050565b60006020820190508181036000830152611e0a8184611d92565b905092915050565b600081519050919050565b600082825260208201905092915050565b6000819050602082019050919050565b611e4781611af0565b82525050565b60a082016000820151611e636000850182611cac565b506020820151611e766020850182611cbb565b506040820151611e896040850182611cac565b506060820151611e9c6060850182611e3e565b506080820151611eaf6080850182611cac565b50505050565b6000611ec18383611e4d565b60a08301905092915050565b6000602082019050919050565b6000611ee582611e12565b611eef8185611e1d565b9350611efa83611e2e565b8060005b83811015611f2b578151611f128882611eb5565b9750611f1d83611ecd565b925050600181019050611efe565b5085935050505092915050565b60006020820190508181036000830152611f528184611eda565b905092915050565b600082825260208201905092915050565b7f416d6f756e742069732030000000000000000000000000000000000000000000600082015250565b6000611fa1600b83611f5a565b9150611fac82611f6b565b602082019050919050565b60006020820190508181036000830152611fd081611f94565b9050919050565b7f4e6f207265776172647320746f20636c61696d00000000000000000000000000600082015250565b600061200d601383611f5a565b915061201882611fd7565b602082019050919050565b6000602082019050818103600083015261203c81612000565b9050919050565b7f416d6f756e742069732067726561746572207468616e20636c61696d61626c6560008201527f2072657761726473000000000000000000000000000000000000000000000000602082015250565b600061209f602883611f5a565b91506120aa82612043565b604082019050919050565b600060208201905081810360008301526120ce81612092565b9050919050565b7f4e487b7100000000000000000000000000000000000000000000000000000000600052601160045260246000fd5b600061210f826119bf565b915061211a836119bf565b9250828203905081811115612132576121316120d5565b5b92915050565b6000612143826119bf565b915061214e836119bf565b9250828201905080821115612166576121656120d5565b5b92915050565b60006040820190506121816000830185611a63565b61218e6020830184611a22565b9392505050565b61219e81611af0565b81146121a957600080fd5b50565b6000815190506121bb81612195565b92915050565b6000602082840312156121d7576121d66119ba565b5b60006121e5848285016121ac565b91505092915050565b7f5472616e73666572206661696c65640000000000000000000000000000000000600082015250565b6000612224600f83611f5a565b915061222f826121ee565b602082019050919050565b6000602082019050818103600083015261225381612217565b9050919050565b7f416d6f756e74206973206c657373207468616e206d696e696d756d2062657400600082015250565b6000612290601f83611f5a565b915061229b8261225a565b602082019050919050565b600060208201905081810360008301526122bf81612283565b9050919050565b7f4e6f7420656e6f75676820746f6b656e73000000000000000000000000000000600082015250565b60006122fc601183611f5a565b9150612307826122c6565b602082019050919050565b6000602082019050818103600083015261232b816122ef565b9050919050565b60006040820190506123476000830185611a63565b6123546020830184611a63565b9392505050565b60008151905061236a816119c9565b92915050565b600060208284031215612386576123856119ba565b5b60006123948482850161235b565b91505092915050565b7f4e6f7420656e6f75676820616c6c6f77616e6365000000000000000000000000600082015250565b60006123d3601483611f5a565b91506123de8261239d565b602082019050919050565b60006020820190508181036000830152612402816123c6565b9050919050565b7f496e76616c6964206d6f76650000000000000000000000000000000000000000600082015250565b600061243f600c83611f5a565b915061244a82612409565b602082019050919050565b6000602082019050818103600083015261246e81612432565b9050919050565b600060608201905061248a6000830186611a63565b6124976020830185611a63565b6124a46040830184611a22565b949350505050565b7f4e487b7100000000000000000000000000000000000000000000000000000000600052603260045260246000fd5b60006124e6826119bf565b91506124f1836119bf565b92508282026124ff816119bf565b91508282048414831517612516576125156120d5565b5b5092915050565b7f4e487b7100000000000000000000000000000000000000000000000000000000600052601260045260246000fd5b6000612557826119bf565b9150612562836119bf565b9250826125725761257161251d565b5b82820490509291505056fea26469706673582212206f31b2696ec3d7a7219489feddbcd566d6e0ea1e467d8c663fc4edee98a1cd4664736f6c63430008140033",
  "linkReferences": {},
  "deployedLinkReferences": {}
}