{
  "_format": "hh-sol-artifact-1",
  "contractName": "RPS",
  "sourceName": "contracts/RPS.sol",
  "abi": [
    {
      "inputs": [
        {
          "internalType": "uint256",
          "name": "_amount",
          "type": "uint256"
        }
      ],
      "stateMutability": "payable",
      "type": "constructor"
    },
    {
      "anonymous": false,
      "inputs": [
        {
          "indexed": false,
          "internalType": "address",
          "name": "creator",
          "type": "address"
        },
        {
          "indexed": false,
          "internalType": "uint256",
          "name": "amount",
          "type": "uint256"
        },
        {
          "indexed": false,
          "internalType": "uint256",
          "name": "timestamp",
          "type": "uint256"
        }
      ],
      "name": "GameCreated",
      "type": "event"
    },
    {
      "inputs": [],
      "name": "amount",
      "outputs": [
        {
          "internalType": "uint256",
          "name": "",
          "type": "uint256"
        }
      ],
      "stateMutability": "view",
      "type": "function"
    },
    {
      "inputs": [
        {
          "internalType": "uint256",
          "name": "id",
          "type": "uint256"
        }
      ],
      "name": "cancelGame",
      "outputs": [],
      "stateMutability": "nonpayable",
      "type": "function"
    },
    {
      "inputs": [
        {
          "internalType": "uint256",
          "name": "_amount",
          "type": "uint256"
        }
      ],
      "name": "claimRewards",
      "outputs": [],
      "stateMutability": "nonpayable",
      "type": "function"
    },
    {
      "inputs": [
        {
          "internalType": "address",
          "name": "",
          "type": "address"
        }
      ],
      "name": "claimableRewards",
      "outputs": [
        {
          "internalType": "uint256",
          "name": "",
          "type": "uint256"
        }
      ],
      "stateMutability": "view",
      "type": "function"
    },
    {
      "inputs": [
        {
          "internalType": "address",
          "name": "",
          "type": "address"
        }
      ],
      "name": "claimedRewards",
      "outputs": [
        {
          "internalType": "uint256",
          "name": "",
          "type": "uint256"
        }
      ],
      "stateMutability": "view",
      "type": "function"
    },
    {
      "inputs": [
        {
          "internalType": "uint256",
          "name": "_firstMove",
          "type": "uint256"
        },
        {
          "internalType": "uint256",
          "name": "_amount",
          "type": "uint256"
        }
      ],
      "name": "createGame",
      "outputs": [],
      "stateMutability": "nonpayable",
      "type": "function"
    },
    {
      "inputs": [
        {
          "internalType": "uint256",
          "name": "",
          "type": "uint256"
        }
      ],
      "name": "games",
      "outputs": [
        {
          "internalType": "uint256",
          "name": "id",
          "type": "uint256"
        },
        {
          "internalType": "address",
          "name": "opponent1",
          "type": "address"
        },
        {
          "internalType": "uint256",
          "name": "move1",
          "type": "uint256"
        },
        {
          "internalType": "address",
          "name": "opponent2",
          "type": "address"
        },
        {
          "internalType": "uint256",
          "name": "move2",
          "type": "uint256"
        },
        {
          "internalType": "uint256",
          "name": "value",
          "type": "uint256"
        },
        {
          "internalType": "address",
          "name": "winner",
          "type": "address"
        },
        {
          "internalType": "uint256",
          "name": "timestamp",
          "type": "uint256"
        }
      ],
      "stateMutability": "view",
      "type": "function"
    },
    {
      "inputs": [
        {
          "internalType": "address",
          "name": "adr",
          "type": "address"
        }
      ],
      "name": "getClaimableRewards",
      "outputs": [
        {
          "internalType": "uint256",
          "name": "reward",
          "type": "uint256"
        }
      ],
      "stateMutability": "view",
      "type": "function"
    },
    {
      "inputs": [
        {
          "internalType": "address",
          "name": "adr",
          "type": "address"
        }
      ],
      "name": "getClaimedRewards",
      "outputs": [
        {
          "internalType": "uint256",
          "name": "claimedReward",
          "type": "uint256"
        }
      ],
      "stateMutability": "view",
      "type": "function"
    },
    {
      "inputs": [],
      "name": "getGames",
      "outputs": [
        {
          "components": [
            {
              "internalType": "uint256",
              "name": "id",
              "type": "uint256"
            },
            {
              "internalType": "address",
              "name": "opponent1",
              "type": "address"
            },
            {
              "internalType": "uint256",
              "name": "move1",
              "type": "uint256"
            },
            {
              "internalType": "address",
              "name": "opponent2",
              "type": "address"
            },
            {
              "internalType": "uint256",
              "name": "move2",
              "type": "uint256"
            },
            {
              "internalType": "uint256",
              "name": "value",
              "type": "uint256"
            },
            {
              "internalType": "address",
              "name": "winner",
              "type": "address"
            },
            {
              "internalType": "uint256",
              "name": "timestamp",
              "type": "uint256"
            }
          ],
          "internalType": "struct RPS.Game[]",
          "name": "_games",
          "type": "tuple[]"
        }
      ],
      "stateMutability": "view",
      "type": "function"
    },
    {
      "inputs": [],
      "name": "getPendingGames",
      "outputs": [
        {
          "components": [
            {
              "internalType": "uint256",
              "name": "id",
              "type": "uint256"
            },
            {
              "internalType": "address",
              "name": "gameCreator",
              "type": "address"
            },
            {
              "internalType": "uint256",
              "name": "value",
              "type": "uint256"
            },
            {
              "internalType": "bool",
              "name": "active",
              "type": "bool"
            },
            {
              "internalType": "uint256",
              "name": "timestamp",
              "type": "uint256"
            }
          ],
          "internalType": "struct RPS.PendingGame[]",
          "name": "_pendingGames",
          "type": "tuple[]"
        }
      ],
      "stateMutability": "view",
      "type": "function"
    },
    {
      "inputs": [
        {
          "internalType": "uint256",
          "name": "id",
          "type": "uint256"
        },
        {
          "internalType": "uint256",
          "name": "_secondMove",
          "type": "uint256"
        },
        {
          "internalType": "uint256",
          "name": "_amount",
          "type": "uint256"
        }
      ],
      "name": "joinGame",
      "outputs": [],
      "stateMutability": "nonpayable",
      "type": "function"
    },
    {
      "inputs": [],
      "name": "owner",
      "outputs": [
        {
          "internalType": "address",
          "name": "",
          "type": "address"
        }
      ],
      "stateMutability": "view",
      "type": "function"
    },
    {
      "inputs": [
        {
          "internalType": "uint256",
          "name": "",
          "type": "uint256"
        }
      ],
      "name": "pendingGames",
      "outputs": [
        {
          "internalType": "uint256",
          "name": "id",
          "type": "uint256"
        },
        {
          "internalType": "address",
          "name": "gameCreator",
          "type": "address"
        },
        {
          "internalType": "uint256",
          "name": "value",
          "type": "uint256"
        },
        {
          "internalType": "bool",
          "name": "active",
          "type": "bool"
        },
        {
          "internalType": "uint256",
          "name": "timestamp",
          "type": "uint256"
        }
      ],
      "stateMutability": "view",
      "type": "function"
    },
    {
      "inputs": [
        {
          "internalType": "address",
          "name": "adr",
          "type": "address"
        }
      ],
      "name": "tokenBalance",
      "outputs": [
        {
          "internalType": "uint256",
          "name": "balance",
          "type": "uint256"
        }
      ],
      "stateMutability": "view",
      "type": "function"
    },
    {
      "inputs": [
        {
          "internalType": "uint256",
          "name": "_amount",
          "type": "uint256"
        }
      ],
      "name": "withdraw",
      "outputs": [],
      "stateMutability": "nonpayable",
      "type": "function"
    }
  ],
  "bytecode": "0x6080604052739e6969254d73eda498375b079d8be540fb42fea7600260006101000a81548173ffffffffffffffffffffffffffffffffffffffff021916908373ffffffffffffffffffffffffffffffffffffffff160217905550600260009054906101000a900473ffffffffffffffffffffffffffffffffffffffff16600360006101000a81548173ffffffffffffffffffffffffffffffffffffffff021916908373ffffffffffffffffffffffffffffffffffffffff1602179055506040516200286d3803806200286d8339818101604052810190620000e1919062000170565b8060008190555033600160006101000a81548173ffffffffffffffffffffffffffffffffffffffff021916908373ffffffffffffffffffffffffffffffffffffffff16021790555050620001a2565b600080fd5b6000819050919050565b6200014a8162000135565b81146200015657600080fd5b50565b6000815190506200016a816200013f565b92915050565b60006020828403121562000189576200018862000130565b5b6000620001998482850162000159565b91505092915050565b6126bb80620001b26000396000f3fe608060405234801561001057600080fd5b50600436106101005760003560e01c80638da5cb5b11610097578063c04c594711610066578063c04c5947146102c8578063dc01f60d146102e6578063eedc966a14610316578063ff6f4bc11461034657610100565b80638da5cb5b1461022c578063aa8c217c1461024a578063b9e35db014610268578063bd8343451461029857610100565b8063579e94ee116100d3578063579e94ee146101a457806360104cef146101d857806364c926ef146101f457806369958ab91461021057610100565b80630962ef7914610105578063117a5b90146101215780632e1a7d4d14610158578063308e401e14610174575b600080fd5b61011f600480360381019061011a9190611afd565b610364565b005b61013b60048036038101906101369190611afd565b610639565b60405161014f989796959493929190611b7a565b60405180910390f35b610172600480360381019061016d9190611afd565b6106f1565b005b61018e60048036038101906101899190611c24565b610795565b60405161019b9190611c51565b60405180910390f35b6101be60048036038101906101b99190611afd565b6107de565b6040516101cf959493929190611c87565b60405180910390f35b6101f260048036038101906101ed9190611cda565b610851565b005b61020e60048036038101906102099190611d1a565b610b0a565b005b61022a60048036038101906102259190611afd565b61118c565b005b6102346112e5565b6040516102419190611d6d565b60405180910390f35b61025261130b565b60405161025f9190611c51565b60405180910390f35b610282600480360381019061027d9190611c24565b611311565b60405161028f9190611c51565b60405180910390f35b6102b260048036038101906102ad9190611c24565b61135a565b6040516102bf9190611c51565b60405180910390f35b6102d0611372565b6040516102dd9190611ef8565b60405180910390f35b61030060048036038101906102fb9190611c24565b611506565b60405161030d9190611c51565b60405180910390f35b610330600480360381019061032b9190611c24565b61151e565b60405161033d9190611c51565b60405180910390f35b61034e6115c3565b60405161035b9190612040565b60405180910390f35b600081116103a7576040517f08c379a000000000000000000000000000000000000000000000000000000000815260040161039e906120bf565b60405180910390fd5b6000600760003373ffffffffffffffffffffffffffffffffffffffff1673ffffffffffffffffffffffffffffffffffffffff1681526020019081526020016000205411610429576040517f08c379a00000000000000000000000000000000000000000000000000000000081526004016104209061212b565b60405180910390fd5b600760003373ffffffffffffffffffffffffffffffffffffffff1673ffffffffffffffffffffffffffffffffffffffff168152602001908152602001600020548111156104ab576040517f08c379a00000000000000000000000000000000000000000000000000000000081526004016104a2906121bd565b60405180910390fd5b80600760003373ffffffffffffffffffffffffffffffffffffffff1673ffffffffffffffffffffffffffffffffffffffff16815260200190815260200160002060008282546104fa919061220c565b9250508190555080600860003373ffffffffffffffffffffffffffffffffffffffff1673ffffffffffffffffffffffffffffffffffffffff16815260200190815260200160002060008282546105509190612240565b92505081905550600360009054906101000a900473ffffffffffffffffffffffffffffffffffffffff1673ffffffffffffffffffffffffffffffffffffffff1663a9059cbb33836040518363ffffffff1660e01b81526004016105b4929190612274565b6020604051808303816000875af11580156105d3573d6000803e3d6000fd5b505050506040513d601f19601f820116820180604052508101906105f791906122c9565b610636576040517f08c379a000000000000000000000000000000000000000000000000000000000815260040161062d90612342565b60405180910390fd5b50565b6005818154811061064957600080fd5b90600052602060002090600802016000915090508060000154908060010160009054906101000a900473ffffffffffffffffffffffffffffffffffffffff16908060020154908060030160009054906101000a900473ffffffffffffffffffffffffffffffffffffffff16908060040154908060050154908060060160009054906101000a900473ffffffffffffffffffffffffffffffffffffffff16908060070154905088565b600160009054906101000a900473ffffffffffffffffffffffffffffffffffffffff1673ffffffffffffffffffffffffffffffffffffffff163373ffffffffffffffffffffffffffffffffffffffff161461074b57600080fd5b3373ffffffffffffffffffffffffffffffffffffffff166108fc829081150290604051600060405180830381858888f19350505050158015610791573d6000803e3d6000fd5b5050565b6000600760008373ffffffffffffffffffffffffffffffffffffffff1673ffffffffffffffffffffffffffffffffffffffff168152602001908152602001600020549050919050565b600481815481106107ee57600080fd5b90600052602060002090600502016000915090508060000154908060010160009054906101000a900473ffffffffffffffffffffffffffffffffffffffff16908060020154908060030160009054906101000a900460ff16908060040154905085565b600054811015610896576040517f08c379a000000000000000000000000000000000000000000000000000000000815260040161088d906123ae565b60405180910390fd5b806108a03361151e565b10156108e1576040517f08c379a00000000000000000000000000000000000000000000000000000000081526004016108d89061241a565b60405180910390fd5b80600360009054906101000a900473ffffffffffffffffffffffffffffffffffffffff1673ffffffffffffffffffffffffffffffffffffffff1663dd62ed3e33306040518363ffffffff1660e01b815260040161093f92919061243a565b602060405180830381865afa15801561095c573d6000803e3d6000fd5b505050506040513d601f19601f820116820180604052508101906109809190612478565b10156109c1576040517f08c379a00000000000000000000000000000000000000000000000000000000081526004016109b8906124f1565b60405180910390fd5b60008214806109d05750600282145b806109db5750600182145b610a1a576040517f08c379a0000000000000000000000000000000000000000000000000000000008152600401610a119061255d565b60405180910390fd5b600360009054906101000a900473ffffffffffffffffffffffffffffffffffffffff1673ffffffffffffffffffffffffffffffffffffffff166323b872dd3330846040518463ffffffff1660e01b8152600401610a799392919061257d565b6020604051808303816000875af1158015610a98573d6000803e3d6000fd5b505050506040513d601f19601f82011682018060405250810190610abc91906122c9565b610afb576040517f08c379a0000000000000000000000000000000000000000000000000000000008152600401610af290612342565b60405180910390fd5b610b068233426116b1565b5050565b600054811015610b4f576040517f08c379a0000000000000000000000000000000000000000000000000000000008152600401610b46906123ae565b60405180910390fd5b80610b593361151e565b1015610b9a576040517f08c379a0000000000000000000000000000000000000000000000000000000008152600401610b919061241a565b60405180910390fd5b6000821480610ba95750600282145b80610bb45750600182145b610bf3576040517f08c379a0000000000000000000000000000000000000000000000000000000008152600401610bea9061255d565b60405180910390fd5b80600360009054906101000a900473ffffffffffffffffffffffffffffffffffffffff1673ffffffffffffffffffffffffffffffffffffffff1663dd62ed3e33306040518363ffffffff1660e01b8152600401610c5192919061243a565b602060405180830381865afa158015610c6e573d6000803e3d6000fd5b505050506040513d601f19601f82011682018060405250810190610c929190612478565b1015610cd3576040517f08c379a0000000000000000000000000000000000000000000000000000000008152600401610cca906124f1565b60405180910390fd5b600360009054906101000a900473ffffffffffffffffffffffffffffffffffffffff1673ffffffffffffffffffffffffffffffffffffffff166323b872dd3330846040518463ffffffff1660e01b8152600401610d329392919061257d565b6020604051808303816000875af1158015610d51573d6000803e3d6000fd5b505050506040513d601f19601f82011682018060405250810190610d7591906122c9565b610db4576040517f08c379a0000000000000000000000000000000000000000000000000000000008152600401610dab90612342565b60405180910390fd5b6000600184610dc3919061220c565b90506001151560048281548110610ddd57610ddc6125b4565b5b906000526020600020906005020160030160009054906101000a900460ff16151514610e0857600080fd5b6000610e4c6006600060048581548110610e2557610e246125b4565b5b906000526020600020906005020160000154815260200190815260200160002054856117d9565b9050600060048381548110610e6457610e636125b4565b5b906000526020600020906005020160030160006101000a81548160ff0219169083151502179055506000808203610f93576000546007600060048681548110610eb057610eaf6125b4565b5b906000526020600020906005020160010160009054906101000a900473ffffffffffffffffffffffffffffffffffffffff1673ffffffffffffffffffffffffffffffffffffffff1673ffffffffffffffffffffffffffffffffffffffff1681526020019081526020016000206000828254610f2b9190612240565b92505081905550600054600760003373ffffffffffffffffffffffffffffffffffffffff1673ffffffffffffffffffffffffffffffffffffffff1681526020019081526020016000206000828254610f839190612240565b925050819055506000905061111b565b6001820361109d57600a6013600054610fac91906125e3565b610fb69190612654565b6007600060048681548110610fce57610fcd6125b4565b5b906000526020600020906005020160010160009054906101000a900473ffffffffffffffffffffffffffffffffffffffff1673ffffffffffffffffffffffffffffffffffffffff1673ffffffffffffffffffffffffffffffffffffffff16815260200190815260200160002060008282546110499190612240565b9250508190555060048381548110611064576110636125b4565b5b906000526020600020906005020160010160009054906101000a900473ffffffffffffffffffffffffffffffffffffffff16905061111a565b6002820361111957600a60136000546110b691906125e3565b6110c09190612654565b600760003373ffffffffffffffffffffffffffffffffffffffff1673ffffffffffffffffffffffffffffffffffffffff168152602001908152602001600020600082825461110e9190612240565b925050819055503390505b5b5b61118460048481548110611132576111316125b4565b5b906000526020600020906005020160010160009054906101000a900473ffffffffffffffffffffffffffffffffffffffff166006600089815260200190815260200160002054338860005486426118f2565b505050505050565b600481815481106111a05761119f6125b4565b5b906000526020600020906005020160010160009054906101000a900473ffffffffffffffffffffffffffffffffffffffff1673ffffffffffffffffffffffffffffffffffffffff163373ffffffffffffffffffffffffffffffffffffffff161461120957600080fd5b6001151560048281548110611221576112206125b4565b5b906000526020600020906005020160030160009054906101000a900460ff1615151461124c57600080fd5b600060048281548110611262576112616125b4565b5b906000526020600020906005020160030160006101000a81548160ff021916908315150217905550600054600760003373ffffffffffffffffffffffffffffffffffffffff1673ffffffffffffffffffffffffffffffffffffffff16815260200190815260200160002060008282546112db9190612240565b9250508190555050565b600160009054906101000a900473ffffffffffffffffffffffffffffffffffffffff1681565b60005481565b6000600860008373ffffffffffffffffffffffffffffffffffffffff1673ffffffffffffffffffffffffffffffffffffffff168152602001908152602001600020549050919050565b60086020528060005260406000206000915090505481565b60606005805480602002602001604051908101604052809291908181526020016000905b828210156114fd578382906000526020600020906008020160405180610100016040529081600082015481526020016001820160009054906101000a900473ffffffffffffffffffffffffffffffffffffffff1673ffffffffffffffffffffffffffffffffffffffff1673ffffffffffffffffffffffffffffffffffffffff168152602001600282015481526020016003820160009054906101000a900473ffffffffffffffffffffffffffffffffffffffff1673ffffffffffffffffffffffffffffffffffffffff1673ffffffffffffffffffffffffffffffffffffffff16815260200160048201548152602001600582015481526020016006820160009054906101000a900473ffffffffffffffffffffffffffffffffffffffff1673ffffffffffffffffffffffffffffffffffffffff1673ffffffffffffffffffffffffffffffffffffffff16815260200160078201548152505081526020019060010190611396565b50505050905090565b60076020528060005260406000206000915090505481565b6000600360009054906101000a900473ffffffffffffffffffffffffffffffffffffffff1673ffffffffffffffffffffffffffffffffffffffff166370a08231836040518263ffffffff1660e01b815260040161157b9190611d6d565b602060405180830381865afa158015611598573d6000803e3d6000fd5b505050506040513d601f19601f820116820180604052508101906115bc9190612478565b9050919050565b60606004805480602002602001604051908101604052809291908181526020016000905b828210156116a857838290600052602060002090600502016040518060a0016040529081600082015481526020016001820160009054906101000a900473ffffffffffffffffffffffffffffffffffffffff1673ffffffffffffffffffffffffffffffffffffffff1673ffffffffffffffffffffffffffffffffffffffff168152602001600282015481526020016003820160009054906101000a900460ff16151515158152602001600482015481525050815260200190600101906115e7565b50505050905090565b600060016004805490506116c59190612240565b905060046040518060a001604052808381526020018573ffffffffffffffffffffffffffffffffffffffff16815260200160005481526020016001151581526020018481525090806001815401808255809150506001900390600052602060002090600502016000909190919091506000820151816000015560208201518160010160006101000a81548173ffffffffffffffffffffffffffffffffffffffff021916908373ffffffffffffffffffffffffffffffffffffffff1602179055506040820151816002015560608201518160030160006101000a81548160ff02191690831515021790555060808201518160040155505083600660008381526020019081526020016000208190555050505050565b600080831480156117ea5750600082145b156117f857600090506118ec565b6000831480156118085750600282145b1561181657600190506118eb565b6000831480156118265750600182145b1561183457600290506118ea565b6002831480156118445750600282145b1561185257600090506118e9565b6002831480156118625750600082145b1561187057600290506118e8565b6002831480156118805750600182145b1561188e57600190506118e7565b60018314801561189e5750600182145b156118ac57600090506118e6565b6001831480156118bc5750600082145b156118ca57600190506118e5565b6001831480156118da5750600282145b156118e457600290505b5b5b5b5b5b5b5b5b92915050565b600060016005805490506119069190612240565b905060056040518061010001604052808381526020018a73ffffffffffffffffffffffffffffffffffffffff1681526020018981526020018873ffffffffffffffffffffffffffffffffffffffff1681526020018781526020018681526020018573ffffffffffffffffffffffffffffffffffffffff1681526020018481525090806001815401808255809150506001900390600052602060002090600802016000909190919091506000820151816000015560208201518160010160006101000a81548173ffffffffffffffffffffffffffffffffffffffff021916908373ffffffffffffffffffffffffffffffffffffffff1602179055506040820151816002015560608201518160030160006101000a81548173ffffffffffffffffffffffffffffffffffffffff021916908373ffffffffffffffffffffffffffffffffffffffff1602179055506080820151816004015560a0820151816005015560c08201518160060160006101000a81548173ffffffffffffffffffffffffffffffffffffffff021916908373ffffffffffffffffffffffffffffffffffffffff16021790555060e0820151816007015550505050505050505050565b600080fd5b6000819050919050565b611ada81611ac7565b8114611ae557600080fd5b50565b600081359050611af781611ad1565b92915050565b600060208284031215611b1357611b12611ac2565b5b6000611b2184828501611ae8565b91505092915050565b611b3381611ac7565b82525050565b600073ffffffffffffffffffffffffffffffffffffffff82169050919050565b6000611b6482611b39565b9050919050565b611b7481611b59565b82525050565b600061010082019050611b90600083018b611b2a565b611b9d602083018a611b6b565b611baa6040830189611b2a565b611bb76060830188611b6b565b611bc46080830187611b2a565b611bd160a0830186611b2a565b611bde60c0830185611b6b565b611beb60e0830184611b2a565b9998505050505050505050565b611c0181611b59565b8114611c0c57600080fd5b50565b600081359050611c1e81611bf8565b92915050565b600060208284031215611c3a57611c39611ac2565b5b6000611c4884828501611c0f565b91505092915050565b6000602082019050611c666000830184611b2a565b92915050565b60008115159050919050565b611c8181611c6c565b82525050565b600060a082019050611c9c6000830188611b2a565b611ca96020830187611b6b565b611cb66040830186611b2a565b611cc36060830185611c78565b611cd06080830184611b2a565b9695505050505050565b60008060408385031215611cf157611cf0611ac2565b5b6000611cff85828601611ae8565b9250506020611d1085828601611ae8565b9150509250929050565b600080600060608486031215611d3357611d32611ac2565b5b6000611d4186828701611ae8565b9350506020611d5286828701611ae8565b9250506040611d6386828701611ae8565b9150509250925092565b6000602082019050611d826000830184611b6b565b92915050565b600081519050919050565b600082825260208201905092915050565b6000819050602082019050919050565b611dbd81611ac7565b82525050565b611dcc81611b59565b82525050565b61010082016000820151611de96000850182611db4565b506020820151611dfc6020850182611dc3565b506040820151611e0f6040850182611db4565b506060820151611e226060850182611dc3565b506080820151611e356080850182611db4565b5060a0820151611e4860a0850182611db4565b5060c0820151611e5b60c0850182611dc3565b5060e0820151611e6e60e0850182611db4565b50505050565b6000611e808383611dd2565b6101008301905092915050565b6000602082019050919050565b6000611ea582611d88565b611eaf8185611d93565b9350611eba83611da4565b8060005b83811015611eeb578151611ed28882611e74565b9750611edd83611e8d565b925050600181019050611ebe565b5085935050505092915050565b60006020820190508181036000830152611f128184611e9a565b905092915050565b600081519050919050565b600082825260208201905092915050565b6000819050602082019050919050565b611f4f81611c6c565b82525050565b60a082016000820151611f6b6000850182611db4565b506020820151611f7e6020850182611dc3565b506040820151611f916040850182611db4565b506060820151611fa46060850182611f46565b506080820151611fb76080850182611db4565b50505050565b6000611fc98383611f55565b60a08301905092915050565b6000602082019050919050565b6000611fed82611f1a565b611ff78185611f25565b935061200283611f36565b8060005b8381101561203357815161201a8882611fbd565b975061202583611fd5565b925050600181019050612006565b5085935050505092915050565b6000602082019050818103600083015261205a8184611fe2565b905092915050565b600082825260208201905092915050565b7f416d6f756e742069732030000000000000000000000000000000000000000000600082015250565b60006120a9600b83612062565b91506120b482612073565b602082019050919050565b600060208201905081810360008301526120d88161209c565b9050919050565b7f4e6f207265776172647320746f20636c61696d00000000000000000000000000600082015250565b6000612115601383612062565b9150612120826120df565b602082019050919050565b6000602082019050818103600083015261214481612108565b9050919050565b7f416d6f756e742069732067726561746572207468616e20636c61696d61626c6560008201527f2072657761726473000000000000000000000000000000000000000000000000602082015250565b60006121a7602883612062565b91506121b28261214b565b604082019050919050565b600060208201905081810360008301526121d68161219a565b9050919050565b7f4e487b7100000000000000000000000000000000000000000000000000000000600052601160045260246000fd5b600061221782611ac7565b915061222283611ac7565b925082820390508181111561223a576122396121dd565b5b92915050565b600061224b82611ac7565b915061225683611ac7565b925082820190508082111561226e5761226d6121dd565b5b92915050565b60006040820190506122896000830185611b6b565b6122966020830184611b2a565b9392505050565b6122a681611c6c565b81146122b157600080fd5b50565b6000815190506122c38161229d565b92915050565b6000602082840312156122df576122de611ac2565b5b60006122ed848285016122b4565b91505092915050565b7f5472616e73666572206661696c65640000000000000000000000000000000000600082015250565b600061232c600f83612062565b9150612337826122f6565b602082019050919050565b6000602082019050818103600083015261235b8161231f565b9050919050565b7f416d6f756e74206973206c657373207468616e206d696e696d756d2062657400600082015250565b6000612398601f83612062565b91506123a382612362565b602082019050919050565b600060208201905081810360008301526123c78161238b565b9050919050565b7f4e6f7420656e6f75676820746f6b656e73000000000000000000000000000000600082015250565b6000612404601183612062565b915061240f826123ce565b602082019050919050565b60006020820190508181036000830152612433816123f7565b9050919050565b600060408201905061244f6000830185611b6b565b61245c6020830184611b6b565b9392505050565b60008151905061247281611ad1565b92915050565b60006020828403121561248e5761248d611ac2565b5b600061249c84828501612463565b91505092915050565b7f4e6f7420656e6f75676820616c6c6f77616e6365000000000000000000000000600082015250565b60006124db601483612062565b91506124e6826124a5565b602082019050919050565b6000602082019050818103600083015261250a816124ce565b9050919050565b7f496e76616c6964206d6f76650000000000000000000000000000000000000000600082015250565b6000612547600c83612062565b915061255282612511565b602082019050919050565b600060208201905081810360008301526125768161253a565b9050919050565b60006060820190506125926000830186611b6b565b61259f6020830185611b6b565b6125ac6040830184611b2a565b949350505050565b7f4e487b7100000000000000000000000000000000000000000000000000000000600052603260045260246000fd5b60006125ee82611ac7565b91506125f983611ac7565b925082820261260781611ac7565b9150828204841483151761261e5761261d6121dd565b5b5092915050565b7f4e487b7100000000000000000000000000000000000000000000000000000000600052601260045260246000fd5b600061265f82611ac7565b915061266a83611ac7565b92508261267a57612679612625565b5b82820490509291505056fea2646970667358221220c32fadc628015a6dc2d69e79b58c85237c217239e04f1c176c74587a994938bf64736f6c63430008140033",
  "linkReferences": {},
  "deployedLinkReferences": {}
}