{
  "_format": "hh-sol-artifact-1",
  "contractName": "RPS",
  "sourceName": "contracts/RPS.sol",
  "abi": [
    {
      "inputs": [
        {
          "internalType": "uint256",
          "name": "_amount",
          "type": "uint256"
        }
      ],
      "stateMutability": "payable",
      "type": "constructor"
    },
    {
      "inputs": [],
      "name": "amount",
      "outputs": [
        {
          "internalType": "uint256",
          "name": "",
          "type": "uint256"
        }
      ],
      "stateMutability": "view",
      "type": "function"
    },
    {
      "inputs": [
        {
          "internalType": "uint256",
          "name": "id",
          "type": "uint256"
        }
      ],
      "name": "cancelGame",
      "outputs": [],
      "stateMutability": "nonpayable",
      "type": "function"
    },
    {
      "inputs": [
        {
          "internalType": "uint256",
          "name": "_amount",
          "type": "uint256"
        }
      ],
      "name": "claimRewards",
      "outputs": [],
      "stateMutability": "nonpayable",
      "type": "function"
    },
    {
      "inputs": [
        {
          "internalType": "address",
          "name": "",
          "type": "address"
        }
      ],
      "name": "claimableRewards",
      "outputs": [
        {
          "internalType": "uint256",
          "name": "",
          "type": "uint256"
        }
      ],
      "stateMutability": "view",
      "type": "function"
    },
    {
      "inputs": [
        {
          "internalType": "address",
          "name": "",
          "type": "address"
        }
      ],
      "name": "claimedRewards",
      "outputs": [
        {
          "internalType": "uint256",
          "name": "",
          "type": "uint256"
        }
      ],
      "stateMutability": "view",
      "type": "function"
    },
    {
      "inputs": [
        {
          "internalType": "uint256",
          "name": "_firstMove",
          "type": "uint256"
        }
      ],
      "name": "createGame",
      "outputs": [],
      "stateMutability": "payable",
      "type": "function"
    },
    {
      "inputs": [
        {
          "internalType": "uint256",
          "name": "",
          "type": "uint256"
        }
      ],
      "name": "games",
      "outputs": [
        {
          "internalType": "uint256",
          "name": "id",
          "type": "uint256"
        },
        {
          "internalType": "address",
          "name": "opponent1",
          "type": "address"
        },
        {
          "internalType": "uint256",
          "name": "move1",
          "type": "uint256"
        },
        {
          "internalType": "address",
          "name": "opponent2",
          "type": "address"
        },
        {
          "internalType": "uint256",
          "name": "move2",
          "type": "uint256"
        },
        {
          "internalType": "uint256",
          "name": "value",
          "type": "uint256"
        },
        {
          "internalType": "address",
          "name": "winner",
          "type": "address"
        },
        {
          "internalType": "uint256",
          "name": "timestamp",
          "type": "uint256"
        }
      ],
      "stateMutability": "view",
      "type": "function"
    },
    {
      "inputs": [],
      "name": "getActivePendingGames",
      "outputs": [
        {
          "components": [
            {
              "internalType": "uint256",
              "name": "id",
              "type": "uint256"
            },
            {
              "internalType": "address",
              "name": "gameCreator",
              "type": "address"
            },
            {
              "internalType": "uint256",
              "name": "value",
              "type": "uint256"
            },
            {
              "internalType": "bool",
              "name": "active",
              "type": "bool"
            },
            {
              "internalType": "uint256",
              "name": "timestamp",
              "type": "uint256"
            }
          ],
          "internalType": "struct RPS.PendingGame[]",
          "name": "activePendingGames",
          "type": "tuple[]"
        }
      ],
      "stateMutability": "view",
      "type": "function"
    },
    {
      "inputs": [],
      "name": "getBallance",
      "outputs": [
        {
          "internalType": "uint256",
          "name": "",
          "type": "uint256"
        }
      ],
      "stateMutability": "view",
      "type": "function"
    },
    {
      "inputs": [
        {
          "internalType": "address",
          "name": "adr",
          "type": "address"
        }
      ],
      "name": "getClaimableRewards",
      "outputs": [
        {
          "internalType": "uint256",
          "name": "reward",
          "type": "uint256"
        }
      ],
      "stateMutability": "view",
      "type": "function"
    },
    {
      "inputs": [
        {
          "internalType": "address",
          "name": "adr",
          "type": "address"
        }
      ],
      "name": "getClaimedRewards",
      "outputs": [
        {
          "internalType": "uint256",
          "name": "claimedReward",
          "type": "uint256"
        }
      ],
      "stateMutability": "view",
      "type": "function"
    },
    {
      "inputs": [
        {
          "internalType": "uint256",
          "name": "id",
          "type": "uint256"
        }
      ],
      "name": "getGame",
      "outputs": [
        {
          "components": [
            {
              "internalType": "uint256",
              "name": "id",
              "type": "uint256"
            },
            {
              "internalType": "address",
              "name": "opponent1",
              "type": "address"
            },
            {
              "internalType": "uint256",
              "name": "move1",
              "type": "uint256"
            },
            {
              "internalType": "address",
              "name": "opponent2",
              "type": "address"
            },
            {
              "internalType": "uint256",
              "name": "move2",
              "type": "uint256"
            },
            {
              "internalType": "uint256",
              "name": "value",
              "type": "uint256"
            },
            {
              "internalType": "address",
              "name": "winner",
              "type": "address"
            },
            {
              "internalType": "uint256",
              "name": "timestamp",
              "type": "uint256"
            }
          ],
          "internalType": "struct RPS.Game",
          "name": "game",
          "type": "tuple"
        }
      ],
      "stateMutability": "view",
      "type": "function"
    },
    {
      "inputs": [
        {
          "internalType": "uint256",
          "name": "id",
          "type": "uint256"
        }
      ],
      "name": "getPendingGame",
      "outputs": [
        {
          "components": [
            {
              "internalType": "uint256",
              "name": "id",
              "type": "uint256"
            },
            {
              "internalType": "address",
              "name": "gameCreator",
              "type": "address"
            },
            {
              "internalType": "uint256",
              "name": "value",
              "type": "uint256"
            },
            {
              "internalType": "bool",
              "name": "active",
              "type": "bool"
            },
            {
              "internalType": "uint256",
              "name": "timestamp",
              "type": "uint256"
            }
          ],
          "internalType": "struct RPS.PendingGame",
          "name": "pendingGame",
          "type": "tuple"
        }
      ],
      "stateMutability": "view",
      "type": "function"
    },
    {
      "inputs": [
        {
          "internalType": "address",
          "name": "adr",
          "type": "address"
        }
      ],
      "name": "getPlayerDeuces",
      "outputs": [
        {
          "components": [
            {
              "internalType": "uint256",
              "name": "id",
              "type": "uint256"
            },
            {
              "internalType": "address",
              "name": "opponent1",
              "type": "address"
            },
            {
              "internalType": "uint256",
              "name": "move1",
              "type": "uint256"
            },
            {
              "internalType": "address",
              "name": "opponent2",
              "type": "address"
            },
            {
              "internalType": "uint256",
              "name": "move2",
              "type": "uint256"
            },
            {
              "internalType": "uint256",
              "name": "value",
              "type": "uint256"
            },
            {
              "internalType": "address",
              "name": "winner",
              "type": "address"
            },
            {
              "internalType": "uint256",
              "name": "timestamp",
              "type": "uint256"
            }
          ],
          "internalType": "struct RPS.Game[]",
          "name": "deuces",
          "type": "tuple[]"
        }
      ],
      "stateMutability": "view",
      "type": "function"
    },
    {
      "inputs": [
        {
          "internalType": "address",
          "name": "adr",
          "type": "address"
        }
      ],
      "name": "getPlayerGames",
      "outputs": [
        {
          "components": [
            {
              "internalType": "uint256",
              "name": "id",
              "type": "uint256"
            },
            {
              "internalType": "address",
              "name": "opponent1",
              "type": "address"
            },
            {
              "internalType": "uint256",
              "name": "move1",
              "type": "uint256"
            },
            {
              "internalType": "address",
              "name": "opponent2",
              "type": "address"
            },
            {
              "internalType": "uint256",
              "name": "move2",
              "type": "uint256"
            },
            {
              "internalType": "uint256",
              "name": "value",
              "type": "uint256"
            },
            {
              "internalType": "address",
              "name": "winner",
              "type": "address"
            },
            {
              "internalType": "uint256",
              "name": "timestamp",
              "type": "uint256"
            }
          ],
          "internalType": "struct RPS.Game[]",
          "name": "Games",
          "type": "tuple[]"
        }
      ],
      "stateMutability": "view",
      "type": "function"
    },
    {
      "inputs": [
        {
          "internalType": "address",
          "name": "adr",
          "type": "address"
        }
      ],
      "name": "getPlayerLoses",
      "outputs": [
        {
          "components": [
            {
              "internalType": "uint256",
              "name": "id",
              "type": "uint256"
            },
            {
              "internalType": "address",
              "name": "opponent1",
              "type": "address"
            },
            {
              "internalType": "uint256",
              "name": "move1",
              "type": "uint256"
            },
            {
              "internalType": "address",
              "name": "opponent2",
              "type": "address"
            },
            {
              "internalType": "uint256",
              "name": "move2",
              "type": "uint256"
            },
            {
              "internalType": "uint256",
              "name": "value",
              "type": "uint256"
            },
            {
              "internalType": "address",
              "name": "winner",
              "type": "address"
            },
            {
              "internalType": "uint256",
              "name": "timestamp",
              "type": "uint256"
            }
          ],
          "internalType": "struct RPS.Game[]",
          "name": "looses",
          "type": "tuple[]"
        }
      ],
      "stateMutability": "view",
      "type": "function"
    },
    {
      "inputs": [
        {
          "internalType": "address",
          "name": "adr",
          "type": "address"
        }
      ],
      "name": "getPlayerPendingGames",
      "outputs": [
        {
          "components": [
            {
              "internalType": "uint256",
              "name": "id",
              "type": "uint256"
            },
            {
              "internalType": "address",
              "name": "gameCreator",
              "type": "address"
            },
            {
              "internalType": "uint256",
              "name": "value",
              "type": "uint256"
            },
            {
              "internalType": "bool",
              "name": "active",
              "type": "bool"
            },
            {
              "internalType": "uint256",
              "name": "timestamp",
              "type": "uint256"
            }
          ],
          "internalType": "struct RPS.PendingGame[]",
          "name": "PendingGames",
          "type": "tuple[]"
        }
      ],
      "stateMutability": "view",
      "type": "function"
    },
    {
      "inputs": [
        {
          "internalType": "address",
          "name": "adr",
          "type": "address"
        }
      ],
      "name": "getPlayerWins",
      "outputs": [
        {
          "components": [
            {
              "internalType": "uint256",
              "name": "id",
              "type": "uint256"
            },
            {
              "internalType": "address",
              "name": "opponent1",
              "type": "address"
            },
            {
              "internalType": "uint256",
              "name": "move1",
              "type": "uint256"
            },
            {
              "internalType": "address",
              "name": "opponent2",
              "type": "address"
            },
            {
              "internalType": "uint256",
              "name": "move2",
              "type": "uint256"
            },
            {
              "internalType": "uint256",
              "name": "value",
              "type": "uint256"
            },
            {
              "internalType": "address",
              "name": "winner",
              "type": "address"
            },
            {
              "internalType": "uint256",
              "name": "timestamp",
              "type": "uint256"
            }
          ],
          "internalType": "struct RPS.Game[]",
          "name": "wins",
          "type": "tuple[]"
        }
      ],
      "stateMutability": "view",
      "type": "function"
    },
    {
      "inputs": [],
      "name": "getTotalPendingGameCount",
      "outputs": [
        {
          "internalType": "uint256",
          "name": "",
          "type": "uint256"
        }
      ],
      "stateMutability": "view",
      "type": "function"
    },
    {
      "inputs": [],
      "name": "getTotoalGameCount",
      "outputs": [
        {
          "internalType": "uint256",
          "name": "",
          "type": "uint256"
        }
      ],
      "stateMutability": "view",
      "type": "function"
    },
    {
      "inputs": [
        {
          "internalType": "uint256",
          "name": "id",
          "type": "uint256"
        },
        {
          "internalType": "uint256",
          "name": "_secondMove",
          "type": "uint256"
        }
      ],
      "name": "joinGame",
      "outputs": [],
      "stateMutability": "payable",
      "type": "function"
    },
    {
      "inputs": [],
      "name": "owner",
      "outputs": [
        {
          "internalType": "address",
          "name": "",
          "type": "address"
        }
      ],
      "stateMutability": "view",
      "type": "function"
    },
    {
      "inputs": [
        {
          "internalType": "uint256",
          "name": "",
          "type": "uint256"
        }
      ],
      "name": "pendingGames",
      "outputs": [
        {
          "internalType": "uint256",
          "name": "id",
          "type": "uint256"
        },
        {
          "internalType": "address",
          "name": "gameCreator",
          "type": "address"
        },
        {
          "internalType": "uint256",
          "name": "value",
          "type": "uint256"
        },
        {
          "internalType": "bool",
          "name": "active",
          "type": "bool"
        },
        {
          "internalType": "uint256",
          "name": "timestamp",
          "type": "uint256"
        }
      ],
      "stateMutability": "view",
      "type": "function"
    },
    {
      "inputs": [],
      "name": "totalGameCount",
      "outputs": [
        {
          "internalType": "uint256",
          "name": "",
          "type": "uint256"
        }
      ],
      "stateMutability": "view",
      "type": "function"
    },
    {
      "inputs": [],
      "name": "totalPendingGameCount",
      "outputs": [
        {
          "internalType": "uint256",
          "name": "",
          "type": "uint256"
        }
      ],
      "stateMutability": "view",
      "type": "function"
    },
    {
      "inputs": [
        {
          "internalType": "uint256",
          "name": "_amount",
          "type": "uint256"
        }
      ],
      "name": "withdraw",
      "outputs": [],
      "stateMutability": "nonpayable",
      "type": "function"
    }
  ],
  "bytecode": "0x608060405260405162002e8f38038062002e8f8339818101604052810190620000299190620000c8565b8060008190555033600160006101000a81548173ffffffffffffffffffffffffffffffffffffffff021916908373ffffffffffffffffffffffffffffffffffffffff1602179055506000600281905550600060038190555050620000fa565b600080fd5b6000819050919050565b620000a2816200008d565b8114620000ae57600080fd5b50565b600081519050620000c28162000097565b92915050565b600060208284031215620000e157620000e062000088565b5b6000620000f184828501620000b1565b91505092915050565b612d85806200010a6000396000f3fe6080604052600436106101815760003560e01c80637eafc59f116100d1578063b60b9fcb1161008a578063b9e35db011610064578063b9e35db0146105d3578063bd83434514610610578063dc01f60d1461064d578063e89e14ee1461068a57610181565b8063b60b9fcb1461054f578063b6d421d01461056b578063b74ae96c1461059657610181565b80637eafc59f146104175780638da5cb5b14610454578063993234e91461047f5780639c82dd1f146104bc578063a2f77bcc146104e7578063aa8c217c1461052457610181565b80633d598f801161013e578063579e94ee11610118578063579e94ee1461034557806367013c751461038657806369958ab9146103b15780636e9ef4bf146103da57610181565b80633d598f80146102c157806347ad2916146102fe57806348e837b91461032957610181565b80630962ef79146101865780630d8b7da7146101af578063117a5b90146101da578063129daf841461021e5780632e1a7d4d1461025b578063308e401e14610284575b600080fd5b34801561019257600080fd5b506101ad60048036038101906101a8919061251d565b6106b5565b005b3480156101bb57600080fd5b506101c4610843565b6040516101d191906126cc565b60405180910390f35b3480156101e657600080fd5b5061020160048036038101906101fc919061251d565b610a2b565b60405161021598979695949392919061270c565b60405180910390f35b34801561022a57600080fd5b50610245600480360381019061024091906127b6565b610ad3565b6040516102529190612935565b60405180910390f35b34801561026757600080fd5b50610282600480360381019061027d919061251d565b610eb1565b005b34801561029057600080fd5b506102ab60048036038101906102a691906127b6565b610f55565b6040516102b89190612957565b60405180910390f35b3480156102cd57600080fd5b506102e860048036038101906102e3919061251d565b610f9e565b6040516102f591906129da565b60405180910390f35b34801561030a57600080fd5b5061031361105a565b6040516103209190612957565b60405180910390f35b610343600480360381019061033e919061251d565b611064565b005b34801561035157600080fd5b5061036c6004803603810190610367919061251d565b6110c8565b60405161037d959493929190612a04565b60405180910390f35b34801561039257600080fd5b5061039b61112b565b6040516103a89190612957565b60405180910390f35b3480156103bd57600080fd5b506103d860048036038101906103d3919061251d565b611131565b005b3480156103e657600080fd5b5061040160048036038101906103fc91906127b6565b61125d565b60405161040e91906126cc565b60405180910390f35b34801561042357600080fd5b5061043e600480360381019061043991906127b6565b6114bb565b60405161044b9190612935565b60405180910390f35b34801561046057600080fd5b50610469611716565b6040516104769190612a57565b60405180910390f35b34801561048b57600080fd5b506104a660048036038101906104a191906127b6565b61173c565b6040516104b39190612935565b60405180910390f35b3480156104c857600080fd5b506104d16118e8565b6040516104de9190612957565b60405180910390f35b3480156104f357600080fd5b5061050e6004803603810190610509919061251d565b6118ee565b60405161051b9190612b14565b60405180910390f35b34801561053057600080fd5b50610539611a50565b6040516105469190612957565b60405180910390f35b61056960048036038101906105649190612b30565b611a56565b005b34801561057757600080fd5b50610580611de4565b60405161058d9190612957565b60405180910390f35b3480156105a257600080fd5b506105bd60048036038101906105b891906127b6565b611dee565b6040516105ca9190612935565b60405180910390f35b3480156105df57600080fd5b506105fa60048036038101906105f591906127b6565b611f98565b6040516106079190612957565b60405180910390f35b34801561061c57600080fd5b50610637600480360381019061063291906127b6565b611fe1565b6040516106449190612957565b60405180910390f35b34801561065957600080fd5b50610674600480360381019061066f91906127b6565b611ff9565b6040516106819190612957565b60405180910390f35b34801561069657600080fd5b5061069f612011565b6040516106ac9190612957565b60405180910390f35b6000600760003373ffffffffffffffffffffffffffffffffffffffff1673ffffffffffffffffffffffffffffffffffffffff168152602001908152602001600020541161070157600080fd5b600760003373ffffffffffffffffffffffffffffffffffffffff1673ffffffffffffffffffffffffffffffffffffffff1681526020019081526020016000205481111561074d57600080fd5b80600760003373ffffffffffffffffffffffffffffffffffffffff1673ffffffffffffffffffffffffffffffffffffffff168152602001908152602001600020600082825461079c9190612b9f565b9250508190555080600860003373ffffffffffffffffffffffffffffffffffffffff1673ffffffffffffffffffffffffffffffffffffffff16815260200190815260200160002060008282546107f29190612bd3565b925050819055503373ffffffffffffffffffffffffffffffffffffffff166108fc829081150290604051600060405180830381858888f1935050505015801561083f573d6000803e3d6000fd5b5050565b60606000805b60035481116108a357600115156005600083815260200190815260200160002060030160009054906101000a900460ff1615150361089057818061088c90612c07565b9250505b808061089b90612c07565b915050610849565b508067ffffffffffffffff8111156108be576108bd612c4f565b5b6040519080825280602002602001820160405280156108f757816020015b6108e4612414565b8152602001906001900390816108dc5790505b5091506000905060005b6003548111610a2657600115156005600083815260200190815260200160002060030160009054906101000a900460ff16151503610a1357600560008281526020019081526020016000206040518060a0016040529081600082015481526020016001820160009054906101000a900473ffffffffffffffffffffffffffffffffffffffff1673ffffffffffffffffffffffffffffffffffffffff1673ffffffffffffffffffffffffffffffffffffffff168152602001600282015481526020016003820160009054906101000a900460ff161515151581526020016004820154815250508383815181106109f9576109f8612c7e565b5b60200260200101819052508180610a0f90612c07565b9250505b8080610a1e90612c07565b915050610901565b505090565b60066020528060005260406000206000915090508060000154908060010160009054906101000a900473ffffffffffffffffffffffffffffffffffffffff16908060020154908060030160009054906101000a900473ffffffffffffffffffffffffffffffffffffffff16908060040154908060050154908060060160009054906101000a900473ffffffffffffffffffffffffffffffffffffffff16908060070154905088565b60606000805b6002548111610bda578373ffffffffffffffffffffffffffffffffffffffff166006600083815260200190815260200160002060010160009054906101000a900473ffffffffffffffffffffffffffffffffffffffff1673ffffffffffffffffffffffffffffffffffffffff161480610bb357508373ffffffffffffffffffffffffffffffffffffffff166006600083815260200190815260200160002060030160009054906101000a900473ffffffffffffffffffffffffffffffffffffffff1673ffffffffffffffffffffffffffffffffffffffff16145b15610bc7578180610bc390612c07565b9250505b8080610bd290612c07565b915050610ad9565b508067ffffffffffffffff811115610bf557610bf4612c4f565b5b604051908082528060200260200182016040528015610c2e57816020015b610c1b61245b565b815260200190600190039081610c135790505b5091506000905060005b6002548111610eaa578373ffffffffffffffffffffffffffffffffffffffff166006600083815260200190815260200160002060010160009054906101000a900473ffffffffffffffffffffffffffffffffffffffff1673ffffffffffffffffffffffffffffffffffffffff161480610d1257508373ffffffffffffffffffffffffffffffffffffffff166006600083815260200190815260200160002060030160009054906101000a900473ffffffffffffffffffffffffffffffffffffffff1673ffffffffffffffffffffffffffffffffffffffff16145b15610e97576006600082815260200190815260200160002060405180610100016040529081600082015481526020016001820160009054906101000a900473ffffffffffffffffffffffffffffffffffffffff1673ffffffffffffffffffffffffffffffffffffffff1673ffffffffffffffffffffffffffffffffffffffff168152602001600282015481526020016003820160009054906101000a900473ffffffffffffffffffffffffffffffffffffffff1673ffffffffffffffffffffffffffffffffffffffff1673ffffffffffffffffffffffffffffffffffffffff16815260200160048201548152602001600582015481526020016006820160009054906101000a900473ffffffffffffffffffffffffffffffffffffffff1673ffffffffffffffffffffffffffffffffffffffff1673ffffffffffffffffffffffffffffffffffffffff168152602001600782015481525050838381518110610e7d57610e7c612c7e565b5b60200260200101819052508180610e9390612c07565b9250505b8080610ea290612c07565b915050610c38565b5050919050565b600160009054906101000a900473ffffffffffffffffffffffffffffffffffffffff1673ffffffffffffffffffffffffffffffffffffffff163373ffffffffffffffffffffffffffffffffffffffff1614610f0b57600080fd5b3373ffffffffffffffffffffffffffffffffffffffff166108fc829081150290604051600060405180830381858888f19350505050158015610f51573d6000803e3d6000fd5b5050565b6000600760008373ffffffffffffffffffffffffffffffffffffffff1673ffffffffffffffffffffffffffffffffffffffff168152602001908152602001600020549050919050565b610fa6612414565b600560008381526020019081526020016000206040518060a0016040529081600082015481526020016001820160009054906101000a900473ffffffffffffffffffffffffffffffffffffffff1673ffffffffffffffffffffffffffffffffffffffff1673ffffffffffffffffffffffffffffffffffffffff168152602001600282015481526020016003820160009054906101000a900460ff161515151581526020016004820154815250509050919050565b6000600254905090565b3373ffffffffffffffffffffffffffffffffffffffff163134111561108857600080fd5b60005434101561109757600080fd5b60008114806110a65750600281145b806110b15750600181145b6110ba57600080fd5b6110c5813342612019565b50565b60056020528060005260406000206000915090508060000154908060010160009054906101000a900473ffffffffffffffffffffffffffffffffffffffff16908060020154908060030160009054906101000a900460ff16908060040154905085565b60035481565b6005600082815260200190815260200160002060010160009054906101000a900473ffffffffffffffffffffffffffffffffffffffff1673ffffffffffffffffffffffffffffffffffffffff163373ffffffffffffffffffffffffffffffffffffffff161461119f57600080fd5b600115156005600083815260200190815260200160002060030160009054906101000a900460ff161515146111d357600080fd5b60006005600083815260200190815260200160002060030160006101000a81548160ff021916908315150217905550600054600760003373ffffffffffffffffffffffffffffffffffffffff1673ffffffffffffffffffffffffffffffffffffffff16815260200190815260200160002060008282546112539190612bd3565b9250508190555050565b60606000805b60035481116112f7578373ffffffffffffffffffffffffffffffffffffffff166005600083815260200190815260200160002060010160009054906101000a900473ffffffffffffffffffffffffffffffffffffffff1673ffffffffffffffffffffffffffffffffffffffff16036112e45781806112e090612c07565b9250505b80806112ef90612c07565b915050611263565b508067ffffffffffffffff81111561131257611311612c4f565b5b60405190808252806020026020018201604052801561134b57816020015b611338612414565b8152602001906001900390816113305790505b5091506000905060005b60035481116114b4573373ffffffffffffffffffffffffffffffffffffffff166005600083815260200190815260200160002060010160009054906101000a900473ffffffffffffffffffffffffffffffffffffffff1673ffffffffffffffffffffffffffffffffffffffff16036114a157600560008281526020019081526020016000206040518060a0016040529081600082015481526020016001820160009054906101000a900473ffffffffffffffffffffffffffffffffffffffff1673ffffffffffffffffffffffffffffffffffffffff1673ffffffffffffffffffffffffffffffffffffffff168152602001600282015481526020016003820160009054906101000a900460ff1615151515815260200160048201548152505083838151811061148757611486612c7e565b5b6020026020010181905250818061149d90612c07565b9250505b80806114ac90612c07565b915050611355565b5050919050565b606060006114c883610ad3565b90506000805b82518110156115a357600073ffffffffffffffffffffffffffffffffffffffff1683828151811061150257611501612c7e565b5b602002602001015160c0015173ffffffffffffffffffffffffffffffffffffffff161415801561157c57508473ffffffffffffffffffffffffffffffffffffffff1683828151811061155757611556612c7e565b5b602002602001015160c0015173ffffffffffffffffffffffffffffffffffffffff1614155b1561159057818061158c90612c07565b9250505b808061159b90612c07565b9150506114ce565b508067ffffffffffffffff8111156115be576115bd612c4f565b5b6040519080825280602002602001820160405280156115f757816020015b6115e461245b565b8152602001906001900390816115dc5790505b5092506000905060005b825181101561170e57600073ffffffffffffffffffffffffffffffffffffffff1683828151811061163557611634612c7e565b5b602002602001015160c0015173ffffffffffffffffffffffffffffffffffffffff16141580156116ae57508473ffffffffffffffffffffffffffffffffffffffff1683828151811061168a57611689612c7e565b5b602002602001015160c0015173ffffffffffffffffffffffffffffffffffffffff16145b156116fb578281815181106116c6576116c5612c7e565b5b60200260200101518483815181106116e1576116e0612c7e565b5b602002602001018190525081806116f790612c07565b9250505b808061170690612c07565b915050611601565b505050919050565b600160009054906101000a900473ffffffffffffffffffffffffffffffffffffffff1681565b6060600061174983610ad3565b90506000805b82518110156117cc57600073ffffffffffffffffffffffffffffffffffffffff1683828151811061178357611782612c7e565b5b602002602001015160c0015173ffffffffffffffffffffffffffffffffffffffff16036117b95781806117b590612c07565b9250505b80806117c490612c07565b91505061174f565b508067ffffffffffffffff8111156117e7576117e6612c4f565b5b60405190808252806020026020018201604052801561182057816020015b61180d61245b565b8152602001906001900390816118055790505b5092506000905060005b82518110156118e057600073ffffffffffffffffffffffffffffffffffffffff1683828151811061185e5761185d612c7e565b5b602002602001015160c0015173ffffffffffffffffffffffffffffffffffffffff16036118cd5782818151811061189857611897612c7e565b5b60200260200101518483815181106118b3576118b2612c7e565b5b602002602001018190525081806118c990612c07565b9250505b80806118d890612c07565b91505061182a565b505050919050565b60025481565b6118f661245b565b6006600083815260200190815260200160002060405180610100016040529081600082015481526020016001820160009054906101000a900473ffffffffffffffffffffffffffffffffffffffff1673ffffffffffffffffffffffffffffffffffffffff1673ffffffffffffffffffffffffffffffffffffffff168152602001600282015481526020016003820160009054906101000a900473ffffffffffffffffffffffffffffffffffffffff1673ffffffffffffffffffffffffffffffffffffffff1673ffffffffffffffffffffffffffffffffffffffff16815260200160048201548152602001600582015481526020016006820160009054906101000a900473ffffffffffffffffffffffffffffffffffffffff1673ffffffffffffffffffffffffffffffffffffffff1673ffffffffffffffffffffffffffffffffffffffff1681526020016007820154815250509050919050565b60005481565b600054341015611a6557600080fd5b6000811480611a745750600281145b80611a7f5750600181145b611a8857600080fd5b600115156005600084815260200190815260200160002060030160009054906101000a900460ff16151514611abc57600080fd5b6000611af160046000600560008781526020019081526020016000206000015481526020019081526020016000205483612137565b905060006005600085815260200190815260200160002060030160006101000a81548160ff0219169083151502179055506000808203611c1a57600054600760006005600088815260200190815260200160002060010160009054906101000a900473ffffffffffffffffffffffffffffffffffffffff1673ffffffffffffffffffffffffffffffffffffffff1673ffffffffffffffffffffffffffffffffffffffff1681526020019081526020016000206000828254611bb29190612bd3565b92505081905550600054600760003373ffffffffffffffffffffffffffffffffffffffff1673ffffffffffffffffffffffffffffffffffffffff1681526020019081526020016000206000828254611c0a9190612bd3565b9250508190555060009050611d84565b60018203611d0657600a6013600054611c339190612cad565b611c3d9190612d1e565b600760006005600088815260200190815260200160002060010160009054906101000a900473ffffffffffffffffffffffffffffffffffffffff1673ffffffffffffffffffffffffffffffffffffffff1673ffffffffffffffffffffffffffffffffffffffff1681526020019081526020016000206000828254611cc19190612bd3565b925050819055506005600085815260200190815260200160002060010160009054906101000a900473ffffffffffffffffffffffffffffffffffffffff169050611d83565b60028203611d8257600a6013600054611d1f9190612cad565b611d299190612d1e565b600760003373ffffffffffffffffffffffffffffffffffffffff1673ffffffffffffffffffffffffffffffffffffffff1681526020019081526020016000206000828254611d779190612bd3565b925050819055503390505b5b5b611dde6005600086815260200190815260200160002060010160009054906101000a900473ffffffffffffffffffffffffffffffffffffffff16600460008781526020019081526020016000205433866000548642612250565b50505050565b6000600354905090565b60606000611dfb83610ad3565b90506000805b8251811015611e7d578473ffffffffffffffffffffffffffffffffffffffff16838281518110611e3457611e33612c7e565b5b602002602001015160c0015173ffffffffffffffffffffffffffffffffffffffff1603611e6a578180611e6690612c07565b9250505b8080611e7590612c07565b915050611e01565b508067ffffffffffffffff811115611e9857611e97612c4f565b5b604051908082528060200260200182016040528015611ed157816020015b611ebe61245b565b815260200190600190039081611eb65790505b5092506000905060005b8251811015611f90573373ffffffffffffffffffffffffffffffffffffffff16838281518110611f0e57611f0d612c7e565b5b602002602001015160c0015173ffffffffffffffffffffffffffffffffffffffff1603611f7d57828181518110611f4857611f47612c7e565b5b6020026020010151848381518110611f6357611f62612c7e565b5b60200260200101819052508180611f7990612c07565b9250505b8080611f8890612c07565b915050611edb565b505050919050565b6000600860008373ffffffffffffffffffffffffffffffffffffffff1673ffffffffffffffffffffffffffffffffffffffff168152602001908152602001600020549050919050565b60086020528060005260406000206000915090505481565b60076020528060005260406000206000915090505481565b600047905090565b6003600081548092919061202c90612c07565b919050555060006040518060a0016040528060035481526020018473ffffffffffffffffffffffffffffffffffffffff1681526020016000548152602001600115158152602001838152509050806005600060035481526020019081526020016000206000820151816000015560208201518160010160006101000a81548173ffffffffffffffffffffffffffffffffffffffff021916908373ffffffffffffffffffffffffffffffffffffffff1602179055506040820151816002015560608201518160030160006101000a81548160ff02191690831515021790555060808201518160040155905050836004600060035481526020019081526020016000208190555050505050565b600080831480156121485750600082145b15612156576000905061224a565b6000831480156121665750600282145b156121745760019050612249565b6000831480156121845750600182145b156121925760029050612248565b6002831480156121a25750600282145b156121b05760009050612247565b6002831480156121c05750600082145b156121ce5760029050612246565b6002831480156121de5750600182145b156121ec5760019050612245565b6001831480156121fc5750600182145b1561220a5760009050612244565b60018314801561221a5750600082145b156122285760019050612243565b6001831480156122385750600282145b1561224257600290505b5b5b5b5b5b5b5b5b92915050565b6002600081548092919061226390612c07565b9190505550600060405180610100016040528060025481526020018973ffffffffffffffffffffffffffffffffffffffff1681526020018881526020018773ffffffffffffffffffffffffffffffffffffffff1681526020018681526020018581526020018473ffffffffffffffffffffffffffffffffffffffff168152602001838152509050806006600060025481526020019081526020016000206000820151816000015560208201518160010160006101000a81548173ffffffffffffffffffffffffffffffffffffffff021916908373ffffffffffffffffffffffffffffffffffffffff1602179055506040820151816002015560608201518160030160006101000a81548173ffffffffffffffffffffffffffffffffffffffff021916908373ffffffffffffffffffffffffffffffffffffffff1602179055506080820151816004015560a0820151816005015560c08201518160060160006101000a81548173ffffffffffffffffffffffffffffffffffffffff021916908373ffffffffffffffffffffffffffffffffffffffff16021790555060e082015181600701559050505050505050505050565b6040518060a0016040528060008152602001600073ffffffffffffffffffffffffffffffffffffffff16815260200160008152602001600015158152602001600081525090565b60405180610100016040528060008152602001600073ffffffffffffffffffffffffffffffffffffffff16815260200160008152602001600073ffffffffffffffffffffffffffffffffffffffff1681526020016000815260200160008152602001600073ffffffffffffffffffffffffffffffffffffffff168152602001600081525090565b600080fd5b6000819050919050565b6124fa816124e7565b811461250557600080fd5b50565b600081359050612517816124f1565b92915050565b600060208284031215612533576125326124e2565b5b600061254184828501612508565b91505092915050565b600081519050919050565b600082825260208201905092915050565b6000819050602082019050919050565b61257f816124e7565b82525050565b600073ffffffffffffffffffffffffffffffffffffffff82169050919050565b60006125b082612585565b9050919050565b6125c0816125a5565b82525050565b60008115159050919050565b6125db816125c6565b82525050565b60a0820160008201516125f76000850182612576565b50602082015161260a60208501826125b7565b50604082015161261d6040850182612576565b50606082015161263060608501826125d2565b5060808201516126436080850182612576565b50505050565b600061265583836125e1565b60a08301905092915050565b6000602082019050919050565b60006126798261254a565b6126838185612555565b935061268e83612566565b8060005b838110156126bf5781516126a68882612649565b97506126b183612661565b925050600181019050612692565b5085935050505092915050565b600060208201905081810360008301526126e6818461266e565b905092915050565b6126f7816124e7565b82525050565b612706816125a5565b82525050565b600061010082019050612722600083018b6126ee565b61272f602083018a6126fd565b61273c60408301896126ee565b61274960608301886126fd565b61275660808301876126ee565b61276360a08301866126ee565b61277060c08301856126fd565b61277d60e08301846126ee565b9998505050505050505050565b612793816125a5565b811461279e57600080fd5b50565b6000813590506127b08161278a565b92915050565b6000602082840312156127cc576127cb6124e2565b5b60006127da848285016127a1565b91505092915050565b600081519050919050565b600082825260208201905092915050565b6000819050602082019050919050565b610100820160008201516128266000850182612576565b50602082015161283960208501826125b7565b50604082015161284c6040850182612576565b50606082015161285f60608501826125b7565b5060808201516128726080850182612576565b5060a082015161288560a0850182612576565b5060c082015161289860c08501826125b7565b5060e08201516128ab60e0850182612576565b50505050565b60006128bd838361280f565b6101008301905092915050565b6000602082019050919050565b60006128e2826127e3565b6128ec81856127ee565b93506128f7836127ff565b8060005b8381101561292857815161290f88826128b1565b975061291a836128ca565b9250506001810190506128fb565b5085935050505092915050565b6000602082019050818103600083015261294f81846128d7565b905092915050565b600060208201905061296c60008301846126ee565b92915050565b60a0820160008201516129886000850182612576565b50602082015161299b60208501826125b7565b5060408201516129ae6040850182612576565b5060608201516129c160608501826125d2565b5060808201516129d46080850182612576565b50505050565b600060a0820190506129ef6000830184612972565b92915050565b6129fe816125c6565b82525050565b600060a082019050612a1960008301886126ee565b612a2660208301876126fd565b612a3360408301866126ee565b612a4060608301856129f5565b612a4d60808301846126ee565b9695505050505050565b6000602082019050612a6c60008301846126fd565b92915050565b61010082016000820151612a896000850182612576565b506020820151612a9c60208501826125b7565b506040820151612aaf6040850182612576565b506060820151612ac260608501826125b7565b506080820151612ad56080850182612576565b5060a0820151612ae860a0850182612576565b5060c0820151612afb60c08501826125b7565b5060e0820151612b0e60e0850182612576565b50505050565b600061010082019050612b2a6000830184612a72565b92915050565b60008060408385031215612b4757612b466124e2565b5b6000612b5585828601612508565b9250506020612b6685828601612508565b9150509250929050565b7f4e487b7100000000000000000000000000000000000000000000000000000000600052601160045260246000fd5b6000612baa826124e7565b9150612bb5836124e7565b9250828203905081811115612bcd57612bcc612b70565b5b92915050565b6000612bde826124e7565b9150612be9836124e7565b9250828201905080821115612c0157612c00612b70565b5b92915050565b6000612c12826124e7565b91507fffffffffffffffffffffffffffffffffffffffffffffffffffffffffffffffff8203612c4457612c43612b70565b5b600182019050919050565b7f4e487b7100000000000000000000000000000000000000000000000000000000600052604160045260246000fd5b7f4e487b7100000000000000000000000000000000000000000000000000000000600052603260045260246000fd5b6000612cb8826124e7565b9150612cc3836124e7565b9250828202612cd1816124e7565b91508282048414831517612ce857612ce7612b70565b5b5092915050565b7f4e487b7100000000000000000000000000000000000000000000000000000000600052601260045260246000fd5b6000612d29826124e7565b9150612d34836124e7565b925082612d4457612d43612cef565b5b82820490509291505056fea2646970667358221220ce3f2dae7a04fafaf3137436f46f74e2a12ff504f81c08250e22ac567136ad7e64736f6c63430008120033",
  "linkReferences": {},
  "deployedLinkReferences": {}
}