{
  "_format": "hh-sol-artifact-1",
  "contractName": "RPS",
  "sourceName": "contracts/RPS.sol",
  "abi": [
    {
      "inputs": [
        {
          "internalType": "uint256",
          "name": "_amount",
          "type": "uint256"
        }
      ],
      "stateMutability": "payable",
      "type": "constructor"
    },
    {
      "inputs": [],
      "name": "amount",
      "outputs": [
        {
          "internalType": "uint256",
          "name": "",
          "type": "uint256"
        }
      ],
      "stateMutability": "view",
      "type": "function"
    },
    {
      "inputs": [
        {
          "internalType": "uint256",
          "name": "id",
          "type": "uint256"
        }
      ],
      "name": "cancelGame",
      "outputs": [],
      "stateMutability": "nonpayable",
      "type": "function"
    },
    {
      "inputs": [
        {
          "internalType": "uint256",
          "name": "_amount",
          "type": "uint256"
        }
      ],
      "name": "claimRewards",
      "outputs": [],
      "stateMutability": "nonpayable",
      "type": "function"
    },
    {
      "inputs": [
        {
          "internalType": "address",
          "name": "",
          "type": "address"
        }
      ],
      "name": "claimableRewards",
      "outputs": [
        {
          "internalType": "uint256",
          "name": "",
          "type": "uint256"
        }
      ],
      "stateMutability": "view",
      "type": "function"
    },
    {
      "inputs": [
        {
          "internalType": "address",
          "name": "",
          "type": "address"
        }
      ],
      "name": "claimedRewards",
      "outputs": [
        {
          "internalType": "uint256",
          "name": "",
          "type": "uint256"
        }
      ],
      "stateMutability": "view",
      "type": "function"
    },
    {
      "inputs": [
        {
          "internalType": "uint256",
          "name": "_firstMove",
          "type": "uint256"
        }
      ],
      "name": "createGame",
      "outputs": [],
      "stateMutability": "payable",
      "type": "function"
    },
    {
      "inputs": [
        {
          "internalType": "uint256",
          "name": "",
          "type": "uint256"
        }
      ],
      "name": "games",
      "outputs": [
        {
          "internalType": "uint256",
          "name": "id",
          "type": "uint256"
        },
        {
          "internalType": "address",
          "name": "opponent1",
          "type": "address"
        },
        {
          "internalType": "uint256",
          "name": "move1",
          "type": "uint256"
        },
        {
          "internalType": "address",
          "name": "opponent2",
          "type": "address"
        },
        {
          "internalType": "uint256",
          "name": "move2",
          "type": "uint256"
        },
        {
          "internalType": "uint256",
          "name": "value",
          "type": "uint256"
        },
        {
          "internalType": "address",
          "name": "winner",
          "type": "address"
        },
        {
          "internalType": "uint256",
          "name": "timestamp",
          "type": "uint256"
        }
      ],
      "stateMutability": "view",
      "type": "function"
    },
    {
      "inputs": [],
      "name": "getActivePendingGames",
      "outputs": [
        {
          "components": [
            {
              "internalType": "uint256",
              "name": "id",
              "type": "uint256"
            },
            {
              "internalType": "address",
              "name": "gameCreator",
              "type": "address"
            },
            {
              "internalType": "uint256",
              "name": "value",
              "type": "uint256"
            },
            {
              "internalType": "bool",
              "name": "active",
              "type": "bool"
            },
            {
              "internalType": "uint256",
              "name": "timestamp",
              "type": "uint256"
            }
          ],
          "internalType": "struct RPS.PendingGame[]",
          "name": "activePendingGames",
          "type": "tuple[]"
        }
      ],
      "stateMutability": "view",
      "type": "function"
    },
    {
      "inputs": [],
      "name": "getBallance",
      "outputs": [
        {
          "internalType": "uint256",
          "name": "",
          "type": "uint256"
        }
      ],
      "stateMutability": "view",
      "type": "function"
    },
    {
      "inputs": [
        {
          "internalType": "address",
          "name": "adr",
          "type": "address"
        }
      ],
      "name": "getClaimableRewards",
      "outputs": [
        {
          "internalType": "uint256",
          "name": "reward",
          "type": "uint256"
        }
      ],
      "stateMutability": "view",
      "type": "function"
    },
    {
      "inputs": [
        {
          "internalType": "address",
          "name": "adr",
          "type": "address"
        }
      ],
      "name": "getClaimedRewards",
      "outputs": [
        {
          "internalType": "uint256",
          "name": "claimedReward",
          "type": "uint256"
        }
      ],
      "stateMutability": "view",
      "type": "function"
    },
    {
      "inputs": [
        {
          "internalType": "uint256",
          "name": "id",
          "type": "uint256"
        }
      ],
      "name": "getGame",
      "outputs": [
        {
          "components": [
            {
              "internalType": "uint256",
              "name": "id",
              "type": "uint256"
            },
            {
              "internalType": "address",
              "name": "opponent1",
              "type": "address"
            },
            {
              "internalType": "uint256",
              "name": "move1",
              "type": "uint256"
            },
            {
              "internalType": "address",
              "name": "opponent2",
              "type": "address"
            },
            {
              "internalType": "uint256",
              "name": "move2",
              "type": "uint256"
            },
            {
              "internalType": "uint256",
              "name": "value",
              "type": "uint256"
            },
            {
              "internalType": "address",
              "name": "winner",
              "type": "address"
            },
            {
              "internalType": "uint256",
              "name": "timestamp",
              "type": "uint256"
            }
          ],
          "internalType": "struct RPS.Game",
          "name": "game",
          "type": "tuple"
        }
      ],
      "stateMutability": "view",
      "type": "function"
    },
    {
      "inputs": [
        {
          "internalType": "uint256",
          "name": "id",
          "type": "uint256"
        }
      ],
      "name": "getPendingGame",
      "outputs": [
        {
          "components": [
            {
              "internalType": "uint256",
              "name": "id",
              "type": "uint256"
            },
            {
              "internalType": "address",
              "name": "gameCreator",
              "type": "address"
            },
            {
              "internalType": "uint256",
              "name": "value",
              "type": "uint256"
            },
            {
              "internalType": "bool",
              "name": "active",
              "type": "bool"
            },
            {
              "internalType": "uint256",
              "name": "timestamp",
              "type": "uint256"
            }
          ],
          "internalType": "struct RPS.PendingGame",
          "name": "pendingGame",
          "type": "tuple"
        }
      ],
      "stateMutability": "view",
      "type": "function"
    },
    {
      "inputs": [
        {
          "internalType": "address",
          "name": "adr",
          "type": "address"
        }
      ],
      "name": "getPlayerGames",
      "outputs": [
        {
          "components": [
            {
              "internalType": "uint256",
              "name": "id",
              "type": "uint256"
            },
            {
              "internalType": "address",
              "name": "opponent1",
              "type": "address"
            },
            {
              "internalType": "uint256",
              "name": "move1",
              "type": "uint256"
            },
            {
              "internalType": "address",
              "name": "opponent2",
              "type": "address"
            },
            {
              "internalType": "uint256",
              "name": "move2",
              "type": "uint256"
            },
            {
              "internalType": "uint256",
              "name": "value",
              "type": "uint256"
            },
            {
              "internalType": "address",
              "name": "winner",
              "type": "address"
            },
            {
              "internalType": "uint256",
              "name": "timestamp",
              "type": "uint256"
            }
          ],
          "internalType": "struct RPS.Game[]",
          "name": "Games",
          "type": "tuple[]"
        }
      ],
      "stateMutability": "view",
      "type": "function"
    },
    {
      "inputs": [
        {
          "internalType": "address",
          "name": "adr",
          "type": "address"
        }
      ],
      "name": "getPlayerPendingGames",
      "outputs": [
        {
          "components": [
            {
              "internalType": "uint256",
              "name": "id",
              "type": "uint256"
            },
            {
              "internalType": "address",
              "name": "gameCreator",
              "type": "address"
            },
            {
              "internalType": "uint256",
              "name": "value",
              "type": "uint256"
            },
            {
              "internalType": "bool",
              "name": "active",
              "type": "bool"
            },
            {
              "internalType": "uint256",
              "name": "timestamp",
              "type": "uint256"
            }
          ],
          "internalType": "struct RPS.PendingGame[]",
          "name": "PendingGames",
          "type": "tuple[]"
        }
      ],
      "stateMutability": "view",
      "type": "function"
    },
    {
      "inputs": [],
      "name": "getTotalPendingGameCount",
      "outputs": [
        {
          "internalType": "uint256",
          "name": "",
          "type": "uint256"
        }
      ],
      "stateMutability": "view",
      "type": "function"
    },
    {
      "inputs": [],
      "name": "getTotoalGameCount",
      "outputs": [
        {
          "internalType": "uint256",
          "name": "",
          "type": "uint256"
        }
      ],
      "stateMutability": "view",
      "type": "function"
    },
    {
      "inputs": [
        {
          "internalType": "uint256",
          "name": "id",
          "type": "uint256"
        },
        {
          "internalType": "uint256",
          "name": "_secondMove",
          "type": "uint256"
        }
      ],
      "name": "joinGame",
      "outputs": [],
      "stateMutability": "payable",
      "type": "function"
    },
    {
      "inputs": [],
      "name": "owner",
      "outputs": [
        {
          "internalType": "address",
          "name": "",
          "type": "address"
        }
      ],
      "stateMutability": "view",
      "type": "function"
    },
    {
      "inputs": [
        {
          "internalType": "uint256",
          "name": "",
          "type": "uint256"
        }
      ],
      "name": "pendingGames",
      "outputs": [
        {
          "internalType": "uint256",
          "name": "id",
          "type": "uint256"
        },
        {
          "internalType": "address",
          "name": "gameCreator",
          "type": "address"
        },
        {
          "internalType": "uint256",
          "name": "value",
          "type": "uint256"
        },
        {
          "internalType": "bool",
          "name": "active",
          "type": "bool"
        },
        {
          "internalType": "uint256",
          "name": "timestamp",
          "type": "uint256"
        }
      ],
      "stateMutability": "view",
      "type": "function"
    },
    {
      "inputs": [],
      "name": "totalGameCount",
      "outputs": [
        {
          "internalType": "uint256",
          "name": "",
          "type": "uint256"
        }
      ],
      "stateMutability": "view",
      "type": "function"
    },
    {
      "inputs": [],
      "name": "totalPendingGameCount",
      "outputs": [
        {
          "internalType": "uint256",
          "name": "",
          "type": "uint256"
        }
      ],
      "stateMutability": "view",
      "type": "function"
    },
    {
      "inputs": [
        {
          "internalType": "uint256",
          "name": "_amount",
          "type": "uint256"
        }
      ],
      "name": "withdraw",
      "outputs": [],
      "stateMutability": "nonpayable",
      "type": "function"
    }
  ],
  "bytecode": "0x60806040526040516200284e3803806200284e8339818101604052810190620000299190620000c8565b8060008190555033600160006101000a81548173ffffffffffffffffffffffffffffffffffffffff021916908373ffffffffffffffffffffffffffffffffffffffff1602179055506000600281905550600060038190555050620000fa565b600080fd5b6000819050919050565b620000a2816200008d565b8114620000ae57600080fd5b50565b600081519050620000c28162000097565b92915050565b600060208284031215620000e157620000e062000088565b5b6000620000f184828501620000b1565b91505092915050565b612744806200010a6000396000f3fe6080604052600436106101405760003560e01c806369958ab9116100b6578063b60b9fcb1161006f578063b60b9fcb14610494578063b6d421d0146104b0578063b9e35db0146104db578063bd83434514610518578063dc01f60d14610555578063e89e14ee1461059257610140565b806369958ab9146103705780636e9ef4bf146103995780638da5cb5b146103d65780639c82dd1f14610401578063a2f77bcc1461042c578063aa8c217c1461046957610140565b8063308e401e11610108578063308e401e146102435780633d598f801461028057806347ad2916146102bd57806348e837b9146102e8578063579e94ee1461030457806367013c751461034557610140565b80630962ef79146101455780630d8b7da71461016e578063117a5b9014610199578063129daf84146101dd5780632e1a7d4d1461021a575b600080fd5b34801561015157600080fd5b5061016c60048036038101906101679190611edc565b6105bd565b005b34801561017a57600080fd5b5061018361074b565b604051610190919061208b565b60405180910390f35b3480156101a557600080fd5b506101c060048036038101906101bb9190611edc565b610933565b6040516101d49897969594939291906120cb565b60405180910390f35b3480156101e957600080fd5b5061020460048036038101906101ff9190612175565b6109db565b60405161021191906122f4565b60405180910390f35b34801561022657600080fd5b50610241600480360381019061023c9190611edc565b610db9565b005b34801561024f57600080fd5b5061026a60048036038101906102659190612175565b610e5d565b6040516102779190612316565b60405180910390f35b34801561028c57600080fd5b506102a760048036038101906102a29190611edc565b610ea6565b6040516102b49190612399565b60405180910390f35b3480156102c957600080fd5b506102d2610f62565b6040516102df9190612316565b60405180910390f35b61030260048036038101906102fd9190611edc565b610f6c565b005b34801561031057600080fd5b5061032b60048036038101906103269190611edc565b610fd0565b60405161033c9594939291906123c3565b60405180910390f35b34801561035157600080fd5b5061035a611033565b6040516103679190612316565b60405180910390f35b34801561037c57600080fd5b5061039760048036038101906103929190611edc565b611039565b005b3480156103a557600080fd5b506103c060048036038101906103bb9190612175565b611165565b6040516103cd919061208b565b60405180910390f35b3480156103e257600080fd5b506103eb61142b565b6040516103f89190612416565b60405180910390f35b34801561040d57600080fd5b50610416611451565b6040516104239190612316565b60405180910390f35b34801561043857600080fd5b50610453600480360381019061044e9190611edc565b611457565b60405161046091906124d3565b60405180910390f35b34801561047557600080fd5b5061047e6115b9565b60405161048b9190612316565b60405180910390f35b6104ae60048036038101906104a991906124ef565b6115bf565b005b3480156104bc57600080fd5b506104c561194d565b6040516104d29190612316565b60405180910390f35b3480156104e757600080fd5b5061050260048036038101906104fd9190612175565b611957565b60405161050f9190612316565b60405180910390f35b34801561052457600080fd5b5061053f600480360381019061053a9190612175565b6119a0565b60405161054c9190612316565b60405180910390f35b34801561056157600080fd5b5061057c60048036038101906105779190612175565b6119b8565b6040516105899190612316565b60405180910390f35b34801561059e57600080fd5b506105a76119d0565b6040516105b49190612316565b60405180910390f35b6000600760003373ffffffffffffffffffffffffffffffffffffffff1673ffffffffffffffffffffffffffffffffffffffff168152602001908152602001600020541161060957600080fd5b600760003373ffffffffffffffffffffffffffffffffffffffff1673ffffffffffffffffffffffffffffffffffffffff1681526020019081526020016000205481111561065557600080fd5b80600760003373ffffffffffffffffffffffffffffffffffffffff1673ffffffffffffffffffffffffffffffffffffffff16815260200190815260200160002060008282546106a4919061255e565b9250508190555080600860003373ffffffffffffffffffffffffffffffffffffffff1673ffffffffffffffffffffffffffffffffffffffff16815260200190815260200160002060008282546106fa9190612592565b925050819055503373ffffffffffffffffffffffffffffffffffffffff166108fc829081150290604051600060405180830381858888f19350505050158015610747573d6000803e3d6000fd5b5050565b60606000805b60035481116107ab57600115156005600083815260200190815260200160002060030160009054906101000a900460ff16151503610798578180610794906125c6565b9250505b80806107a3906125c6565b915050610751565b508067ffffffffffffffff8111156107c6576107c561260e565b5b6040519080825280602002602001820160405280156107ff57816020015b6107ec611dd3565b8152602001906001900390816107e45790505b5091506000905060005b600354811161092e57600115156005600083815260200190815260200160002060030160009054906101000a900460ff1615150361091b57600560008281526020019081526020016000206040518060a0016040529081600082015481526020016001820160009054906101000a900473ffffffffffffffffffffffffffffffffffffffff1673ffffffffffffffffffffffffffffffffffffffff1673ffffffffffffffffffffffffffffffffffffffff168152602001600282015481526020016003820160009054906101000a900460ff161515151581526020016004820154815250508383815181106109015761090061263d565b5b60200260200101819052508180610917906125c6565b9250505b8080610926906125c6565b915050610809565b505090565b60066020528060005260406000206000915090508060000154908060010160009054906101000a900473ffffffffffffffffffffffffffffffffffffffff16908060020154908060030160009054906101000a900473ffffffffffffffffffffffffffffffffffffffff16908060040154908060050154908060060160009054906101000a900473ffffffffffffffffffffffffffffffffffffffff16908060070154905088565b60606000805b6002548111610ae2578373ffffffffffffffffffffffffffffffffffffffff166006600083815260200190815260200160002060010160009054906101000a900473ffffffffffffffffffffffffffffffffffffffff1673ffffffffffffffffffffffffffffffffffffffff161480610abb57508373ffffffffffffffffffffffffffffffffffffffff166006600083815260200190815260200160002060030160009054906101000a900473ffffffffffffffffffffffffffffffffffffffff1673ffffffffffffffffffffffffffffffffffffffff16145b15610acf578180610acb906125c6565b9250505b8080610ada906125c6565b9150506109e1565b508067ffffffffffffffff811115610afd57610afc61260e565b5b604051908082528060200260200182016040528015610b3657816020015b610b23611e1a565b815260200190600190039081610b1b5790505b5091506000905060005b6002548111610db2578373ffffffffffffffffffffffffffffffffffffffff166006600083815260200190815260200160002060010160009054906101000a900473ffffffffffffffffffffffffffffffffffffffff1673ffffffffffffffffffffffffffffffffffffffff161480610c1a57508373ffffffffffffffffffffffffffffffffffffffff166006600083815260200190815260200160002060030160009054906101000a900473ffffffffffffffffffffffffffffffffffffffff1673ffffffffffffffffffffffffffffffffffffffff16145b15610d9f576006600082815260200190815260200160002060405180610100016040529081600082015481526020016001820160009054906101000a900473ffffffffffffffffffffffffffffffffffffffff1673ffffffffffffffffffffffffffffffffffffffff1673ffffffffffffffffffffffffffffffffffffffff168152602001600282015481526020016003820160009054906101000a900473ffffffffffffffffffffffffffffffffffffffff1673ffffffffffffffffffffffffffffffffffffffff1673ffffffffffffffffffffffffffffffffffffffff16815260200160048201548152602001600582015481526020016006820160009054906101000a900473ffffffffffffffffffffffffffffffffffffffff1673ffffffffffffffffffffffffffffffffffffffff1673ffffffffffffffffffffffffffffffffffffffff168152602001600782015481525050838381518110610d8557610d8461263d565b5b60200260200101819052508180610d9b906125c6565b9250505b8080610daa906125c6565b915050610b40565b5050919050565b600160009054906101000a900473ffffffffffffffffffffffffffffffffffffffff1673ffffffffffffffffffffffffffffffffffffffff163373ffffffffffffffffffffffffffffffffffffffff1614610e1357600080fd5b3373ffffffffffffffffffffffffffffffffffffffff166108fc829081150290604051600060405180830381858888f19350505050158015610e59573d6000803e3d6000fd5b5050565b6000600760008373ffffffffffffffffffffffffffffffffffffffff1673ffffffffffffffffffffffffffffffffffffffff168152602001908152602001600020549050919050565b610eae611dd3565b600560008381526020019081526020016000206040518060a0016040529081600082015481526020016001820160009054906101000a900473ffffffffffffffffffffffffffffffffffffffff1673ffffffffffffffffffffffffffffffffffffffff1673ffffffffffffffffffffffffffffffffffffffff168152602001600282015481526020016003820160009054906101000a900460ff161515151581526020016004820154815250509050919050565b6000600254905090565b3373ffffffffffffffffffffffffffffffffffffffff1631341115610f9057600080fd5b600054341015610f9f57600080fd5b6000811480610fae5750600281145b80610fb95750600181145b610fc257600080fd5b610fcd8133426119d8565b50565b60056020528060005260406000206000915090508060000154908060010160009054906101000a900473ffffffffffffffffffffffffffffffffffffffff16908060020154908060030160009054906101000a900460ff16908060040154905085565b60035481565b6005600082815260200190815260200160002060010160009054906101000a900473ffffffffffffffffffffffffffffffffffffffff1673ffffffffffffffffffffffffffffffffffffffff163373ffffffffffffffffffffffffffffffffffffffff16146110a757600080fd5b600115156005600083815260200190815260200160002060030160009054906101000a900460ff161515146110db57600080fd5b60006005600083815260200190815260200160002060030160006101000a81548160ff021916908315150217905550600054600760003373ffffffffffffffffffffffffffffffffffffffff1673ffffffffffffffffffffffffffffffffffffffff168152602001908152602001600020600082825461115b9190612592565b9250508190555050565b60606000805b600354811161123357600115156005600083815260200190815260200160002060030160009054906101000a900460ff16151514801561120c57508373ffffffffffffffffffffffffffffffffffffffff166005600083815260200190815260200160002060010160009054906101000a900473ffffffffffffffffffffffffffffffffffffffff1673ffffffffffffffffffffffffffffffffffffffff16145b1561122057818061121c906125c6565b9250505b808061122b906125c6565b91505061116b565b508067ffffffffffffffff81111561124e5761124d61260e565b5b60405190808252806020026020018201604052801561128757816020015b611274611dd3565b81526020019060019003908161126c5790505b5091506000905060005b600354811161142457600115156005600083815260200190815260200160002060030160009054906101000a900460ff16151514801561133257508373ffffffffffffffffffffffffffffffffffffffff166005600083815260200190815260200160002060010160009054906101000a900473ffffffffffffffffffffffffffffffffffffffff1673ffffffffffffffffffffffffffffffffffffffff16145b1561141157600560008281526020019081526020016000206040518060a0016040529081600082015481526020016001820160009054906101000a900473ffffffffffffffffffffffffffffffffffffffff1673ffffffffffffffffffffffffffffffffffffffff1673ffffffffffffffffffffffffffffffffffffffff168152602001600282015481526020016003820160009054906101000a900460ff161515151581526020016004820154815250508383815181106113f7576113f661263d565b5b6020026020010181905250818061140d906125c6565b9250505b808061141c906125c6565b915050611291565b5050919050565b600160009054906101000a900473ffffffffffffffffffffffffffffffffffffffff1681565b60025481565b61145f611e1a565b6006600083815260200190815260200160002060405180610100016040529081600082015481526020016001820160009054906101000a900473ffffffffffffffffffffffffffffffffffffffff1673ffffffffffffffffffffffffffffffffffffffff1673ffffffffffffffffffffffffffffffffffffffff168152602001600282015481526020016003820160009054906101000a900473ffffffffffffffffffffffffffffffffffffffff1673ffffffffffffffffffffffffffffffffffffffff1673ffffffffffffffffffffffffffffffffffffffff16815260200160048201548152602001600582015481526020016006820160009054906101000a900473ffffffffffffffffffffffffffffffffffffffff1673ffffffffffffffffffffffffffffffffffffffff1673ffffffffffffffffffffffffffffffffffffffff1681526020016007820154815250509050919050565b60005481565b6000543410156115ce57600080fd5b60008114806115dd5750600281145b806115e85750600181145b6115f157600080fd5b600115156005600084815260200190815260200160002060030160009054906101000a900460ff1615151461162557600080fd5b600061165a60046000600560008781526020019081526020016000206000015481526020019081526020016000205483611af6565b905060006005600085815260200190815260200160002060030160006101000a81548160ff021916908315150217905550600080820361178357600054600760006005600088815260200190815260200160002060010160009054906101000a900473ffffffffffffffffffffffffffffffffffffffff1673ffffffffffffffffffffffffffffffffffffffff1673ffffffffffffffffffffffffffffffffffffffff168152602001908152602001600020600082825461171b9190612592565b92505081905550600054600760003373ffffffffffffffffffffffffffffffffffffffff1673ffffffffffffffffffffffffffffffffffffffff16815260200190815260200160002060008282546117739190612592565b92505081905550600090506118ed565b6001820361186f57600a601360005461179c919061266c565b6117a691906126dd565b600760006005600088815260200190815260200160002060010160009054906101000a900473ffffffffffffffffffffffffffffffffffffffff1673ffffffffffffffffffffffffffffffffffffffff1673ffffffffffffffffffffffffffffffffffffffff168152602001908152602001600020600082825461182a9190612592565b925050819055506005600085815260200190815260200160002060010160009054906101000a900473ffffffffffffffffffffffffffffffffffffffff1690506118ec565b600282036118eb57600a6013600054611888919061266c565b61189291906126dd565b600760003373ffffffffffffffffffffffffffffffffffffffff1673ffffffffffffffffffffffffffffffffffffffff16815260200190815260200160002060008282546118e09190612592565b925050819055503390505b5b5b6119476005600086815260200190815260200160002060010160009054906101000a900473ffffffffffffffffffffffffffffffffffffffff16600460008781526020019081526020016000205433866000548642611c0f565b50505050565b6000600354905090565b6000600860008373ffffffffffffffffffffffffffffffffffffffff1673ffffffffffffffffffffffffffffffffffffffff168152602001908152602001600020549050919050565b60086020528060005260406000206000915090505481565b60076020528060005260406000206000915090505481565b600047905090565b600360008154809291906119eb906125c6565b919050555060006040518060a0016040528060035481526020018473ffffffffffffffffffffffffffffffffffffffff1681526020016000548152602001600115158152602001838152509050806005600060035481526020019081526020016000206000820151816000015560208201518160010160006101000a81548173ffffffffffffffffffffffffffffffffffffffff021916908373ffffffffffffffffffffffffffffffffffffffff1602179055506040820151816002015560608201518160030160006101000a81548160ff02191690831515021790555060808201518160040155905050836004600060035481526020019081526020016000208190555050505050565b60008083148015611b075750600082145b15611b155760009050611c09565b600083148015611b255750600282145b15611b335760019050611c08565b600083148015611b435750600182145b15611b515760029050611c07565b600283148015611b615750600282145b15611b6f5760009050611c06565b600283148015611b7f5750600082145b15611b8d5760029050611c05565b600283148015611b9d5750600182145b15611bab5760019050611c04565b600183148015611bbb5750600182145b15611bc95760009050611c03565b600183148015611bd95750600082145b15611be75760019050611c02565b600183148015611bf75750600282145b15611c0157600290505b5b5b5b5b5b5b5b5b92915050565b60026000815480929190611c22906125c6565b9190505550600060405180610100016040528060025481526020018973ffffffffffffffffffffffffffffffffffffffff1681526020018881526020018773ffffffffffffffffffffffffffffffffffffffff1681526020018681526020018581526020018473ffffffffffffffffffffffffffffffffffffffff168152602001838152509050806006600060025481526020019081526020016000206000820151816000015560208201518160010160006101000a81548173ffffffffffffffffffffffffffffffffffffffff021916908373ffffffffffffffffffffffffffffffffffffffff1602179055506040820151816002015560608201518160030160006101000a81548173ffffffffffffffffffffffffffffffffffffffff021916908373ffffffffffffffffffffffffffffffffffffffff1602179055506080820151816004015560a0820151816005015560c08201518160060160006101000a81548173ffffffffffffffffffffffffffffffffffffffff021916908373ffffffffffffffffffffffffffffffffffffffff16021790555060e082015181600701559050505050505050505050565b6040518060a0016040528060008152602001600073ffffffffffffffffffffffffffffffffffffffff16815260200160008152602001600015158152602001600081525090565b60405180610100016040528060008152602001600073ffffffffffffffffffffffffffffffffffffffff16815260200160008152602001600073ffffffffffffffffffffffffffffffffffffffff1681526020016000815260200160008152602001600073ffffffffffffffffffffffffffffffffffffffff168152602001600081525090565b600080fd5b6000819050919050565b611eb981611ea6565b8114611ec457600080fd5b50565b600081359050611ed681611eb0565b92915050565b600060208284031215611ef257611ef1611ea1565b5b6000611f0084828501611ec7565b91505092915050565b600081519050919050565b600082825260208201905092915050565b6000819050602082019050919050565b611f3e81611ea6565b82525050565b600073ffffffffffffffffffffffffffffffffffffffff82169050919050565b6000611f6f82611f44565b9050919050565b611f7f81611f64565b82525050565b60008115159050919050565b611f9a81611f85565b82525050565b60a082016000820151611fb66000850182611f35565b506020820151611fc96020850182611f76565b506040820151611fdc6040850182611f35565b506060820151611fef6060850182611f91565b5060808201516120026080850182611f35565b50505050565b60006120148383611fa0565b60a08301905092915050565b6000602082019050919050565b600061203882611f09565b6120428185611f14565b935061204d83611f25565b8060005b8381101561207e5781516120658882612008565b975061207083612020565b925050600181019050612051565b5085935050505092915050565b600060208201905081810360008301526120a5818461202d565b905092915050565b6120b681611ea6565b82525050565b6120c581611f64565b82525050565b6000610100820190506120e1600083018b6120ad565b6120ee602083018a6120bc565b6120fb60408301896120ad565b61210860608301886120bc565b61211560808301876120ad565b61212260a08301866120ad565b61212f60c08301856120bc565b61213c60e08301846120ad565b9998505050505050505050565b61215281611f64565b811461215d57600080fd5b50565b60008135905061216f81612149565b92915050565b60006020828403121561218b5761218a611ea1565b5b600061219984828501612160565b91505092915050565b600081519050919050565b600082825260208201905092915050565b6000819050602082019050919050565b610100820160008201516121e56000850182611f35565b5060208201516121f86020850182611f76565b50604082015161220b6040850182611f35565b50606082015161221e6060850182611f76565b5060808201516122316080850182611f35565b5060a082015161224460a0850182611f35565b5060c082015161225760c0850182611f76565b5060e082015161226a60e0850182611f35565b50505050565b600061227c83836121ce565b6101008301905092915050565b6000602082019050919050565b60006122a1826121a2565b6122ab81856121ad565b93506122b6836121be565b8060005b838110156122e75781516122ce8882612270565b97506122d983612289565b9250506001810190506122ba565b5085935050505092915050565b6000602082019050818103600083015261230e8184612296565b905092915050565b600060208201905061232b60008301846120ad565b92915050565b60a0820160008201516123476000850182611f35565b50602082015161235a6020850182611f76565b50604082015161236d6040850182611f35565b5060608201516123806060850182611f91565b5060808201516123936080850182611f35565b50505050565b600060a0820190506123ae6000830184612331565b92915050565b6123bd81611f85565b82525050565b600060a0820190506123d860008301886120ad565b6123e560208301876120bc565b6123f260408301866120ad565b6123ff60608301856123b4565b61240c60808301846120ad565b9695505050505050565b600060208201905061242b60008301846120bc565b92915050565b610100820160008201516124486000850182611f35565b50602082015161245b6020850182611f76565b50604082015161246e6040850182611f35565b5060608201516124816060850182611f76565b5060808201516124946080850182611f35565b5060a08201516124a760a0850182611f35565b5060c08201516124ba60c0850182611f76565b5060e08201516124cd60e0850182611f35565b50505050565b6000610100820190506124e96000830184612431565b92915050565b6000806040838503121561250657612505611ea1565b5b600061251485828601611ec7565b925050602061252585828601611ec7565b9150509250929050565b7f4e487b7100000000000000000000000000000000000000000000000000000000600052601160045260246000fd5b600061256982611ea6565b915061257483611ea6565b925082820390508181111561258c5761258b61252f565b5b92915050565b600061259d82611ea6565b91506125a883611ea6565b92508282019050808211156125c0576125bf61252f565b5b92915050565b60006125d182611ea6565b91507fffffffffffffffffffffffffffffffffffffffffffffffffffffffffffffffff82036126035761260261252f565b5b600182019050919050565b7f4e487b7100000000000000000000000000000000000000000000000000000000600052604160045260246000fd5b7f4e487b7100000000000000000000000000000000000000000000000000000000600052603260045260246000fd5b600061267782611ea6565b915061268283611ea6565b925082820261269081611ea6565b915082820484148315176126a7576126a661252f565b5b5092915050565b7f4e487b7100000000000000000000000000000000000000000000000000000000600052601260045260246000fd5b60006126e882611ea6565b91506126f383611ea6565b925082612703576127026126ae565b5b82820490509291505056fea26469706673582212202b61d9f0cc0bc070d3c861a13800d50dc3d93e2be6330871dde24cc86c5288f564736f6c63430008120033",
  "linkReferences": {},
  "deployedLinkReferences": {}
}