{
  "_format": "hh-sol-artifact-1",
  "contractName": "RPS",
  "sourceName": "contracts/RPS.sol",
  "abi": [
    {
      "inputs": [
        {
          "internalType": "uint256",
          "name": "_amount",
          "type": "uint256"
        }
      ],
      "stateMutability": "payable",
      "type": "constructor"
    },
    {
      "inputs": [],
      "name": "amount",
      "outputs": [
        {
          "internalType": "uint256",
          "name": "",
          "type": "uint256"
        }
      ],
      "stateMutability": "view",
      "type": "function"
    },
    {
      "inputs": [
        {
          "internalType": "uint256",
          "name": "id",
          "type": "uint256"
        }
      ],
      "name": "cancelGame",
      "outputs": [],
      "stateMutability": "nonpayable",
      "type": "function"
    },
    {
      "inputs": [
        {
          "internalType": "uint256",
          "name": "_amount",
          "type": "uint256"
        }
      ],
      "name": "claimRewards",
      "outputs": [],
      "stateMutability": "nonpayable",
      "type": "function"
    },
    {
      "inputs": [
        {
          "internalType": "address",
          "name": "",
          "type": "address"
        }
      ],
      "name": "claimableRewards",
      "outputs": [
        {
          "internalType": "uint256",
          "name": "",
          "type": "uint256"
        }
      ],
      "stateMutability": "view",
      "type": "function"
    },
    {
      "inputs": [
        {
          "internalType": "address",
          "name": "",
          "type": "address"
        }
      ],
      "name": "claimedRewards",
      "outputs": [
        {
          "internalType": "uint256",
          "name": "",
          "type": "uint256"
        }
      ],
      "stateMutability": "view",
      "type": "function"
    },
    {
      "inputs": [
        {
          "internalType": "uint256",
          "name": "_firstMove",
          "type": "uint256"
        }
      ],
      "name": "createGame",
      "outputs": [],
      "stateMutability": "payable",
      "type": "function"
    },
    {
      "inputs": [
        {
          "internalType": "uint256",
          "name": "",
          "type": "uint256"
        }
      ],
      "name": "games",
      "outputs": [
        {
          "internalType": "uint256",
          "name": "id",
          "type": "uint256"
        },
        {
          "internalType": "address",
          "name": "opponent1",
          "type": "address"
        },
        {
          "internalType": "uint256",
          "name": "move1",
          "type": "uint256"
        },
        {
          "internalType": "address",
          "name": "opponent2",
          "type": "address"
        },
        {
          "internalType": "uint256",
          "name": "move2",
          "type": "uint256"
        },
        {
          "internalType": "uint256",
          "name": "value",
          "type": "uint256"
        },
        {
          "internalType": "address",
          "name": "winner",
          "type": "address"
        }
      ],
      "stateMutability": "view",
      "type": "function"
    },
    {
      "inputs": [],
      "name": "getActivePendingGames",
      "outputs": [
        {
          "components": [
            {
              "internalType": "uint256",
              "name": "id",
              "type": "uint256"
            },
            {
              "internalType": "address",
              "name": "gameCreator",
              "type": "address"
            },
            {
              "internalType": "uint256",
              "name": "value",
              "type": "uint256"
            },
            {
              "internalType": "bool",
              "name": "active",
              "type": "bool"
            }
          ],
          "internalType": "struct RPS.PendingGame[]",
          "name": "activePendingGames",
          "type": "tuple[]"
        }
      ],
      "stateMutability": "view",
      "type": "function"
    },
    {
      "inputs": [],
      "name": "getBallance",
      "outputs": [
        {
          "internalType": "uint256",
          "name": "",
          "type": "uint256"
        }
      ],
      "stateMutability": "view",
      "type": "function"
    },
    {
      "inputs": [
        {
          "internalType": "address",
          "name": "adr",
          "type": "address"
        }
      ],
      "name": "getClaimableRewards",
      "outputs": [
        {
          "internalType": "uint256",
          "name": "reward",
          "type": "uint256"
        }
      ],
      "stateMutability": "view",
      "type": "function"
    },
    {
      "inputs": [
        {
          "internalType": "address",
          "name": "adr",
          "type": "address"
        }
      ],
      "name": "getClaimedRewards",
      "outputs": [
        {
          "internalType": "uint256",
          "name": "claimedReward",
          "type": "uint256"
        }
      ],
      "stateMutability": "view",
      "type": "function"
    },
    {
      "inputs": [
        {
          "internalType": "uint256",
          "name": "id",
          "type": "uint256"
        }
      ],
      "name": "getGame",
      "outputs": [
        {
          "components": [
            {
              "internalType": "uint256",
              "name": "id",
              "type": "uint256"
            },
            {
              "internalType": "address",
              "name": "opponent1",
              "type": "address"
            },
            {
              "internalType": "uint256",
              "name": "move1",
              "type": "uint256"
            },
            {
              "internalType": "address",
              "name": "opponent2",
              "type": "address"
            },
            {
              "internalType": "uint256",
              "name": "move2",
              "type": "uint256"
            },
            {
              "internalType": "uint256",
              "name": "value",
              "type": "uint256"
            },
            {
              "internalType": "address",
              "name": "winner",
              "type": "address"
            }
          ],
          "internalType": "struct RPS.Game",
          "name": "game",
          "type": "tuple"
        }
      ],
      "stateMutability": "view",
      "type": "function"
    },
    {
      "inputs": [
        {
          "internalType": "uint256",
          "name": "id",
          "type": "uint256"
        }
      ],
      "name": "getPendingGame",
      "outputs": [
        {
          "components": [
            {
              "internalType": "uint256",
              "name": "id",
              "type": "uint256"
            },
            {
              "internalType": "address",
              "name": "gameCreator",
              "type": "address"
            },
            {
              "internalType": "uint256",
              "name": "value",
              "type": "uint256"
            },
            {
              "internalType": "bool",
              "name": "active",
              "type": "bool"
            }
          ],
          "internalType": "struct RPS.PendingGame",
          "name": "pendingGame",
          "type": "tuple"
        }
      ],
      "stateMutability": "view",
      "type": "function"
    },
    {
      "inputs": [
        {
          "internalType": "address",
          "name": "adr",
          "type": "address"
        }
      ],
      "name": "getPlayerDeuces",
      "outputs": [
        {
          "components": [
            {
              "internalType": "uint256",
              "name": "id",
              "type": "uint256"
            },
            {
              "internalType": "address",
              "name": "opponent1",
              "type": "address"
            },
            {
              "internalType": "uint256",
              "name": "move1",
              "type": "uint256"
            },
            {
              "internalType": "address",
              "name": "opponent2",
              "type": "address"
            },
            {
              "internalType": "uint256",
              "name": "move2",
              "type": "uint256"
            },
            {
              "internalType": "uint256",
              "name": "value",
              "type": "uint256"
            },
            {
              "internalType": "address",
              "name": "winner",
              "type": "address"
            }
          ],
          "internalType": "struct RPS.Game[]",
          "name": "deuces",
          "type": "tuple[]"
        }
      ],
      "stateMutability": "view",
      "type": "function"
    },
    {
      "inputs": [
        {
          "internalType": "address",
          "name": "adr",
          "type": "address"
        }
      ],
      "name": "getPlayerGames",
      "outputs": [
        {
          "components": [
            {
              "internalType": "uint256",
              "name": "id",
              "type": "uint256"
            },
            {
              "internalType": "address",
              "name": "opponent1",
              "type": "address"
            },
            {
              "internalType": "uint256",
              "name": "move1",
              "type": "uint256"
            },
            {
              "internalType": "address",
              "name": "opponent2",
              "type": "address"
            },
            {
              "internalType": "uint256",
              "name": "move2",
              "type": "uint256"
            },
            {
              "internalType": "uint256",
              "name": "value",
              "type": "uint256"
            },
            {
              "internalType": "address",
              "name": "winner",
              "type": "address"
            }
          ],
          "internalType": "struct RPS.Game[]",
          "name": "Games",
          "type": "tuple[]"
        }
      ],
      "stateMutability": "view",
      "type": "function"
    },
    {
      "inputs": [
        {
          "internalType": "address",
          "name": "adr",
          "type": "address"
        }
      ],
      "name": "getPlayerLooses",
      "outputs": [
        {
          "components": [
            {
              "internalType": "uint256",
              "name": "id",
              "type": "uint256"
            },
            {
              "internalType": "address",
              "name": "opponent1",
              "type": "address"
            },
            {
              "internalType": "uint256",
              "name": "move1",
              "type": "uint256"
            },
            {
              "internalType": "address",
              "name": "opponent2",
              "type": "address"
            },
            {
              "internalType": "uint256",
              "name": "move2",
              "type": "uint256"
            },
            {
              "internalType": "uint256",
              "name": "value",
              "type": "uint256"
            },
            {
              "internalType": "address",
              "name": "winner",
              "type": "address"
            }
          ],
          "internalType": "struct RPS.Game[]",
          "name": "looses",
          "type": "tuple[]"
        }
      ],
      "stateMutability": "view",
      "type": "function"
    },
    {
      "inputs": [
        {
          "internalType": "address",
          "name": "adr",
          "type": "address"
        }
      ],
      "name": "getPlayerPendingGames",
      "outputs": [
        {
          "components": [
            {
              "internalType": "uint256",
              "name": "id",
              "type": "uint256"
            },
            {
              "internalType": "address",
              "name": "gameCreator",
              "type": "address"
            },
            {
              "internalType": "uint256",
              "name": "value",
              "type": "uint256"
            },
            {
              "internalType": "bool",
              "name": "active",
              "type": "bool"
            }
          ],
          "internalType": "struct RPS.PendingGame[]",
          "name": "PendingGames",
          "type": "tuple[]"
        }
      ],
      "stateMutability": "view",
      "type": "function"
    },
    {
      "inputs": [
        {
          "internalType": "address",
          "name": "adr",
          "type": "address"
        }
      ],
      "name": "getPlayerWins",
      "outputs": [
        {
          "components": [
            {
              "internalType": "uint256",
              "name": "id",
              "type": "uint256"
            },
            {
              "internalType": "address",
              "name": "opponent1",
              "type": "address"
            },
            {
              "internalType": "uint256",
              "name": "move1",
              "type": "uint256"
            },
            {
              "internalType": "address",
              "name": "opponent2",
              "type": "address"
            },
            {
              "internalType": "uint256",
              "name": "move2",
              "type": "uint256"
            },
            {
              "internalType": "uint256",
              "name": "value",
              "type": "uint256"
            },
            {
              "internalType": "address",
              "name": "winner",
              "type": "address"
            }
          ],
          "internalType": "struct RPS.Game[]",
          "name": "wins",
          "type": "tuple[]"
        }
      ],
      "stateMutability": "view",
      "type": "function"
    },
    {
      "inputs": [],
      "name": "getTotalPendingGameCount",
      "outputs": [
        {
          "internalType": "uint256",
          "name": "",
          "type": "uint256"
        }
      ],
      "stateMutability": "view",
      "type": "function"
    },
    {
      "inputs": [],
      "name": "getTotoalGameCount",
      "outputs": [
        {
          "internalType": "uint256",
          "name": "",
          "type": "uint256"
        }
      ],
      "stateMutability": "view",
      "type": "function"
    },
    {
      "inputs": [
        {
          "internalType": "uint256",
          "name": "id",
          "type": "uint256"
        },
        {
          "internalType": "uint256",
          "name": "_secondMove",
          "type": "uint256"
        }
      ],
      "name": "joinGame",
      "outputs": [],
      "stateMutability": "payable",
      "type": "function"
    },
    {
      "inputs": [],
      "name": "owner",
      "outputs": [
        {
          "internalType": "address",
          "name": "",
          "type": "address"
        }
      ],
      "stateMutability": "view",
      "type": "function"
    },
    {
      "inputs": [
        {
          "internalType": "uint256",
          "name": "",
          "type": "uint256"
        }
      ],
      "name": "pendingGames",
      "outputs": [
        {
          "internalType": "uint256",
          "name": "id",
          "type": "uint256"
        },
        {
          "internalType": "address",
          "name": "gameCreator",
          "type": "address"
        },
        {
          "internalType": "uint256",
          "name": "value",
          "type": "uint256"
        },
        {
          "internalType": "bool",
          "name": "active",
          "type": "bool"
        }
      ],
      "stateMutability": "view",
      "type": "function"
    },
    {
      "inputs": [],
      "name": "totalGameCount",
      "outputs": [
        {
          "internalType": "uint256",
          "name": "",
          "type": "uint256"
        }
      ],
      "stateMutability": "view",
      "type": "function"
    },
    {
      "inputs": [],
      "name": "totalPendingGameCount",
      "outputs": [
        {
          "internalType": "uint256",
          "name": "",
          "type": "uint256"
        }
      ],
      "stateMutability": "view",
      "type": "function"
    },
    {
      "inputs": [
        {
          "internalType": "uint256",
          "name": "_amount",
          "type": "uint256"
        }
      ],
      "name": "withdraw",
      "outputs": [],
      "stateMutability": "nonpayable",
      "type": "function"
    }
  ],
  "bytecode": "0x608060405260405162002dab38038062002dab8339818101604052810190620000299190620000c8565b8060008190555033600160006101000a81548173ffffffffffffffffffffffffffffffffffffffff021916908373ffffffffffffffffffffffffffffffffffffffff1602179055506000600281905550600060038190555050620000fa565b600080fd5b6000819050919050565b620000a2816200008d565b8114620000ae57600080fd5b50565b600081519050620000c28162000097565b92915050565b600060208284031215620000e157620000e062000088565b5b6000620000f184828501620000b1565b91505092915050565b612ca1806200010a6000396000f3fe6080604052600436106101815760003560e01c80637f6a9f0d116100d1578063b60b9fcb1161008a578063b9e35db011610064578063b9e35db0146105d1578063bd8343451461060e578063dc01f60d1461064b578063e89e14ee1461068857610181565b8063b60b9fcb1461054d578063b6d421d014610569578063b74ae96c1461059457610181565b80637f6a9f0d146104155780638da5cb5b14610452578063993234e91461047d5780639c82dd1f146104ba578063a2f77bcc146104e5578063aa8c217c1461052257610181565b80633d598f801161013e578063579e94ee11610118578063579e94ee1461034457806367013c751461038457806369958ab9146103af5780636e9ef4bf146103d857610181565b80633d598f80146102c057806347ad2916146102fd57806348e837b91461032857610181565b80630962ef79146101865780630d8b7da7146101af578063117a5b90146101da578063129daf841461021d5780632e1a7d4d1461025a578063308e401e14610283575b600080fd5b34801561019257600080fd5b506101ad60048036038101906101a891906124a6565b6106b3565b005b3480156101bb57600080fd5b506101c4610841565b6040516101d19190612642565b60405180910390f35b3480156101e657600080fd5b5061020160048036038101906101fc91906124a6565b610a1f565b6040516102149796959493929190612682565b60405180910390f35b34801561022957600080fd5b50610244600480360381019061023f919061271d565b610ac1565b6040516102519190612887565b60405180910390f35b34801561026657600080fd5b50610281600480360381019061027c91906124a6565b610e94565b005b34801561028f57600080fd5b506102aa60048036038101906102a5919061271d565b610f38565b6040516102b791906128a9565b60405180910390f35b3480156102cc57600080fd5b506102e760048036038101906102e291906124a6565b610f81565b6040516102f49190612919565b60405180910390f35b34801561030957600080fd5b50610312611033565b60405161031f91906128a9565b60405180910390f35b610342600480360381019061033d91906124a6565b61103d565b005b34801561035057600080fd5b5061036b600480360381019061036691906124a6565b6110a0565b60405161037b9493929190612943565b60405180910390f35b34801561039057600080fd5b506103996110fd565b6040516103a691906128a9565b60405180910390f35b3480156103bb57600080fd5b506103d660048036038101906103d191906124a6565b611103565b005b3480156103e457600080fd5b506103ff60048036038101906103fa919061271d565b61122f565b60405161040c9190612642565b60405180910390f35b34801561042157600080fd5b5061043c6004803603810190610437919061271d565b611483565b6040516104499190612887565b60405180910390f35b34801561045e57600080fd5b506104676116dd565b6040516104749190612988565b60405180910390f35b34801561048957600080fd5b506104a4600480360381019061049f919061271d565b611703565b6040516104b19190612887565b60405180910390f35b3480156104c657600080fd5b506104cf6118af565b6040516104dc91906128a9565b60405180910390f35b3480156104f157600080fd5b5061050c600480360381019061050791906124a6565b6118b5565b6040516105199190612a31565b60405180910390f35b34801561052e57600080fd5b50610537611a0c565b60405161054491906128a9565b60405180910390f35b61056760048036038101906105629190612a4c565b611a12565b005b34801561057557600080fd5b5061057e611d9f565b60405161058b91906128a9565b60405180910390f35b3480156105a057600080fd5b506105bb60048036038101906105b6919061271d565b611da9565b6040516105c89190612887565b60405180910390f35b3480156105dd57600080fd5b506105f860048036038101906105f3919061271d565b611f53565b60405161060591906128a9565b60405180910390f35b34801561061a57600080fd5b506106356004803603810190610630919061271d565b611f9c565b60405161064291906128a9565b60405180910390f35b34801561065757600080fd5b50610672600480360381019061066d919061271d565b611fb4565b60405161067f91906128a9565b60405180910390f35b34801561069457600080fd5b5061069d611fcc565b6040516106aa91906128a9565b60405180910390f35b6000600760003373ffffffffffffffffffffffffffffffffffffffff1673ffffffffffffffffffffffffffffffffffffffff16815260200190815260200160002054116106ff57600080fd5b600760003373ffffffffffffffffffffffffffffffffffffffff1673ffffffffffffffffffffffffffffffffffffffff1681526020019081526020016000205481111561074b57600080fd5b80600760003373ffffffffffffffffffffffffffffffffffffffff1673ffffffffffffffffffffffffffffffffffffffff168152602001908152602001600020600082825461079a9190612abb565b9250508190555080600860003373ffffffffffffffffffffffffffffffffffffffff1673ffffffffffffffffffffffffffffffffffffffff16815260200190815260200160002060008282546107f09190612aef565b925050819055503373ffffffffffffffffffffffffffffffffffffffff166108fc829081150290604051600060405180830381858888f1935050505015801561083d573d6000803e3d6000fd5b5050565b60606000805b60035481116108a157600115156005600083815260200190815260200160002060030160009054906101000a900460ff1615150361088e57818061088a90612b23565b9250505b808061089990612b23565b915050610847565b508067ffffffffffffffff8111156108bc576108bb612b6b565b5b6040519080825280602002602001820160405280156108f557816020015b6108e26123ac565b8152602001906001900390816108da5790505b5091506000905060005b6003548111610a1a57600115156005600083815260200190815260200160002060030160009054906101000a900460ff16151503610a075760056000828152602001908152602001600020604051806080016040529081600082015481526020016001820160009054906101000a900473ffffffffffffffffffffffffffffffffffffffff1673ffffffffffffffffffffffffffffffffffffffff1673ffffffffffffffffffffffffffffffffffffffff168152602001600282015481526020016003820160009054906101000a900460ff1615151515815250508383815181106109ed576109ec612b9a565b5b60200260200101819052508180610a0390612b23565b9250505b8080610a1290612b23565b9150506108ff565b505090565b60066020528060005260406000206000915090508060000154908060010160009054906101000a900473ffffffffffffffffffffffffffffffffffffffff16908060020154908060030160009054906101000a900473ffffffffffffffffffffffffffffffffffffffff16908060040154908060050154908060060160009054906101000a900473ffffffffffffffffffffffffffffffffffffffff16905087565b60606000805b6002548111610bc8578373ffffffffffffffffffffffffffffffffffffffff166006600083815260200190815260200160002060010160009054906101000a900473ffffffffffffffffffffffffffffffffffffffff1673ffffffffffffffffffffffffffffffffffffffff161480610ba157508373ffffffffffffffffffffffffffffffffffffffff166006600083815260200190815260200160002060030160009054906101000a900473ffffffffffffffffffffffffffffffffffffffff1673ffffffffffffffffffffffffffffffffffffffff16145b15610bb5578180610bb190612b23565b9250505b8080610bc090612b23565b915050610ac7565b508067ffffffffffffffff811115610be357610be2612b6b565b5b604051908082528060200260200182016040528015610c1c57816020015b610c096123ec565b815260200190600190039081610c015790505b5091506000905060005b6002548111610e8d578373ffffffffffffffffffffffffffffffffffffffff166006600083815260200190815260200160002060010160009054906101000a900473ffffffffffffffffffffffffffffffffffffffff1673ffffffffffffffffffffffffffffffffffffffff161480610d0057508373ffffffffffffffffffffffffffffffffffffffff166006600083815260200190815260200160002060030160009054906101000a900473ffffffffffffffffffffffffffffffffffffffff1673ffffffffffffffffffffffffffffffffffffffff16145b15610e7a57600660008281526020019081526020016000206040518060e0016040529081600082015481526020016001820160009054906101000a900473ffffffffffffffffffffffffffffffffffffffff1673ffffffffffffffffffffffffffffffffffffffff1673ffffffffffffffffffffffffffffffffffffffff168152602001600282015481526020016003820160009054906101000a900473ffffffffffffffffffffffffffffffffffffffff1673ffffffffffffffffffffffffffffffffffffffff1673ffffffffffffffffffffffffffffffffffffffff16815260200160048201548152602001600582015481526020016006820160009054906101000a900473ffffffffffffffffffffffffffffffffffffffff1673ffffffffffffffffffffffffffffffffffffffff1673ffffffffffffffffffffffffffffffffffffffff1681525050838381518110610e6057610e5f612b9a565b5b60200260200101819052508180610e7690612b23565b9250505b8080610e8590612b23565b915050610c26565b5050919050565b600160009054906101000a900473ffffffffffffffffffffffffffffffffffffffff1673ffffffffffffffffffffffffffffffffffffffff163373ffffffffffffffffffffffffffffffffffffffff1614610eee57600080fd5b3373ffffffffffffffffffffffffffffffffffffffff166108fc829081150290604051600060405180830381858888f19350505050158015610f34573d6000803e3d6000fd5b5050565b6000600760008373ffffffffffffffffffffffffffffffffffffffff1673ffffffffffffffffffffffffffffffffffffffff168152602001908152602001600020549050919050565b610f896123ac565b60056000838152602001908152602001600020604051806080016040529081600082015481526020016001820160009054906101000a900473ffffffffffffffffffffffffffffffffffffffff1673ffffffffffffffffffffffffffffffffffffffff1673ffffffffffffffffffffffffffffffffffffffff168152602001600282015481526020016003820160009054906101000a900460ff1615151515815250509050919050565b6000600254905090565b3373ffffffffffffffffffffffffffffffffffffffff163134111561106157600080fd5b60005434101561107057600080fd5b600081148061107f5750600281145b8061108a5750600181145b61109357600080fd5b61109d8133611fd4565b50565b60056020528060005260406000206000915090508060000154908060010160009054906101000a900473ffffffffffffffffffffffffffffffffffffffff16908060020154908060030160009054906101000a900460ff16905084565b60035481565b6005600082815260200190815260200160002060010160009054906101000a900473ffffffffffffffffffffffffffffffffffffffff1673ffffffffffffffffffffffffffffffffffffffff163373ffffffffffffffffffffffffffffffffffffffff161461117157600080fd5b600115156005600083815260200190815260200160002060030160009054906101000a900460ff161515146111a557600080fd5b60006005600083815260200190815260200160002060030160006101000a81548160ff021916908315150217905550600054600760003373ffffffffffffffffffffffffffffffffffffffff1673ffffffffffffffffffffffffffffffffffffffff16815260200190815260200160002060008282546112259190612aef565b9250508190555050565b60606000805b60035481116112c9578373ffffffffffffffffffffffffffffffffffffffff166005600083815260200190815260200160002060010160009054906101000a900473ffffffffffffffffffffffffffffffffffffffff1673ffffffffffffffffffffffffffffffffffffffff16036112b65781806112b290612b23565b9250505b80806112c190612b23565b915050611235565b508067ffffffffffffffff8111156112e4576112e3612b6b565b5b60405190808252806020026020018201604052801561131d57816020015b61130a6123ac565b8152602001906001900390816113025790505b5091506000905060005b600354811161147c573373ffffffffffffffffffffffffffffffffffffffff166005600083815260200190815260200160002060010160009054906101000a900473ffffffffffffffffffffffffffffffffffffffff1673ffffffffffffffffffffffffffffffffffffffff16036114695760056000828152602001908152602001600020604051806080016040529081600082015481526020016001820160009054906101000a900473ffffffffffffffffffffffffffffffffffffffff1673ffffffffffffffffffffffffffffffffffffffff1673ffffffffffffffffffffffffffffffffffffffff168152602001600282015481526020016003820160009054906101000a900460ff16151515158152505083838151811061144f5761144e612b9a565b5b6020026020010181905250818061146590612b23565b9250505b808061147490612b23565b915050611327565b5050919050565b6060600061149083610ac1565b90506000805b825181101561156a57600073ffffffffffffffffffffffffffffffffffffffff168382815181106114ca576114c9612b9a565b5b602002602001015160c0015173ffffffffffffffffffffffffffffffffffffffff161415801561154357508473ffffffffffffffffffffffffffffffffffffffff1683828151811061151f5761151e612b9a565b5b602002602001015160c0015173ffffffffffffffffffffffffffffffffffffffff16145b1561155757818061155390612b23565b9250505b808061156290612b23565b915050611496565b508067ffffffffffffffff81111561158557611584612b6b565b5b6040519080825280602002602001820160405280156115be57816020015b6115ab6123ec565b8152602001906001900390816115a35790505b5092506000905060005b82518110156116d557600073ffffffffffffffffffffffffffffffffffffffff168382815181106115fc576115fb612b9a565b5b602002602001015160c0015173ffffffffffffffffffffffffffffffffffffffff161415801561167557508473ffffffffffffffffffffffffffffffffffffffff1683828151811061165157611650612b9a565b5b602002602001015160c0015173ffffffffffffffffffffffffffffffffffffffff16145b156116c25782818151811061168d5761168c612b9a565b5b60200260200101518483815181106116a8576116a7612b9a565b5b602002602001018190525081806116be90612b23565b9250505b80806116cd90612b23565b9150506115c8565b505050919050565b600160009054906101000a900473ffffffffffffffffffffffffffffffffffffffff1681565b6060600061171083610ac1565b90506000805b825181101561179357600073ffffffffffffffffffffffffffffffffffffffff1683828151811061174a57611749612b9a565b5b602002602001015160c0015173ffffffffffffffffffffffffffffffffffffffff160361178057818061177c90612b23565b9250505b808061178b90612b23565b915050611716565b508067ffffffffffffffff8111156117ae576117ad612b6b565b5b6040519080825280602002602001820160405280156117e757816020015b6117d46123ec565b8152602001906001900390816117cc5790505b5092506000905060005b82518110156118a757600073ffffffffffffffffffffffffffffffffffffffff1683828151811061182557611824612b9a565b5b602002602001015160c0015173ffffffffffffffffffffffffffffffffffffffff16036118945782818151811061185f5761185e612b9a565b5b602002602001015184838151811061187a57611879612b9a565b5b6020026020010181905250818061189090612b23565b9250505b808061189f90612b23565b9150506117f1565b505050919050565b60025481565b6118bd6123ec565b600660008381526020019081526020016000206040518060e0016040529081600082015481526020016001820160009054906101000a900473ffffffffffffffffffffffffffffffffffffffff1673ffffffffffffffffffffffffffffffffffffffff1673ffffffffffffffffffffffffffffffffffffffff168152602001600282015481526020016003820160009054906101000a900473ffffffffffffffffffffffffffffffffffffffff1673ffffffffffffffffffffffffffffffffffffffff1673ffffffffffffffffffffffffffffffffffffffff16815260200160048201548152602001600582015481526020016006820160009054906101000a900473ffffffffffffffffffffffffffffffffffffffff1673ffffffffffffffffffffffffffffffffffffffff1673ffffffffffffffffffffffffffffffffffffffff16815250509050919050565b60005481565b600054341015611a2157600080fd5b6000811480611a305750600281145b80611a3b5750600181145b611a4457600080fd5b600115156005600084815260200190815260200160002060030160009054906101000a900460ff16151514611a7857600080fd5b6000611aad600460006005600087815260200190815260200160002060000154815260200190815260200160002054836120e1565b905060006005600085815260200190815260200160002060030160006101000a81548160ff0219169083151502179055506000808203611bd657600054600760006005600088815260200190815260200160002060010160009054906101000a900473ffffffffffffffffffffffffffffffffffffffff1673ffffffffffffffffffffffffffffffffffffffff1673ffffffffffffffffffffffffffffffffffffffff1681526020019081526020016000206000828254611b6e9190612aef565b92505081905550600054600760003373ffffffffffffffffffffffffffffffffffffffff1673ffffffffffffffffffffffffffffffffffffffff1681526020019081526020016000206000828254611bc69190612aef565b9250508190555060009050611d40565b60018203611cc257600a6013600054611bef9190612bc9565b611bf99190612c3a565b600760006005600088815260200190815260200160002060010160009054906101000a900473ffffffffffffffffffffffffffffffffffffffff1673ffffffffffffffffffffffffffffffffffffffff1673ffffffffffffffffffffffffffffffffffffffff1681526020019081526020016000206000828254611c7d9190612aef565b925050819055506005600085815260200190815260200160002060010160009054906101000a900473ffffffffffffffffffffffffffffffffffffffff169050611d3f565b60028203611d3e57600a6013600054611cdb9190612bc9565b611ce59190612c3a565b600760003373ffffffffffffffffffffffffffffffffffffffff1673ffffffffffffffffffffffffffffffffffffffff1681526020019081526020016000206000828254611d339190612aef565b925050819055503390505b5b5b611d996005600086815260200190815260200160002060010160009054906101000a900473ffffffffffffffffffffffffffffffffffffffff1660046000878152602001908152602001600020543386600054866121fa565b50505050565b6000600354905090565b60606000611db683610ac1565b90506000805b8251811015611e38578473ffffffffffffffffffffffffffffffffffffffff16838281518110611def57611dee612b9a565b5b602002602001015160c0015173ffffffffffffffffffffffffffffffffffffffff1603611e25578180611e2190612b23565b9250505b8080611e3090612b23565b915050611dbc565b508067ffffffffffffffff811115611e5357611e52612b6b565b5b604051908082528060200260200182016040528015611e8c57816020015b611e796123ec565b815260200190600190039081611e715790505b5092506000905060005b8251811015611f4b573373ffffffffffffffffffffffffffffffffffffffff16838281518110611ec957611ec8612b9a565b5b602002602001015160c0015173ffffffffffffffffffffffffffffffffffffffff1603611f3857828181518110611f0357611f02612b9a565b5b6020026020010151848381518110611f1e57611f1d612b9a565b5b60200260200101819052508180611f3490612b23565b9250505b8080611f4390612b23565b915050611e96565b505050919050565b6000600860008373ffffffffffffffffffffffffffffffffffffffff1673ffffffffffffffffffffffffffffffffffffffff168152602001908152602001600020549050919050565b60086020528060005260406000206000915090505481565b60076020528060005260406000206000915090505481565b600047905090565b60036000815480929190611fe790612b23565b91905055506000604051806080016040528060035481526020018373ffffffffffffffffffffffffffffffffffffffff1681526020016000548152602001600115158152509050806005600060035481526020019081526020016000206000820151816000015560208201518160010160006101000a81548173ffffffffffffffffffffffffffffffffffffffff021916908373ffffffffffffffffffffffffffffffffffffffff1602179055506040820151816002015560608201518160030160006101000a81548160ff0219169083151502179055509050508260046000600354815260200190815260200160002081905550505050565b600080831480156120f25750600082145b1561210057600090506121f4565b6000831480156121105750600282145b1561211e57600190506121f3565b60008314801561212e5750600182145b1561213c57600290506121f2565b60028314801561214c5750600282145b1561215a57600090506121f1565b60028314801561216a5750600082145b1561217857600290506121f0565b6002831480156121885750600182145b1561219657600190506121ef565b6001831480156121a65750600182145b156121b457600090506121ee565b6001831480156121c45750600082145b156121d257600190506121ed565b6001831480156121e25750600282145b156121ec57600290505b5b5b5b5b5b5b5b5b92915050565b6002600081548092919061220d90612b23565b919050555060006040518060e0016040528060025481526020018873ffffffffffffffffffffffffffffffffffffffff1681526020018781526020018673ffffffffffffffffffffffffffffffffffffffff1681526020018581526020018481526020018373ffffffffffffffffffffffffffffffffffffffff168152509050806006600060025481526020019081526020016000206000820151816000015560208201518160010160006101000a81548173ffffffffffffffffffffffffffffffffffffffff021916908373ffffffffffffffffffffffffffffffffffffffff1602179055506040820151816002015560608201518160030160006101000a81548173ffffffffffffffffffffffffffffffffffffffff021916908373ffffffffffffffffffffffffffffffffffffffff1602179055506080820151816004015560a0820151816005015560c08201518160060160006101000a81548173ffffffffffffffffffffffffffffffffffffffff021916908373ffffffffffffffffffffffffffffffffffffffff16021790555090505050505050505050565b604051806080016040528060008152602001600073ffffffffffffffffffffffffffffffffffffffff168152602001600081526020016000151581525090565b6040518060e0016040528060008152602001600073ffffffffffffffffffffffffffffffffffffffff16815260200160008152602001600073ffffffffffffffffffffffffffffffffffffffff1681526020016000815260200160008152602001600073ffffffffffffffffffffffffffffffffffffffff1681525090565b600080fd5b6000819050919050565b61248381612470565b811461248e57600080fd5b50565b6000813590506124a08161247a565b92915050565b6000602082840312156124bc576124bb61246b565b5b60006124ca84828501612491565b91505092915050565b600081519050919050565b600082825260208201905092915050565b6000819050602082019050919050565b61250881612470565b82525050565b600073ffffffffffffffffffffffffffffffffffffffff82169050919050565b60006125398261250e565b9050919050565b6125498161252e565b82525050565b60008115159050919050565b6125648161254f565b82525050565b60808201600082015161258060008501826124ff565b5060208201516125936020850182612540565b5060408201516125a660408501826124ff565b5060608201516125b9606085018261255b565b50505050565b60006125cb838361256a565b60808301905092915050565b6000602082019050919050565b60006125ef826124d3565b6125f981856124de565b9350612604836124ef565b8060005b8381101561263557815161261c88826125bf565b9750612627836125d7565b925050600181019050612608565b5085935050505092915050565b6000602082019050818103600083015261265c81846125e4565b905092915050565b61266d81612470565b82525050565b61267c8161252e565b82525050565b600060e082019050612697600083018a612664565b6126a46020830189612673565b6126b16040830188612664565b6126be6060830187612673565b6126cb6080830186612664565b6126d860a0830185612664565b6126e560c0830184612673565b98975050505050505050565b6126fa8161252e565b811461270557600080fd5b50565b600081359050612717816126f1565b92915050565b6000602082840312156127335761273261246b565b5b600061274184828501612708565b91505092915050565b600081519050919050565b600082825260208201905092915050565b6000819050602082019050919050565b60e08201600082015161278c60008501826124ff565b50602082015161279f6020850182612540565b5060408201516127b260408501826124ff565b5060608201516127c56060850182612540565b5060808201516127d860808501826124ff565b5060a08201516127eb60a08501826124ff565b5060c08201516127fe60c0850182612540565b50505050565b60006128108383612776565b60e08301905092915050565b6000602082019050919050565b60006128348261274a565b61283e8185612755565b935061284983612766565b8060005b8381101561287a5781516128618882612804565b975061286c8361281c565b92505060018101905061284d565b5085935050505092915050565b600060208201905081810360008301526128a18184612829565b905092915050565b60006020820190506128be6000830184612664565b92915050565b6080820160008201516128da60008501826124ff565b5060208201516128ed6020850182612540565b50604082015161290060408501826124ff565b506060820151612913606085018261255b565b50505050565b600060808201905061292e60008301846128c4565b92915050565b61293d8161254f565b82525050565b60006080820190506129586000830187612664565b6129656020830186612673565b6129726040830185612664565b61297f6060830184612934565b95945050505050565b600060208201905061299d6000830184612673565b92915050565b60e0820160008201516129b960008501826124ff565b5060208201516129cc6020850182612540565b5060408201516129df60408501826124ff565b5060608201516129f26060850182612540565b506080820151612a0560808501826124ff565b5060a0820151612a1860a08501826124ff565b5060c0820151612a2b60c0850182612540565b50505050565b600060e082019050612a4660008301846129a3565b92915050565b60008060408385031215612a6357612a6261246b565b5b6000612a7185828601612491565b9250506020612a8285828601612491565b9150509250929050565b7f4e487b7100000000000000000000000000000000000000000000000000000000600052601160045260246000fd5b6000612ac682612470565b9150612ad183612470565b9250828203905081811115612ae957612ae8612a8c565b5b92915050565b6000612afa82612470565b9150612b0583612470565b9250828201905080821115612b1d57612b1c612a8c565b5b92915050565b6000612b2e82612470565b91507fffffffffffffffffffffffffffffffffffffffffffffffffffffffffffffffff8203612b6057612b5f612a8c565b5b600182019050919050565b7f4e487b7100000000000000000000000000000000000000000000000000000000600052604160045260246000fd5b7f4e487b7100000000000000000000000000000000000000000000000000000000600052603260045260246000fd5b6000612bd482612470565b9150612bdf83612470565b9250828202612bed81612470565b91508282048414831517612c0457612c03612a8c565b5b5092915050565b7f4e487b7100000000000000000000000000000000000000000000000000000000600052601260045260246000fd5b6000612c4582612470565b9150612c5083612470565b925082612c6057612c5f612c0b565b5b82820490509291505056fea26469706673582212206e1e7f3dbe962ab5243664a44ad247abdea1007284d8a6bde3a66ed39fcff83e64736f6c63430008120033",
  "linkReferences": {},
  "deployedLinkReferences": {}
}