{
  "_format": "hh-sol-artifact-1",
  "contractName": "RPS",
  "sourceName": "contracts/RPS.sol",
  "abi": [
    {
      "inputs": [
        {
          "internalType": "uint256",
          "name": "_amount",
          "type": "uint256"
        }
      ],
      "stateMutability": "payable",
      "type": "constructor"
    },
    {
      "inputs": [],
      "name": "amount",
      "outputs": [
        {
          "internalType": "uint256",
          "name": "",
          "type": "uint256"
        }
      ],
      "stateMutability": "view",
      "type": "function"
    },
    {
      "inputs": [
        {
          "internalType": "uint256",
          "name": "id",
          "type": "uint256"
        }
      ],
      "name": "cancelGame",
      "outputs": [],
      "stateMutability": "nonpayable",
      "type": "function"
    },
    {
      "inputs": [
        {
          "internalType": "uint256",
          "name": "_amount",
          "type": "uint256"
        }
      ],
      "name": "claimRewards",
      "outputs": [],
      "stateMutability": "nonpayable",
      "type": "function"
    },
    {
      "inputs": [
        {
          "internalType": "address",
          "name": "",
          "type": "address"
        }
      ],
      "name": "claimableRewards",
      "outputs": [
        {
          "internalType": "uint256",
          "name": "",
          "type": "uint256"
        }
      ],
      "stateMutability": "view",
      "type": "function"
    },
    {
      "inputs": [
        {
          "internalType": "address",
          "name": "",
          "type": "address"
        }
      ],
      "name": "claimedRewards",
      "outputs": [
        {
          "internalType": "uint256",
          "name": "",
          "type": "uint256"
        }
      ],
      "stateMutability": "view",
      "type": "function"
    },
    {
      "inputs": [
        {
          "internalType": "uint256",
          "name": "_firstMove",
          "type": "uint256"
        }
      ],
      "name": "createGame",
      "outputs": [],
      "stateMutability": "payable",
      "type": "function"
    },
    {
      "inputs": [
        {
          "internalType": "uint256",
          "name": "",
          "type": "uint256"
        }
      ],
      "name": "games",
      "outputs": [
        {
          "internalType": "uint256",
          "name": "id",
          "type": "uint256"
        },
        {
          "internalType": "address",
          "name": "opponent1",
          "type": "address"
        },
        {
          "internalType": "uint256",
          "name": "move1",
          "type": "uint256"
        },
        {
          "internalType": "address",
          "name": "opponent2",
          "type": "address"
        },
        {
          "internalType": "uint256",
          "name": "move2",
          "type": "uint256"
        },
        {
          "internalType": "uint256",
          "name": "value",
          "type": "uint256"
        },
        {
          "internalType": "address",
          "name": "winner",
          "type": "address"
        },
        {
          "internalType": "uint256",
          "name": "timestamp",
          "type": "uint256"
        }
      ],
      "stateMutability": "view",
      "type": "function"
    },
    {
      "inputs": [
        {
          "internalType": "address",
          "name": "adr",
          "type": "address"
        }
      ],
      "name": "getClaimableRewards",
      "outputs": [
        {
          "internalType": "uint256",
          "name": "reward",
          "type": "uint256"
        }
      ],
      "stateMutability": "view",
      "type": "function"
    },
    {
      "inputs": [
        {
          "internalType": "address",
          "name": "adr",
          "type": "address"
        }
      ],
      "name": "getClaimedRewards",
      "outputs": [
        {
          "internalType": "uint256",
          "name": "claimedReward",
          "type": "uint256"
        }
      ],
      "stateMutability": "view",
      "type": "function"
    },
    {
      "inputs": [],
      "name": "getGames",
      "outputs": [
        {
          "components": [
            {
              "internalType": "uint256",
              "name": "id",
              "type": "uint256"
            },
            {
              "internalType": "address",
              "name": "opponent1",
              "type": "address"
            },
            {
              "internalType": "uint256",
              "name": "move1",
              "type": "uint256"
            },
            {
              "internalType": "address",
              "name": "opponent2",
              "type": "address"
            },
            {
              "internalType": "uint256",
              "name": "move2",
              "type": "uint256"
            },
            {
              "internalType": "uint256",
              "name": "value",
              "type": "uint256"
            },
            {
              "internalType": "address",
              "name": "winner",
              "type": "address"
            },
            {
              "internalType": "uint256",
              "name": "timestamp",
              "type": "uint256"
            }
          ],
          "internalType": "struct RPS.Game[]",
          "name": "_games",
          "type": "tuple[]"
        }
      ],
      "stateMutability": "view",
      "type": "function"
    },
    {
      "inputs": [],
      "name": "getPendingGames",
      "outputs": [
        {
          "components": [
            {
              "internalType": "uint256",
              "name": "id",
              "type": "uint256"
            },
            {
              "internalType": "address",
              "name": "gameCreator",
              "type": "address"
            },
            {
              "internalType": "uint256",
              "name": "value",
              "type": "uint256"
            },
            {
              "internalType": "bool",
              "name": "active",
              "type": "bool"
            },
            {
              "internalType": "uint256",
              "name": "timestamp",
              "type": "uint256"
            }
          ],
          "internalType": "struct RPS.PendingGame[]",
          "name": "_pendingGames",
          "type": "tuple[]"
        }
      ],
      "stateMutability": "view",
      "type": "function"
    },
    {
      "inputs": [
        {
          "internalType": "uint256",
          "name": "id",
          "type": "uint256"
        },
        {
          "internalType": "uint256",
          "name": "_secondMove",
          "type": "uint256"
        }
      ],
      "name": "joinGame",
      "outputs": [],
      "stateMutability": "payable",
      "type": "function"
    },
    {
      "inputs": [],
      "name": "owner",
      "outputs": [
        {
          "internalType": "address",
          "name": "",
          "type": "address"
        }
      ],
      "stateMutability": "view",
      "type": "function"
    },
    {
      "inputs": [
        {
          "internalType": "uint256",
          "name": "",
          "type": "uint256"
        }
      ],
      "name": "pendingGames",
      "outputs": [
        {
          "internalType": "uint256",
          "name": "id",
          "type": "uint256"
        },
        {
          "internalType": "address",
          "name": "gameCreator",
          "type": "address"
        },
        {
          "internalType": "uint256",
          "name": "value",
          "type": "uint256"
        },
        {
          "internalType": "bool",
          "name": "active",
          "type": "bool"
        },
        {
          "internalType": "uint256",
          "name": "timestamp",
          "type": "uint256"
        }
      ],
      "stateMutability": "view",
      "type": "function"
    },
    {
      "inputs": [
        {
          "internalType": "uint256",
          "name": "_amount",
          "type": "uint256"
        }
      ],
      "name": "withdraw",
      "outputs": [],
      "stateMutability": "nonpayable",
      "type": "function"
    }
  ],
  "bytecode": "0x608060405260405162001c4e38038062001c4e8339818101604052810190620000299190620000b8565b8060008190555033600160006101000a81548173ffffffffffffffffffffffffffffffffffffffff021916908373ffffffffffffffffffffffffffffffffffffffff16021790555050620000ea565b600080fd5b6000819050919050565b62000092816200007d565b81146200009e57600080fd5b50565b600081519050620000b28162000087565b92915050565b600060208284031215620000d157620000d062000078565b5b6000620000e184828501620000a1565b91505092915050565b611b5480620000fa6000396000f3fe6080604052600436106100e85760003560e01c80638da5cb5b1161008a578063bd83434511610059578063bd834345146102f5578063c04c594714610332578063dc01f60d1461035d578063ff6f4bc11461039a576100e8565b80638da5cb5b14610246578063aa8c217c14610271578063b60b9fcb1461029c578063b9e35db0146102b8576100e8565b8063308e401e116100c6578063308e401e1461018357806348e837b9146101c0578063579e94ee146101dc57806369958ab91461021d576100e8565b80630962ef79146100ed578063117a5b90146101165780632e1a7d4d1461015a575b600080fd5b3480156100f957600080fd5b50610114600480360381019061010f91906114a4565b6103c5565b005b34801561012257600080fd5b5061013d600480360381019061013891906114a4565b610553565b604051610151989796959493929190611521565b60405180910390f35b34801561016657600080fd5b50610181600480360381019061017c91906114a4565b61060b565b005b34801561018f57600080fd5b506101aa60048036038101906101a591906115cb565b6106af565b6040516101b791906115f8565b60405180910390f35b6101da60048036038101906101d591906114a4565b6106f8565b005b3480156101e857600080fd5b5061020360048036038101906101fe91906114a4565b61075c565b60405161021495949392919061162e565b60405180910390f35b34801561022957600080fd5b50610244600480360381019061023f91906114a4565b6107cf565b005b34801561025257600080fd5b5061025b610928565b6040516102689190611681565b60405180910390f35b34801561027d57600080fd5b5061028661094e565b60405161029391906115f8565b60405180910390f35b6102b660048036038101906102b1919061169c565b610954565b005b3480156102c457600080fd5b506102df60048036038101906102da91906115cb565b610d5d565b6040516102ec91906115f8565b60405180910390f35b34801561030157600080fd5b5061031c600480360381019061031791906115cb565b610da6565b60405161032991906115f8565b60405180910390f35b34801561033e57600080fd5b50610347610dbe565b604051610354919061184c565b60405180910390f35b34801561036957600080fd5b50610384600480360381019061037f91906115cb565b610f52565b60405161039191906115f8565b60405180910390f35b3480156103a657600080fd5b506103af610f6a565b6040516103bc9190611994565b60405180910390f35b6000600560003373ffffffffffffffffffffffffffffffffffffffff1673ffffffffffffffffffffffffffffffffffffffff168152602001908152602001600020541161041157600080fd5b600560003373ffffffffffffffffffffffffffffffffffffffff1673ffffffffffffffffffffffffffffffffffffffff1681526020019081526020016000205481111561045d57600080fd5b80600560003373ffffffffffffffffffffffffffffffffffffffff1673ffffffffffffffffffffffffffffffffffffffff16815260200190815260200160002060008282546104ac91906119e5565b9250508190555080600660003373ffffffffffffffffffffffffffffffffffffffff1673ffffffffffffffffffffffffffffffffffffffff16815260200190815260200160002060008282546105029190611a19565b925050819055503373ffffffffffffffffffffffffffffffffffffffff166108fc829081150290604051600060405180830381858888f1935050505015801561054f573d6000803e3d6000fd5b5050565b6003818154811061056357600080fd5b90600052602060002090600802016000915090508060000154908060010160009054906101000a900473ffffffffffffffffffffffffffffffffffffffff16908060020154908060030160009054906101000a900473ffffffffffffffffffffffffffffffffffffffff16908060040154908060050154908060060160009054906101000a900473ffffffffffffffffffffffffffffffffffffffff16908060070154905088565b600160009054906101000a900473ffffffffffffffffffffffffffffffffffffffff1673ffffffffffffffffffffffffffffffffffffffff163373ffffffffffffffffffffffffffffffffffffffff161461066557600080fd5b3373ffffffffffffffffffffffffffffffffffffffff166108fc829081150290604051600060405180830381858888f193505050501580156106ab573d6000803e3d6000fd5b5050565b6000600560008373ffffffffffffffffffffffffffffffffffffffff1673ffffffffffffffffffffffffffffffffffffffff168152602001908152602001600020549050919050565b3373ffffffffffffffffffffffffffffffffffffffff163134111561071c57600080fd5b60005434101561072b57600080fd5b600081148061073a5750600281145b806107455750600181145b61074e57600080fd5b610759813342611058565b50565b6002818154811061076c57600080fd5b90600052602060002090600502016000915090508060000154908060010160009054906101000a900473ffffffffffffffffffffffffffffffffffffffff16908060020154908060030160009054906101000a900460ff16908060040154905085565b600281815481106107e3576107e2611a4d565b5b906000526020600020906005020160010160009054906101000a900473ffffffffffffffffffffffffffffffffffffffff1673ffffffffffffffffffffffffffffffffffffffff163373ffffffffffffffffffffffffffffffffffffffff161461084c57600080fd5b600115156002828154811061086457610863611a4d565b5b906000526020600020906005020160030160009054906101000a900460ff1615151461088f57600080fd5b6000600282815481106108a5576108a4611a4d565b5b906000526020600020906005020160030160006101000a81548160ff021916908315150217905550600054600560003373ffffffffffffffffffffffffffffffffffffffff1673ffffffffffffffffffffffffffffffffffffffff168152602001908152602001600020600082825461091e9190611a19565b9250508190555050565b600160009054906101000a900473ffffffffffffffffffffffffffffffffffffffff1681565b60005481565b600060018361096391906119e5565b905060005434101561097457600080fd5b60008214806109835750600282145b8061098e5750600182145b61099757600080fd5b60011515600282815481106109af576109ae611a4d565b5b906000526020600020906005020160030160009054906101000a900460ff161515146109da57600080fd5b6000610a1e60046000600285815481106109f7576109f6611a4d565b5b90600052602060002090600502016000015481526020019081526020016000205484611180565b9050600060028381548110610a3657610a35611a4d565b5b906000526020600020906005020160030160006101000a81548160ff0219169083151502179055506000808203610b65576000546005600060028681548110610a8257610a81611a4d565b5b906000526020600020906005020160010160009054906101000a900473ffffffffffffffffffffffffffffffffffffffff1673ffffffffffffffffffffffffffffffffffffffff1673ffffffffffffffffffffffffffffffffffffffff1681526020019081526020016000206000828254610afd9190611a19565b92505081905550600054600560003373ffffffffffffffffffffffffffffffffffffffff1673ffffffffffffffffffffffffffffffffffffffff1681526020019081526020016000206000828254610b559190611a19565b9250508190555060009050610ced565b60018203610c6f57600a6013600054610b7e9190611a7c565b610b889190611aed565b6005600060028681548110610ba057610b9f611a4d565b5b906000526020600020906005020160010160009054906101000a900473ffffffffffffffffffffffffffffffffffffffff1673ffffffffffffffffffffffffffffffffffffffff1673ffffffffffffffffffffffffffffffffffffffff1681526020019081526020016000206000828254610c1b9190611a19565b9250508190555060028381548110610c3657610c35611a4d565b5b906000526020600020906005020160010160009054906101000a900473ffffffffffffffffffffffffffffffffffffffff169050610cec565b60028203610ceb57600a6013600054610c889190611a7c565b610c929190611aed565b600560003373ffffffffffffffffffffffffffffffffffffffff1673ffffffffffffffffffffffffffffffffffffffff1681526020019081526020016000206000828254610ce09190611a19565b925050819055503390505b5b5b610d5660028481548110610d0457610d03611a4d565b5b906000526020600020906005020160010160009054906101000a900473ffffffffffffffffffffffffffffffffffffffff16600460008881526020019081526020016000205433876000548642611299565b5050505050565b6000600660008373ffffffffffffffffffffffffffffffffffffffff1673ffffffffffffffffffffffffffffffffffffffff168152602001908152602001600020549050919050565b60066020528060005260406000206000915090505481565b60606003805480602002602001604051908101604052809291908181526020016000905b82821015610f49578382906000526020600020906008020160405180610100016040529081600082015481526020016001820160009054906101000a900473ffffffffffffffffffffffffffffffffffffffff1673ffffffffffffffffffffffffffffffffffffffff1673ffffffffffffffffffffffffffffffffffffffff168152602001600282015481526020016003820160009054906101000a900473ffffffffffffffffffffffffffffffffffffffff1673ffffffffffffffffffffffffffffffffffffffff1673ffffffffffffffffffffffffffffffffffffffff16815260200160048201548152602001600582015481526020016006820160009054906101000a900473ffffffffffffffffffffffffffffffffffffffff1673ffffffffffffffffffffffffffffffffffffffff1673ffffffffffffffffffffffffffffffffffffffff16815260200160078201548152505081526020019060010190610de2565b50505050905090565b60056020528060005260406000206000915090505481565b60606002805480602002602001604051908101604052809291908181526020016000905b8282101561104f57838290600052602060002090600502016040518060a0016040529081600082015481526020016001820160009054906101000a900473ffffffffffffffffffffffffffffffffffffffff1673ffffffffffffffffffffffffffffffffffffffff1673ffffffffffffffffffffffffffffffffffffffff168152602001600282015481526020016003820160009054906101000a900460ff1615151515815260200160048201548152505081526020019060010190610f8e565b50505050905090565b6000600160028054905061106c9190611a19565b905060026040518060a001604052808381526020018573ffffffffffffffffffffffffffffffffffffffff16815260200160005481526020016001151581526020018481525090806001815401808255809150506001900390600052602060002090600502016000909190919091506000820151816000015560208201518160010160006101000a81548173ffffffffffffffffffffffffffffffffffffffff021916908373ffffffffffffffffffffffffffffffffffffffff1602179055506040820151816002015560608201518160030160006101000a81548160ff02191690831515021790555060808201518160040155505083600460008381526020019081526020016000208190555050505050565b600080831480156111915750600082145b1561119f5760009050611293565b6000831480156111af5750600282145b156111bd5760019050611292565b6000831480156111cd5750600182145b156111db5760029050611291565b6002831480156111eb5750600282145b156111f95760009050611290565b6002831480156112095750600082145b15611217576002905061128f565b6002831480156112275750600182145b15611235576001905061128e565b6001831480156112455750600182145b15611253576000905061128d565b6001831480156112635750600082145b15611271576001905061128c565b6001831480156112815750600282145b1561128b57600290505b5b5b5b5b5b5b5b5b92915050565b600060016003805490506112ad9190611a19565b905060036040518061010001604052808381526020018a73ffffffffffffffffffffffffffffffffffffffff1681526020018981526020018873ffffffffffffffffffffffffffffffffffffffff1681526020018781526020018681526020018573ffffffffffffffffffffffffffffffffffffffff1681526020018481525090806001815401808255809150506001900390600052602060002090600802016000909190919091506000820151816000015560208201518160010160006101000a81548173ffffffffffffffffffffffffffffffffffffffff021916908373ffffffffffffffffffffffffffffffffffffffff1602179055506040820151816002015560608201518160030160006101000a81548173ffffffffffffffffffffffffffffffffffffffff021916908373ffffffffffffffffffffffffffffffffffffffff1602179055506080820151816004015560a0820151816005015560c08201518160060160006101000a81548173ffffffffffffffffffffffffffffffffffffffff021916908373ffffffffffffffffffffffffffffffffffffffff16021790555060e0820151816007015550505050505050505050565b600080fd5b6000819050919050565b6114818161146e565b811461148c57600080fd5b50565b60008135905061149e81611478565b92915050565b6000602082840312156114ba576114b9611469565b5b60006114c88482850161148f565b91505092915050565b6114da8161146e565b82525050565b600073ffffffffffffffffffffffffffffffffffffffff82169050919050565b600061150b826114e0565b9050919050565b61151b81611500565b82525050565b600061010082019050611537600083018b6114d1565b611544602083018a611512565b61155160408301896114d1565b61155e6060830188611512565b61156b60808301876114d1565b61157860a08301866114d1565b61158560c0830185611512565b61159260e08301846114d1565b9998505050505050505050565b6115a881611500565b81146115b357600080fd5b50565b6000813590506115c58161159f565b92915050565b6000602082840312156115e1576115e0611469565b5b60006115ef848285016115b6565b91505092915050565b600060208201905061160d60008301846114d1565b92915050565b60008115159050919050565b61162881611613565b82525050565b600060a08201905061164360008301886114d1565b6116506020830187611512565b61165d60408301866114d1565b61166a606083018561161f565b61167760808301846114d1565b9695505050505050565b60006020820190506116966000830184611512565b92915050565b600080604083850312156116b3576116b2611469565b5b60006116c18582860161148f565b92505060206116d28582860161148f565b9150509250929050565b600081519050919050565b600082825260208201905092915050565b6000819050602082019050919050565b6117118161146e565b82525050565b61172081611500565b82525050565b6101008201600082015161173d6000850182611708565b5060208201516117506020850182611717565b5060408201516117636040850182611708565b5060608201516117766060850182611717565b5060808201516117896080850182611708565b5060a082015161179c60a0850182611708565b5060c08201516117af60c0850182611717565b5060e08201516117c260e0850182611708565b50505050565b60006117d48383611726565b6101008301905092915050565b6000602082019050919050565b60006117f9826116dc565b61180381856116e7565b935061180e836116f8565b8060005b8381101561183f57815161182688826117c8565b9750611831836117e1565b925050600181019050611812565b5085935050505092915050565b6000602082019050818103600083015261186681846117ee565b905092915050565b600081519050919050565b600082825260208201905092915050565b6000819050602082019050919050565b6118a381611613565b82525050565b60a0820160008201516118bf6000850182611708565b5060208201516118d26020850182611717565b5060408201516118e56040850182611708565b5060608201516118f8606085018261189a565b50608082015161190b6080850182611708565b50505050565b600061191d83836118a9565b60a08301905092915050565b6000602082019050919050565b60006119418261186e565b61194b8185611879565b93506119568361188a565b8060005b8381101561198757815161196e8882611911565b975061197983611929565b92505060018101905061195a565b5085935050505092915050565b600060208201905081810360008301526119ae8184611936565b905092915050565b7f4e487b7100000000000000000000000000000000000000000000000000000000600052601160045260246000fd5b60006119f08261146e565b91506119fb8361146e565b9250828203905081811115611a1357611a126119b6565b5b92915050565b6000611a248261146e565b9150611a2f8361146e565b9250828201905080821115611a4757611a466119b6565b5b92915050565b7f4e487b7100000000000000000000000000000000000000000000000000000000600052603260045260246000fd5b6000611a878261146e565b9150611a928361146e565b9250828202611aa08161146e565b91508282048414831517611ab757611ab66119b6565b5b5092915050565b7f4e487b7100000000000000000000000000000000000000000000000000000000600052601260045260246000fd5b6000611af88261146e565b9150611b038361146e565b925082611b1357611b12611abe565b5b82820490509291505056fea2646970667358221220d57d5605d45e6f65df3080e68343208ab5eebe19184427e758294ee2cf436bd564736f6c63430008120033",
  "linkReferences": {},
  "deployedLinkReferences": {}
}